{
  "address": "0xc23535D7F3634634a1E2cF101863db64a7054410",
  "abi": [
    {
      "inputs": [],
      "stateMutability": "nonpayable",
      "type": "constructor"
    },
    {
      "inputs": [],
      "name": "InvalidZeroInput",
      "type": "error"
    },
    {
      "inputs": [],
      "name": "NotERC20RewardsAdmin",
      "type": "error"
    },
    {
      "inputs": [],
      "name": "NotNativeEthRestakeAdmin",
      "type": "error"
    },
    {
      "inputs": [],
      "name": "NotRestakeManager",
      "type": "error"
    },
    {
      "inputs": [],
      "name": "NotRestakeManagerAdmin",
      "type": "error"
    },
    {
      "inputs": [],
      "name": "OverMaxBasisPoints",
      "type": "error"
    },
    {
      "inputs": [],
      "name": "TransferFailed",
      "type": "error"
    },
    {
      "anonymous": false,
      "inputs": [
        {
          "indexed": false,
          "internalType": "uint256",
          "name": "amount",
          "type": "uint256"
        }
      ],
      "name": "ETHDepositedFromProtocol",
      "type": "event"
    },
    {
      "anonymous": false,
      "inputs": [
        {
          "indexed": false,
          "internalType": "contract IOperatorDelegator",
          "name": "operatorDelegator",
          "type": "address"
        },
        {
          "indexed": false,
          "internalType": "bytes",
          "name": "pubkey",
          "type": "bytes"
        },
        {
          "indexed": false,
          "internalType": "uint256",
          "name": "amountStaked",
          "type": "uint256"
        },
        {
          "indexed": false,
          "internalType": "uint256",
          "name": "amountQueued",
          "type": "uint256"
        }
      ],
      "name": "ETHStakedFromQueue",
      "type": "event"
    },
    {
      "anonymous": false,
      "inputs": [
        {
          "indexed": false,
          "internalType": "address",
          "name": "feeAddress",
          "type": "address"
        },
        {
          "indexed": false,
          "internalType": "uint256",
          "name": "feeBasisPoints",
          "type": "uint256"
        }
      ],
      "name": "FeeConfigUpdated",
      "type": "event"
    },
    {
      "anonymous": false,
      "inputs": [
        {
          "indexed": false,
          "internalType": "uint8",
          "name": "version",
          "type": "uint8"
        }
      ],
      "name": "Initialized",
      "type": "event"
    },
    {
      "anonymous": false,
      "inputs": [
        {
          "indexed": false,
          "internalType": "contract IERC20",
          "name": "token",
          "type": "address"
        },
        {
          "indexed": false,
          "internalType": "uint256",
          "name": "amount",
          "type": "uint256"
        },
        {
          "indexed": false,
          "internalType": "address",
          "name": "destination",
          "type": "address"
        }
      ],
      "name": "ProtocolFeesPaid",
      "type": "event"
    },
    {
      "anonymous": false,
      "inputs": [
        {
          "indexed": false,
          "internalType": "contract IRestakeManager",
          "name": "restakeManager",
          "type": "address"
        }
      ],
      "name": "RestakeManagerUpdated",
      "type": "event"
    },
    {
      "anonymous": false,
      "inputs": [
        {
          "indexed": false,
          "internalType": "contract IERC20",
          "name": "token",
          "type": "address"
        },
        {
          "indexed": false,
          "internalType": "uint256",
          "name": "amount",
          "type": "uint256"
        }
      ],
      "name": "RewardsDeposited",
      "type": "event"
    },
    {
      "inputs": [],
      "name": "depositETHFromProtocol",
      "outputs": [],
      "stateMutability": "payable",
      "type": "function"
    },
    {
      "inputs": [],
      "name": "feeAddress",
      "outputs": [
        {
          "internalType": "address",
          "name": "",
          "type": "address"
        }
      ],
      "stateMutability": "view",
      "type": "function"
    },
    {
      "inputs": [],
      "name": "feeBasisPoints",
      "outputs": [
        {
          "internalType": "uint256",
          "name": "",
          "type": "uint256"
        }
      ],
      "stateMutability": "view",
      "type": "function"
    },
    {
      "inputs": [
        {
          "internalType": "contract IRoleManager",
          "name": "_roleManager",
          "type": "address"
        }
      ],
      "name": "initialize",
      "outputs": [],
      "stateMutability": "nonpayable",
      "type": "function"
    },
    {
      "inputs": [],
      "name": "restakeManager",
      "outputs": [
        {
          "internalType": "contract IRestakeManager",
          "name": "",
          "type": "address"
        }
      ],
      "stateMutability": "view",
      "type": "function"
    },
    {
      "inputs": [],
      "name": "roleManager",
      "outputs": [
        {
          "internalType": "contract IRoleManager",
          "name": "",
          "type": "address"
        }
      ],
      "stateMutability": "view",
      "type": "function"
    },
    {
      "inputs": [
        {
          "internalType": "address",
          "name": "_feeAddress",
          "type": "address"
        },
        {
          "internalType": "uint256",
          "name": "_feeBasisPoints",
          "type": "uint256"
        }
      ],
      "name": "setFeeConfig",
      "outputs": [],
      "stateMutability": "nonpayable",
      "type": "function"
    },
    {
      "inputs": [
        {
          "internalType": "contract IRestakeManager",
          "name": "_restakeManager",
          "type": "address"
        }
      ],
      "name": "setRestakeManager",
      "outputs": [],
      "stateMutability": "nonpayable",
      "type": "function"
    },
    {
      "inputs": [
        {
          "internalType": "contract IOperatorDelegator",
          "name": "operatorDelegator",
          "type": "address"
        },
        {
          "internalType": "bytes",
          "name": "pubkey",
          "type": "bytes"
        },
        {
          "internalType": "bytes",
          "name": "signature",
          "type": "bytes"
        },
        {
          "internalType": "bytes32",
          "name": "depositDataRoot",
          "type": "bytes32"
        }
      ],
      "name": "stakeEthFromQueue",
      "outputs": [],
      "stateMutability": "nonpayable",
      "type": "function"
    },
    {
      "inputs": [
        {
          "internalType": "contract IERC20",
          "name": "token",
          "type": "address"
        }
      ],
      "name": "sweepERC20",
      "outputs": [],
      "stateMutability": "nonpayable",
      "type": "function"
    },
    {
      "inputs": [
        {
          "internalType": "address",
          "name": "",
          "type": "address"
        }
      ],
      "name": "totalEarned",
      "outputs": [
        {
          "internalType": "uint256",
          "name": "",
          "type": "uint256"
        }
      ],
      "stateMutability": "view",
      "type": "function"
    },
    {
      "stateMutability": "payable",
      "type": "receive"
    }
  ],
  "transactionHash": "0x85a33d9bc59f26d2174ca57691f3d785d4a56076e7c16ec97a9f99ca30c30cef",
  "args": [],
  "numDeployments": 1,
  "solcInputHash": "e61991be36f3b065cf1f32b510d9735d",
  "bytecode": "0x608060405234801561001057600080fd5b5061001961001e565b6100dd565b600054610100900460ff161561008a5760405162461bcd60e51b815260206004820152602760248201527f496e697469616c697a61626c653a20636f6e747261637420697320696e697469604482015266616c697a696e6760c81b606482015260840160405180910390fd5b60005460ff908116146100db576000805460ff191660ff9081179091556040519081527f7f26b83ff96e1f2b6a682f133852f6798a09c465da95921460cefb38474024989060200160405180910390a15b565b61138b806100ec6000396000f3fe60806040526004361061009f5760003560e01c8063b8606eef11610064578063b8606eef1461035a578063c4d66de814610370578063d123ccd514610390578063e00af4a714610398578063e07a3111146103b8578063ff0996b5146103d857600080fd5b8062435da51461028257806341275358146102bf578063649aca4a146102df578063721b02631461031a57806382e7ee3e1461033a57600080fd5b3661027d576100ac6103f8565b6035546000906001600160a01b0316158015906100cb57506000603654115b156101b257612710603654346100e1919061100d565b6100eb919061102a565b6035546040519192506000916001600160a01b039091169083908381818185875af1925050503d806000811461013d576040519150601f19603f3d011682016040523d82523d6000602084013e610142565b606091505b5050905080610164576040516312171d8360e31b815260040160405180910390fd5b6035546040805160008152602081018590526001600160a01b0390921682820152517fd742cda664e1fb0906a48ed895215860dca3e7168cc6c91163dd3d6fdcaf9cea9181900360600190a1505b6000805260376020527fa0a618d80eda9243166be83cb7421d97e9dab6ddddd3c70ac7a6b4440256e8e75481906101ea90349061104c565b6101f4919061105f565b600080805260376020527fa0a618d80eda9243166be83cb7421d97e9dab6ddddd3c70ac7a6b4440256e8e7919091557fb8b27d0db504fa5d914f1fd330347096e88d5ff94b6c612d32797e7c12a8f66f9061024f833461105f565b604080516001600160a01b03909316835260208301919091520160405180910390a15061027b60018055565b005b600080fd5b34801561028e57600080fd5b506033546102a2906001600160a01b031681565b6040516001600160a01b0390911681526020015b60405180910390f35b3480156102cb57600080fd5b506035546102a2906001600160a01b031681565b3480156102eb57600080fd5b5061030c6102fa36600461108a565b60376020526000908152604090205481565b6040519081526020016102b6565b34801561032657600080fd5b5061027b61033536600461108a565b61045c565b34801561034657600080fd5b5061027b6103553660046110f7565b610560565b34801561036657600080fd5b5061030c60365481565b34801561037c57600080fd5b5061027b61038b36600461108a565b6106b0565b61027b610805565b3480156103a457600080fd5b5061027b6103b336600461108a565b610865565b3480156103c457600080fd5b5061027b6103d3366004611182565b610bb1565b3480156103e457600080fd5b506034546102a2906001600160a01b031681565b60026001540361044f5760405162461bcd60e51b815260206004820152601f60248201527f5265656e7472616e637947756172643a207265656e7472616e742063616c6c0060448201526064015b60405180910390fd5b6002600155565b60018055565b603354604051633edaabc560e11b81523360048201526001600160a01b0390911690637db5578a90602401602060405180830381865afa1580156104a4573d6000803e3d6000fd5b505050506040513d601f19601f820116820180604052508101906104c891906111ae565b6104e557604051632ec79ab960e01b815260040160405180910390fd5b6001600160a01b03811661050c5760405163862a606760e01b815260040160405180910390fd5b603480546001600160a01b0319166001600160a01b0383169081179091556040519081527f36567486c16f58fce432ba0c0119f8d11fd4a8f6530588a2ae5882c1a0e713199060200160405180910390a150565b6033546040516358e3de6f60e01b81523360048201526001600160a01b03909116906358e3de6f90602401602060405180830381865afa1580156105a8573d6000803e3d6000fd5b505050506040513d601f19601f820116820180604052508101906105cc91906111ae565b6105e95760405163bcefa34f60e01b815260040160405180910390fd5b60345460405163abbfe4e760e01b81526001600160a01b039091169063abbfe4e7906801bc16d674ec8000009061062e908a908a908a908a908a908a906004016111f9565b6000604051808303818588803b15801561064757600080fd5b505af115801561065b573d6000803e3d6000fd5b50505050507f030639561eac43b40f07d0889138e1977ea66333c83a4aac859d89bb1132dd088686866801bc16d674ec800000476040516106a0959493929190611245565b60405180910390a1505050505050565b600054610100900460ff16158080156106d05750600054600160ff909116105b806106ea5750303b1580156106ea575060005460ff166001145b61074d5760405162461bcd60e51b815260206004820152602e60248201527f496e697469616c697a61626c653a20636f6e747261637420697320616c72656160448201526d191e481a5b9a5d1a585b1a5e995960921b6064820152608401610446565b6000805460ff191660011790558015610770576000805461ff0019166101001790555b610778610ce3565b6001600160a01b03821661079f5760405163862a606760e01b815260040160405180910390fd5b603380546001600160a01b0319166001600160a01b0384161790558015610801576000805461ff0019169055604051600181527f7f26b83ff96e1f2b6a682f133852f6798a09c465da95921460cefb3847402498906020015b60405180910390a15b5050565b6034546001600160a01b03163314610830576040516342d16b8b60e11b815260040160405180910390fd5b6040513481527f64a8bb55d9dc0d3344c39d9c65ff20418734996690c8ecf27785086ddf7ddebd9060200160405180910390a1565b603354604051637998ea0f60e01b81523360048201526001600160a01b0390911690637998ea0f90602401602060405180830381865afa1580156108ad573d6000803e3d6000fd5b505050506040513d601f19601f820116820180604052508101906108d191906111ae565b6108ee5760405163e1d19bc360e01b815260040160405180910390fd5b6040516370a0823160e01b81523060048201526000906001600160a01b038316906370a0823190602401602060405180830381865afa158015610935573d6000803e3d6000fd5b505050506040513d601f19601f82011682018060405250810190610959919061127e565b90508015610801576035546000906001600160a01b03161580159061098057506000603654115b15610a0b5761271060365483610996919061100d565b6109a0919061102a565b6035549091506109bd906001600160a01b03858116911683610d14565b603554604080516001600160a01b0386811682526020820185905290921682820152517fd742cda664e1fb0906a48ed895215860dca3e7168cc6c91163dd3d6fdcaf9cea9181900360600190a15b6034546001600160a01b038085169163095ea7b39116610a2b848661105f565b6040516001600160e01b031960e085901b1681526001600160a01b03909216600483015260248201526044016020604051808303816000875af1158015610a76573d6000803e3d6000fd5b505050506040513d601f19601f82011682018060405250810190610a9a91906111ae565b506034546001600160a01b031663da25b68e84610ab7848661105f565b6040516001600160e01b031960e085901b1681526001600160a01b0390921660048301526024820152604401600060405180830381600087803b158015610afd57600080fd5b505af1158015610b11573d6000803e3d6000fd5b5050506001600160a01b038416600090815260376020526040902054829150610b3b90849061104c565b610b45919061105f565b6001600160a01b0384166000908152603760205260409020557fb8b27d0db504fa5d914f1fd330347096e88d5ff94b6c612d32797e7c12a8f66f83610b8a838561105f565b604080516001600160a01b03909316835260208301919091520160405180910390a1505050565b603354604051633edaabc560e11b81523360048201526001600160a01b0390911690637db5578a90602401602060405180830381865afa158015610bf9573d6000803e3d6000fd5b505050506040513d601f19601f82011682018060405250810190610c1d91906111ae565b610c3a57604051632ec79ab960e01b815260040160405180910390fd5b8015610c67576001600160a01b038216610c675760405163862a606760e01b815260040160405180910390fd5b612710811115610c8a57604051636b5c426160e01b815260040160405180910390fd5b603580546001600160a01b0319166001600160a01b038416908117909155603682905560408051918252602082018390527fe42708d93b95810922305119a3271ca42233da9ebe1e1e503f0e887817a32c7a91016107f8565b600054610100900460ff16610d0a5760405162461bcd60e51b815260040161044690611297565b610d12610d6b565b565b604080516001600160a01b038416602482015260448082018490528251808303909101815260649091019091526020810180516001600160e01b031663a9059cbb60e01b179052610d66908490610d92565b505050565b600054610100900460ff166104565760405162461bcd60e51b815260040161044690611297565b6000610de7826040518060400160405280602081526020017f5361666545524332303a206c6f772d6c6576656c2063616c6c206661696c6564815250856001600160a01b0316610e679092919063ffffffff16565b9050805160001480610e08575080806020019051810190610e0891906111ae565b610d665760405162461bcd60e51b815260206004820152602a60248201527f5361666545524332303a204552433230206f7065726174696f6e20646964206e6044820152691bdd081cdd58d8d9595960b21b6064820152608401610446565b6060610e768484600085610e7e565b949350505050565b606082471015610edf5760405162461bcd60e51b815260206004820152602660248201527f416464726573733a20696e73756666696369656e742062616c616e636520666f6044820152651c8818d85b1b60d21b6064820152608401610446565b600080866001600160a01b03168587604051610efb9190611306565b60006040518083038185875af1925050503d8060008114610f38576040519150601f19603f3d011682016040523d82523d6000602084013e610f3d565b606091505b5091509150610f4e87838387610f59565b979650505050505050565b60608315610fc8578251600003610fc1576001600160a01b0385163b610fc15760405162461bcd60e51b815260206004820152601d60248201527f416464726573733a2063616c6c20746f206e6f6e2d636f6e74726163740000006044820152606401610446565b5081610e76565b610e768383815115610fdd5781518083602001fd5b8060405162461bcd60e51b81526004016104469190611322565b634e487b7160e01b600052601160045260246000fd5b808202811582820484141761102457611024610ff7565b92915050565b60008261104757634e487b7160e01b600052601260045260246000fd5b500490565b8082018082111561102457611024610ff7565b8181038181111561102457611024610ff7565b6001600160a01b038116811461108757600080fd5b50565b60006020828403121561109c57600080fd5b81356110a781611072565b9392505050565b60008083601f8401126110c057600080fd5b50813567ffffffffffffffff8111156110d857600080fd5b6020830191508360208285010111156110f057600080fd5b9250929050565b6000806000806000806080878903121561111057600080fd5b863561111b81611072565b9550602087013567ffffffffffffffff8082111561113857600080fd5b6111448a838b016110ae565b9097509550604089013591508082111561115d57600080fd5b5061116a89828a016110ae565b979a9699509497949695606090950135949350505050565b6000806040838503121561119557600080fd5b82356111a081611072565b946020939093013593505050565b6000602082840312156111c057600080fd5b815180151581146110a757600080fd5b81835281816020850137506000828201602090810191909152601f909101601f19169091010190565b6001600160a01b038716815260806020820181905260009061121e90830187896111d0565b82810360408401526112318186886111d0565b915050826060830152979650505050505050565b6001600160a01b038616815260806020820181905260009061126a90830186886111d0565b604083019490945250606001529392505050565b60006020828403121561129057600080fd5b5051919050565b6020808252602b908201527f496e697469616c697a61626c653a20636f6e7472616374206973206e6f74206960408201526a6e697469616c697a696e6760a81b606082015260800190565b60005b838110156112fd5781810151838201526020016112e5565b50506000910152565b600082516113188184602087016112e2565b9190910192915050565b60208152600082518060208401526113418160408501602087016112e2565b601f01601f1916919091016040019291505056fea2646970667358221220f1d0e8206de052443133155df64dc6a1d77e21f4daf29c9861579d2a2332d91664736f6c63430008130033",
  "devdoc": {
    "errors": {
      "InvalidZeroInput()": [
        {
          "details": "Error for 0x0 address inputs"
        }
      ],
      "NotERC20RewardsAdmin()": [
        {
          "details": "Error when caller does not have ERC20 Rewards Admin role"
        }
      ],
      "NotNativeEthRestakeAdmin()": [
        {
          "details": "Errror when caller does not have ETH Restake Admin role"
        }
      ],
      "NotRestakeManager()": [
        {
          "details": "Error when caller is not RestakeManager contract"
        }
      ],
      "NotRestakeManagerAdmin()": [
        {
          "details": "Error for caller not having permissions"
        }
      ],
      "OverMaxBasisPoints()": [
        {
          "details": "Error for exceeding max basis points (100%)"
        }
      ],
      "TransferFailed()": [
        {
          "details": "Error when ending ETH fails"
        }
      ]
    },
    "events": {
      "Initialized(uint8)": {
        "details": "Triggered when the contract has been initialized or reinitialized."
      }
    },
    "kind": "dev",
    "methods": {
      "constructor": {
        "custom:oz-upgrades-unsafe-allow": "constructor",
        "details": "Prevents implementation contract from being initialized."
      },
      "depositETHFromProtocol()": {
        "details": "Handle ETH sent to the protocol through the RestakeManager - e.g. user deposits ETH will be stored here until used for a validator deposit"
      },
      "initialize(address)": {
        "details": "Initializes the contract with initial vars"
      },
      "setFeeConfig(address,uint256)": {
        "details": "Sets the config for fees - if either value is set to 0 then fees are disabled"
      },
      "setRestakeManager(address)": {
        "details": "Sets the address of the RestakeManager contract"
      },
      "stakeEthFromQueue(address,bytes,bytes,bytes32)": {
        "details": "Function called by ETH Restake Admin to start the restaking process in Native ETH Only callable by a permissioned account"
      },
      "sweepERC20(address)": {
        "details": "Sweeps any accumulated ERC20 tokens in this contract to the RestakeManager Only callable by a permissioned account"
      }
    },
    "version": 1
  },
  "userdoc": {
    "kind": "user",
    "methods": {},
    "version": 1
  },
  "storageLayout": {
    "storage": [
      {
        "astId": 461,
        "contract": "contracts/Deposits/DepositQueue.sol:DepositQueue",
        "label": "_initialized",
        "offset": 0,
        "slot": "0",
        "type": "t_uint8"
      },
      {
        "astId": 464,
        "contract": "contracts/Deposits/DepositQueue.sol:DepositQueue",
        "label": "_initializing",
        "offset": 1,
        "slot": "0",
        "type": "t_bool"
      },
      {
        "astId": 637,
        "contract": "contracts/Deposits/DepositQueue.sol:DepositQueue",
        "label": "_status",
        "offset": 0,
        "slot": "1",
        "type": "t_uint256"
      },
      {
        "astId": 706,
        "contract": "contracts/Deposits/DepositQueue.sol:DepositQueue",
        "label": "__gap",
        "offset": 0,
        "slot": "2",
        "type": "t_array(t_uint256)49_storage"
      },
      {
        "astId": 5678,
        "contract": "contracts/Deposits/DepositQueue.sol:DepositQueue",
        "label": "roleManager",
        "offset": 0,
        "slot": "51",
        "type": "t_contract(IRoleManager)11263"
      },
      {
        "astId": 5682,
        "contract": "contracts/Deposits/DepositQueue.sol:DepositQueue",
        "label": "restakeManager",
        "offset": 0,
        "slot": "52",
        "type": "t_contract(IRestakeManager)10721"
      },
      {
        "astId": 5685,
        "contract": "contracts/Deposits/DepositQueue.sol:DepositQueue",
        "label": "feeAddress",
        "offset": 0,
        "slot": "53",
        "type": "t_address"
      },
      {
        "astId": 5688,
        "contract": "contracts/Deposits/DepositQueue.sol:DepositQueue",
        "label": "feeBasisPoints",
        "offset": 0,
        "slot": "54",
        "type": "t_uint256"
      },
      {
        "astId": 5693,
        "contract": "contracts/Deposits/DepositQueue.sol:DepositQueue",
        "label": "totalEarned",
        "offset": 0,
        "slot": "55",
        "type": "t_mapping(t_address,t_uint256)"
      }
    ],
    "types": {
      "t_address": {
        "encoding": "inplace",
        "label": "address",
        "numberOfBytes": "20"
      },
      "t_array(t_uint256)49_storage": {
        "base": "t_uint256",
        "encoding": "inplace",
        "label": "uint256[49]",
        "numberOfBytes": "1568"
      },
      "t_bool": {
        "encoding": "inplace",
        "label": "bool",
        "numberOfBytes": "1"
      },
      "t_contract(IRestakeManager)10721": {
        "encoding": "inplace",
        "label": "contract IRestakeManager",
        "numberOfBytes": "20"
      },
      "t_contract(IRoleManager)11263": {
        "encoding": "inplace",
        "label": "contract IRoleManager",
        "numberOfBytes": "20"
      },
      "t_mapping(t_address,t_uint256)": {
        "encoding": "mapping",
        "key": "t_address",
        "label": "mapping(address => uint256)",
        "numberOfBytes": "32",
        "value": "t_uint256"
      },
      "t_uint256": {
        "encoding": "inplace",
        "label": "uint256",
        "numberOfBytes": "32"
      },
      "t_uint8": {
        "encoding": "inplace",
        "label": "uint8",
        "numberOfBytes": "1"
      }
    }
  }
}