{
  "address": "0x1e756B7bCca7B26FB9D85344B3525F5559bbacb0",
  "abi": [
    {
      "inputs": [],
      "stateMutability": "nonpayable",
      "type": "constructor"
    },
    {
      "inputs": [],
      "name": "ContractPaused",
      "type": "error"
    },
    {
      "inputs": [],
      "name": "InvalidZeroInput",
      "type": "error"
    },
    {
      "inputs": [],
      "name": "NotEzETHMinterBurner",
      "type": "error"
    },
    {
      "inputs": [],
      "name": "NotTokenAdmin",
      "type": "error"
    },
    {
      "anonymous": false,
      "inputs": [
        {
          "indexed": true,
          "internalType": "address",
          "name": "owner",
          "type": "address"
        },
        {
          "indexed": true,
          "internalType": "address",
          "name": "spender",
          "type": "address"
        },
        {
          "indexed": false,
          "internalType": "uint256",
          "name": "value",
          "type": "uint256"
        }
      ],
      "name": "Approval",
      "type": "event"
    },
    {
      "anonymous": false,
      "inputs": [
        {
          "indexed": false,
          "internalType": "uint8",
          "name": "version",
          "type": "uint8"
        }
      ],
      "name": "Initialized",
      "type": "event"
    },
    {
      "anonymous": false,
      "inputs": [
        {
          "indexed": true,
          "internalType": "address",
          "name": "from",
          "type": "address"
        },
        {
          "indexed": true,
          "internalType": "address",
          "name": "to",
          "type": "address"
        },
        {
          "indexed": false,
          "internalType": "uint256",
          "name": "value",
          "type": "uint256"
        }
      ],
      "name": "Transfer",
      "type": "event"
    },
    {
      "inputs": [
        {
          "internalType": "address",
          "name": "owner",
          "type": "address"
        },
        {
          "internalType": "address",
          "name": "spender",
          "type": "address"
        }
      ],
      "name": "allowance",
      "outputs": [
        {
          "internalType": "uint256",
          "name": "",
          "type": "uint256"
        }
      ],
      "stateMutability": "view",
      "type": "function"
    },
    {
      "inputs": [
        {
          "internalType": "address",
          "name": "spender",
          "type": "address"
        },
        {
          "internalType": "uint256",
          "name": "amount",
          "type": "uint256"
        }
      ],
      "name": "approve",
      "outputs": [
        {
          "internalType": "bool",
          "name": "",
          "type": "bool"
        }
      ],
      "stateMutability": "nonpayable",
      "type": "function"
    },
    {
      "inputs": [
        {
          "internalType": "address",
          "name": "account",
          "type": "address"
        }
      ],
      "name": "balanceOf",
      "outputs": [
        {
          "internalType": "uint256",
          "name": "",
          "type": "uint256"
        }
      ],
      "stateMutability": "view",
      "type": "function"
    },
    {
      "inputs": [
        {
          "internalType": "address",
          "name": "from",
          "type": "address"
        },
        {
          "internalType": "uint256",
          "name": "amount",
          "type": "uint256"
        }
      ],
      "name": "burn",
      "outputs": [],
      "stateMutability": "nonpayable",
      "type": "function"
    },
    {
      "inputs": [],
      "name": "decimals",
      "outputs": [
        {
          "internalType": "uint8",
          "name": "",
          "type": "uint8"
        }
      ],
      "stateMutability": "view",
      "type": "function"
    },
    {
      "inputs": [
        {
          "internalType": "address",
          "name": "spender",
          "type": "address"
        },
        {
          "internalType": "uint256",
          "name": "subtractedValue",
          "type": "uint256"
        }
      ],
      "name": "decreaseAllowance",
      "outputs": [
        {
          "internalType": "bool",
          "name": "",
          "type": "bool"
        }
      ],
      "stateMutability": "nonpayable",
      "type": "function"
    },
    {
      "inputs": [
        {
          "internalType": "address",
          "name": "spender",
          "type": "address"
        },
        {
          "internalType": "uint256",
          "name": "addedValue",
          "type": "uint256"
        }
      ],
      "name": "increaseAllowance",
      "outputs": [
        {
          "internalType": "bool",
          "name": "",
          "type": "bool"
        }
      ],
      "stateMutability": "nonpayable",
      "type": "function"
    },
    {
      "inputs": [
        {
          "internalType": "contract IRoleManager",
          "name": "_roleManager",
          "type": "address"
        }
      ],
      "name": "initialize",
      "outputs": [],
      "stateMutability": "nonpayable",
      "type": "function"
    },
    {
      "inputs": [
        {
          "internalType": "address",
          "name": "to",
          "type": "address"
        },
        {
          "internalType": "uint256",
          "name": "amount",
          "type": "uint256"
        }
      ],
      "name": "mint",
      "outputs": [],
      "stateMutability": "nonpayable",
      "type": "function"
    },
    {
      "inputs": [],
      "name": "name",
      "outputs": [
        {
          "internalType": "string",
          "name": "",
          "type": "string"
        }
      ],
      "stateMutability": "view",
      "type": "function"
    },
    {
      "inputs": [],
      "name": "paused",
      "outputs": [
        {
          "internalType": "bool",
          "name": "",
          "type": "bool"
        }
      ],
      "stateMutability": "view",
      "type": "function"
    },
    {
      "inputs": [],
      "name": "roleManager",
      "outputs": [
        {
          "internalType": "contract IRoleManager",
          "name": "",
          "type": "address"
        }
      ],
      "stateMutability": "view",
      "type": "function"
    },
    {
      "inputs": [
        {
          "internalType": "bool",
          "name": "_paused",
          "type": "bool"
        }
      ],
      "name": "setPaused",
      "outputs": [],
      "stateMutability": "nonpayable",
      "type": "function"
    },
    {
      "inputs": [],
      "name": "symbol",
      "outputs": [
        {
          "internalType": "string",
          "name": "",
          "type": "string"
        }
      ],
      "stateMutability": "view",
      "type": "function"
    },
    {
      "inputs": [],
      "name": "totalSupply",
      "outputs": [
        {
          "internalType": "uint256",
          "name": "",
          "type": "uint256"
        }
      ],
      "stateMutability": "view",
      "type": "function"
    },
    {
      "inputs": [
        {
          "internalType": "address",
          "name": "to",
          "type": "address"
        },
        {
          "internalType": "uint256",
          "name": "amount",
          "type": "uint256"
        }
      ],
      "name": "transfer",
      "outputs": [
        {
          "internalType": "bool",
          "name": "",
          "type": "bool"
        }
      ],
      "stateMutability": "nonpayable",
      "type": "function"
    },
    {
      "inputs": [
        {
          "internalType": "address",
          "name": "from",
          "type": "address"
        },
        {
          "internalType": "address",
          "name": "to",
          "type": "address"
        },
        {
          "internalType": "uint256",
          "name": "amount",
          "type": "uint256"
        }
      ],
      "name": "transferFrom",
      "outputs": [
        {
          "internalType": "bool",
          "name": "",
          "type": "bool"
        }
      ],
      "stateMutability": "nonpayable",
      "type": "function"
    }
  ],
  "transactionHash": "0xab679797a96516a745a8d27b61da491a88d8f84fe39a3fbe18623ed9e5f719d1",
  "args": [],
  "numDeployments": 2,
  "solcInputHash": "1fb7ca0124cce39102e37c61bf952b21",
  "bytecode": "0x608060405234801561001057600080fd5b5061001961001e565b6100dd565b600054610100900460ff161561008a5760405162461bcd60e51b815260206004820152602760248201527f496e697469616c697a61626c653a20636f6e747261637420697320696e697469604482015266616c697a696e6760c81b606482015260840160405180910390fd5b60005460ff908116146100db576000805460ff191660ff9081179091556040519081527f7f26b83ff96e1f2b6a682f133852f6798a09c465da95921460cefb38474024989060200160405180910390a15b565b6110e7806100ec6000396000f3fe608060405234801561001057600080fd5b506004361061010a5760003560e01c806340c10f19116100a25780639dc29fac116100715780639dc29fac14610266578063a457c2d714610279578063a9059cbb1461028c578063c4d66de81461029f578063dd62ed3e146102b257600080fd5b806340c10f19146101f55780635c975abb1461020857806370a082311461021c57806395d89b411461024557600080fd5b806318160ddd116100de57806318160ddd146101ae57806323b872dd146101c0578063313ce567146101d357806339509351146101e257600080fd5b8062435da51461010f57806306fdde031461013f578063095ea7b31461017657806316c38b3c14610199575b600080fd5b606554610122906001600160a01b031681565b6040516001600160a01b0390911681526020015b60405180910390f35b6040805180820190915260128152710a4cadcf4de40a4cae6e8c2d6cac8408aa8960731b60208201525b6040516101369190610d6f565b610189610184366004610dd5565b6102c5565b6040519015158152602001610136565b6101ac6101a7366004610e0f565b6102df565b005b6035545b604051908152602001610136565b6101896101ce366004610e33565b610386565b60405160128152602001610136565b6101896101f0366004610dd5565b6103aa565b6101ac610203366004610dd5565b6103cc565b60655461018990600160a01b900460ff1681565b6101b261022a366004610e74565b6001600160a01b031660009081526033602052604090205490565b6040805180820190915260058152640caf48aa8960db1b6020820152610169565b6101ac610274366004610dd5565b610463565b610189610287366004610dd5565b6104f6565b61018961029a366004610dd5565b610576565b6101ac6102ad366004610e74565b610584565b6101b26102c0366004610e91565b610720565b6000336102d381858561074b565b60019150505b92915050565b60655460405163a2bdde3d60e01b81523360048201526001600160a01b039091169063a2bdde3d90602401602060405180830381865afa158015610327573d6000803e3d6000fd5b505050506040513d601f19601f8201168201806040525081019061034b9190610eca565b610368576040516354e2bf5d60e01b815260040160405180910390fd5b60658054911515600160a01b0260ff60a01b19909216919091179055565b600033610394858285610870565b61039f8585856108ea565b506001949350505050565b6000336102d38185856103bd8383610720565b6103c79190610ee7565b61074b565b606554604051632d63d9b560e21b81523360048201526001600160a01b039091169063b58f66d490602401602060405180830381865afa158015610414573d6000803e3d6000fd5b505050506040513d601f19601f820116820180604052508101906104389190610eca565b610455576040516365f9c9cb60e11b815260040160405180910390fd5b61045f8282610aa0565b5050565b606554604051632d63d9b560e21b81523360048201526001600160a01b039091169063b58f66d490602401602060405180830381865afa1580156104ab573d6000803e3d6000fd5b505050506040513d601f19601f820116820180604052508101906104cf9190610eca565b6104ec576040516365f9c9cb60e11b815260040160405180910390fd5b61045f8282610b6d565b600033816105048286610720565b9050838110156105695760405162461bcd60e51b815260206004820152602560248201527f45524332303a2064656372656173656420616c6c6f77616e63652062656c6f77604482015264207a65726f60d81b60648201526084015b60405180910390fd5b61039f828686840361074b565b6000336102d38185856108ea565b600054610100900460ff16158080156105a45750600054600160ff909116105b806105be5750303b1580156105be575060005460ff166001145b6106215760405162461bcd60e51b815260206004820152602e60248201527f496e697469616c697a61626c653a20636f6e747261637420697320616c72656160448201526d191e481a5b9a5d1a585b1a5e995960921b6064820152608401610560565b6000805460ff191660011790558015610644576000805461ff0019166101001790555b6001600160a01b03821661066b5760405163862a606760e01b815260040160405180910390fd5b6106bc604051806040016040528060058152602001640caf48aa8960db1b815250604051806040016040528060128152602001710a4cadcf4de40a4cae6e8c2d6cac8408aa8960731b815250610caa565b606580546001600160a01b0319166001600160a01b038416179055801561045f576000805461ff0019169055604051600181527f7f26b83ff96e1f2b6a682f133852f6798a09c465da95921460cefb38474024989060200160405180910390a15050565b6001600160a01b03918216600090815260346020908152604080832093909416825291909152205490565b6001600160a01b0383166107ad5760405162461bcd60e51b8152602060048201526024808201527f45524332303a20617070726f76652066726f6d20746865207a65726f206164646044820152637265737360e01b6064820152608401610560565b6001600160a01b03821661080e5760405162461bcd60e51b815260206004820152602260248201527f45524332303a20617070726f766520746f20746865207a65726f206164647265604482015261737360f01b6064820152608401610560565b6001600160a01b0383811660008181526034602090815260408083209487168084529482529182902085905590518481527f8c5be1e5ebec7d5bd14f71427d1e84f3dd0314c0f7b2291e5b200ac8c7c3b92591015b60405180910390a3505050565b600061087c8484610720565b905060001981146108e457818110156108d75760405162461bcd60e51b815260206004820152601d60248201527f45524332303a20696e73756666696369656e7420616c6c6f77616e63650000006044820152606401610560565b6108e4848484840361074b565b50505050565b6001600160a01b03831661094e5760405162461bcd60e51b815260206004820152602560248201527f45524332303a207472616e736665722066726f6d20746865207a65726f206164604482015264647265737360d81b6064820152608401610560565b6001600160a01b0382166109b05760405162461bcd60e51b815260206004820152602360248201527f45524332303a207472616e7366657220746f20746865207a65726f206164647260448201526265737360e81b6064820152608401610560565b6109bb838383610cdb565b6001600160a01b03831660009081526033602052604090205481811015610a335760405162461bcd60e51b815260206004820152602660248201527f45524332303a207472616e7366657220616d6f756e7420657863656564732062604482015265616c616e636560d01b6064820152608401610560565b6001600160a01b0380851660008181526033602052604080822086860390559286168082529083902080548601905591517fddf252ad1be2c89b69c2b068fc378daa952ba7f163c4a11628f55a4df523b3ef90610a939086815260200190565b60405180910390a36108e4565b6001600160a01b038216610af65760405162461bcd60e51b815260206004820152601f60248201527f45524332303a206d696e7420746f20746865207a65726f2061646472657373006044820152606401610560565b610b0260008383610cdb565b8060356000828254610b149190610ee7565b90915550506001600160a01b0382166000818152603360209081526040808320805486019055518481527fddf252ad1be2c89b69c2b068fc378daa952ba7f163c4a11628f55a4df523b3ef910160405180910390a35050565b6001600160a01b038216610bcd5760405162461bcd60e51b815260206004820152602160248201527f45524332303a206275726e2066726f6d20746865207a65726f206164647265736044820152607360f81b6064820152608401610560565b610bd982600083610cdb565b6001600160a01b03821660009081526033602052604090205481811015610c4d5760405162461bcd60e51b815260206004820152602260248201527f45524332303a206275726e20616d6f756e7420657863656564732062616c616e604482015261636560f01b6064820152608401610560565b6001600160a01b03831660008181526033602090815260408083208686039055603580548790039055518581529192917fddf252ad1be2c89b69c2b068fc378daa952ba7f163c4a11628f55a4df523b3ef9101610863565b505050565b600054610100900460ff16610cd15760405162461bcd60e51b815260040161056090610f08565b61045f8282610d2f565b606554600160a01b900460ff16610cf157505050565b6001600160a01b03831615801590610d1157506001600160a01b03821615155b15610ca55760405163ab35696f60e01b815260040160405180910390fd5b600054610100900460ff16610d565760405162461bcd60e51b815260040161056090610f08565b6036610d628382610ff1565b506037610ca58282610ff1565b600060208083528351808285015260005b81811015610d9c57858101830151858201604001528201610d80565b506000604082860101526040601f19601f8301168501019250505092915050565b6001600160a01b0381168114610dd257600080fd5b50565b60008060408385031215610de857600080fd5b8235610df381610dbd565b946020939093013593505050565b8015158114610dd257600080fd5b600060208284031215610e2157600080fd5b8135610e2c81610e01565b9392505050565b600080600060608486031215610e4857600080fd5b8335610e5381610dbd565b92506020840135610e6381610dbd565b929592945050506040919091013590565b600060208284031215610e8657600080fd5b8135610e2c81610dbd565b60008060408385031215610ea457600080fd5b8235610eaf81610dbd565b91506020830135610ebf81610dbd565b809150509250929050565b600060208284031215610edc57600080fd5b8151610e2c81610e01565b808201808211156102d957634e487b7160e01b600052601160045260246000fd5b6020808252602b908201527f496e697469616c697a61626c653a20636f6e7472616374206973206e6f74206960408201526a6e697469616c697a696e6760a81b606082015260800190565b634e487b7160e01b600052604160045260246000fd5b600181811c90821680610f7d57607f821691505b602082108103610f9d57634e487b7160e01b600052602260045260246000fd5b50919050565b601f821115610ca557600081815260208120601f850160051c81016020861015610fca5750805b601f850160051c820191505b81811015610fe957828155600101610fd6565b505050505050565b815167ffffffffffffffff81111561100b5761100b610f53565b61101f816110198454610f69565b84610fa3565b602080601f831160018114611054576000841561103c5750858301515b600019600386901b1c1916600185901b178555610fe9565b600085815260208120601f198616915b8281101561108357888601518255948401946001909101908401611064565b50858210156110a15787850151600019600388901b60f8161c191681555b5050505050600190811b0190555056fea264697066735822122001bd67bf6eca0de3ced1c2dc7928fe609dd005f4295205a4fe8285f40ed4d0f764736f6c63430008130033",
  "devdoc": {
    "details": "This contract is the ezETH ERC20 token Ownership of the collateral in the protocol is tracked by the ezETH token",
    "errors": {
      "ContractPaused()": [
        {
          "details": "Error for contract being paused"
        }
      ],
      "InvalidZeroInput()": [
        {
          "details": "Error for 0x0 address inputs"
        }
      ],
      "NotEzETHMinterBurner()": [
        {
          "details": "Error when caller does not have ETH Minter Burner Admin role"
        }
      ],
      "NotTokenAdmin()": [
        {
          "details": "Error when caller does not have Token Admin role"
        }
      ]
    },
    "events": {
      "Approval(address,address,uint256)": {
        "details": "Emitted when the allowance of a `spender` for an `owner` is set by a call to {approve}. `value` is the new allowance."
      },
      "Initialized(uint8)": {
        "details": "Triggered when the contract has been initialized or reinitialized."
      },
      "Transfer(address,address,uint256)": {
        "details": "Emitted when `value` tokens are moved from one account (`from`) to another (`to`). Note that `value` may be zero."
      }
    },
    "kind": "dev",
    "methods": {
      "allowance(address,address)": {
        "details": "See {IERC20-allowance}."
      },
      "approve(address,uint256)": {
        "details": "See {IERC20-approve}. NOTE: If `amount` is the maximum `uint256`, the allowance is not updated on `transferFrom`. This is semantically equivalent to an infinite approval. Requirements: - `spender` cannot be the zero address."
      },
      "balanceOf(address)": {
        "details": "See {IERC20-balanceOf}."
      },
      "burn(address,uint256)": {
        "details": "Allows minter/burner to burn ezETH tokens from an address"
      },
      "constructor": {
        "custom:oz-upgrades-unsafe-allow": "constructor",
        "details": "Prevents implementation contract from being initialized."
      },
      "decimals()": {
        "details": "Returns the number of decimals used to get its user representation. For example, if `decimals` equals `2`, a balance of `505` tokens should be displayed to a user as `5.05` (`505 / 10 ** 2`). Tokens usually opt for a value of 18, imitating the relationship between Ether and Wei. This is the default value returned by this function, unless it's overridden. NOTE: This information is only used for _display_ purposes: it in no way affects any of the arithmetic of the contract, including {IERC20-balanceOf} and {IERC20-transfer}."
      },
      "decreaseAllowance(address,uint256)": {
        "details": "Atomically decreases the allowance granted to `spender` by the caller. This is an alternative to {approve} that can be used as a mitigation for problems described in {IERC20-approve}. Emits an {Approval} event indicating the updated allowance. Requirements: - `spender` cannot be the zero address. - `spender` must have allowance for the caller of at least `subtractedValue`."
      },
      "increaseAllowance(address,uint256)": {
        "details": "Atomically increases the allowance granted to `spender` by the caller. This is an alternative to {approve} that can be used as a mitigation for problems described in {IERC20-approve}. Emits an {Approval} event indicating the updated allowance. Requirements: - `spender` cannot be the zero address."
      },
      "initialize(address)": {
        "details": "Initializes the contract with initial vars"
      },
      "mint(address,uint256)": {
        "details": "Allows minter/burner to mint new ezETH tokens to an address"
      },
      "name()": {
        "details": "Returns the name of the token."
      },
      "setPaused(bool)": {
        "details": "Sets the paused flag"
      },
      "symbol()": {
        "details": "Returns the symbol of the token, usually a shorter version of the name."
      },
      "totalSupply()": {
        "details": "See {IERC20-totalSupply}."
      },
      "transfer(address,uint256)": {
        "details": "See {IERC20-transfer}. Requirements: - `to` cannot be the zero address. - the caller must have a balance of at least `amount`."
      },
      "transferFrom(address,address,uint256)": {
        "details": "See {IERC20-transferFrom}. Emits an {Approval} event indicating the updated allowance. This is not required by the EIP. See the note at the beginning of {ERC20}. NOTE: Does not update the allowance if the current allowance is the maximum `uint256`. Requirements: - `from` and `to` cannot be the zero address. - `from` must have a balance of at least `amount`. - the caller must have allowance for ``from``'s tokens of at least `amount`."
      }
    },
    "version": 1
  },
  "userdoc": {
    "kind": "user",
    "methods": {},
    "version": 1
  },
  "storageLayout": {
    "storage": [
      {
        "astId": 6,
        "contract": "contracts/token/EzEthToken.sol:EzEthToken",
        "label": "_initialized",
        "offset": 0,
        "slot": "0",
        "type": "t_uint8"
      },
      {
        "astId": 9,
        "contract": "contracts/token/EzEthToken.sol:EzEthToken",
        "label": "_initializing",
        "offset": 1,
        "slot": "0",
        "type": "t_bool"
      },
      {
        "astId": 1254,
        "contract": "contracts/token/EzEthToken.sol:EzEthToken",
        "label": "__gap",
        "offset": 0,
        "slot": "1",
        "type": "t_array(t_uint256)50_storage"
      },
      {
        "astId": 187,
        "contract": "contracts/token/EzEthToken.sol:EzEthToken",
        "label": "_balances",
        "offset": 0,
        "slot": "51",
        "type": "t_mapping(t_address,t_uint256)"
      },
      {
        "astId": 193,
        "contract": "contracts/token/EzEthToken.sol:EzEthToken",
        "label": "_allowances",
        "offset": 0,
        "slot": "52",
        "type": "t_mapping(t_address,t_mapping(t_address,t_uint256))"
      },
      {
        "astId": 195,
        "contract": "contracts/token/EzEthToken.sol:EzEthToken",
        "label": "_totalSupply",
        "offset": 0,
        "slot": "53",
        "type": "t_uint256"
      },
      {
        "astId": 197,
        "contract": "contracts/token/EzEthToken.sol:EzEthToken",
        "label": "_name",
        "offset": 0,
        "slot": "54",
        "type": "t_string_storage"
      },
      {
        "astId": 199,
        "contract": "contracts/token/EzEthToken.sol:EzEthToken",
        "label": "_symbol",
        "offset": 0,
        "slot": "55",
        "type": "t_string_storage"
      },
      {
        "astId": 779,
        "contract": "contracts/token/EzEthToken.sol:EzEthToken",
        "label": "__gap",
        "offset": 0,
        "slot": "56",
        "type": "t_array(t_uint256)45_storage"
      },
      {
        "astId": 1614,
        "contract": "contracts/token/EzEthToken.sol:EzEthToken",
        "label": "roleManager",
        "offset": 0,
        "slot": "101",
        "type": "t_contract(IRoleManager)1410"
      },
      {
        "astId": 1617,
        "contract": "contracts/token/EzEthToken.sol:EzEthToken",
        "label": "paused",
        "offset": 20,
        "slot": "101",
        "type": "t_bool"
      }
    ],
    "types": {
      "t_address": {
        "encoding": "inplace",
        "label": "address",
        "numberOfBytes": "20"
      },
      "t_array(t_uint256)45_storage": {
        "base": "t_uint256",
        "encoding": "inplace",
        "label": "uint256[45]",
        "numberOfBytes": "1440"
      },
      "t_array(t_uint256)50_storage": {
        "base": "t_uint256",
        "encoding": "inplace",
        "label": "uint256[50]",
        "numberOfBytes": "1600"
      },
      "t_bool": {
        "encoding": "inplace",
        "label": "bool",
        "numberOfBytes": "1"
      },
      "t_contract(IRoleManager)1410": {
        "encoding": "inplace",
        "label": "contract IRoleManager",
        "numberOfBytes": "20"
      },
      "t_mapping(t_address,t_mapping(t_address,t_uint256))": {
        "encoding": "mapping",
        "key": "t_address",
        "label": "mapping(address => mapping(address => uint256))",
        "numberOfBytes": "32",
        "value": "t_mapping(t_address,t_uint256)"
      },
      "t_mapping(t_address,t_uint256)": {
        "encoding": "mapping",
        "key": "t_address",
        "label": "mapping(address => uint256)",
        "numberOfBytes": "32",
        "value": "t_uint256"
      },
      "t_string_storage": {
        "encoding": "bytes",
        "label": "string",
        "numberOfBytes": "32"
      },
      "t_uint256": {
        "encoding": "inplace",
        "label": "uint256",
        "numberOfBytes": "32"
      },
      "t_uint8": {
        "encoding": "inplace",
        "label": "uint8",
        "numberOfBytes": "1"
      }
    }
  }
}