{
  "address": "0x1dbbF25286e9bD42Bff4d4914c60B7559F8A7be8",
  "abi": [
    {
      "inputs": [],
      "stateMutability": "nonpayable",
      "type": "constructor"
    },
    {
      "inputs": [],
      "name": "DelegateAddressAlreadySet",
      "type": "error"
    },
    {
      "inputs": [],
      "name": "InvalidZeroInput",
      "type": "error"
    },
    {
      "inputs": [],
      "name": "NotFound",
      "type": "error"
    },
    {
      "inputs": [],
      "name": "NotNativeEthRestakeAdmin",
      "type": "error"
    },
    {
      "inputs": [],
      "name": "NotOperatorDelegatorAdmin",
      "type": "error"
    },
    {
      "inputs": [],
      "name": "NotRestakeManager",
      "type": "error"
    },
    {
      "anonymous": false,
      "inputs": [
        {
          "indexed": false,
          "internalType": "address",
          "name": "delegateAddress",
          "type": "address"
        }
      ],
      "name": "DelegationAddressUpdated",
      "type": "event"
    },
    {
      "anonymous": false,
      "inputs": [
        {
          "indexed": false,
          "internalType": "uint8",
          "name": "version",
          "type": "uint8"
        }
      ],
      "name": "Initialized",
      "type": "event"
    },
    {
      "anonymous": false,
      "inputs": [
        {
          "indexed": false,
          "internalType": "contract IERC20",
          "name": "token",
          "type": "address"
        },
        {
          "indexed": false,
          "internalType": "contract IStrategy",
          "name": "strategy",
          "type": "address"
        }
      ],
      "name": "TokenStrategyUpdated",
      "type": "event"
    },
    {
      "anonymous": false,
      "inputs": [
        {
          "indexed": false,
          "internalType": "bytes32",
          "name": "withdrawRoot",
          "type": "bytes32"
        },
        {
          "indexed": false,
          "internalType": "address",
          "name": "staker",
          "type": "address"
        },
        {
          "indexed": false,
          "internalType": "address",
          "name": "delegatedTo",
          "type": "address"
        },
        {
          "indexed": false,
          "internalType": "address",
          "name": "withdrawer",
          "type": "address"
        },
        {
          "indexed": false,
          "internalType": "uint256",
          "name": "nonce",
          "type": "uint256"
        },
        {
          "indexed": false,
          "internalType": "uint256",
          "name": "startBlock",
          "type": "uint256"
        },
        {
          "indexed": false,
          "internalType": "contract IStrategy[]",
          "name": "strategies",
          "type": "address[]"
        },
        {
          "indexed": false,
          "internalType": "uint256[]",
          "name": "shares",
          "type": "uint256[]"
        }
      ],
      "name": "WithdrawStarted",
      "type": "event"
    },
    {
      "inputs": [
        {
          "components": [
            {
              "internalType": "contract IStrategy[]",
              "name": "strategies",
              "type": "address[]"
            },
            {
              "internalType": "uint256[]",
              "name": "shares",
              "type": "uint256[]"
            },
            {
              "internalType": "address",
              "name": "depositor",
              "type": "address"
            },
            {
              "components": [
                {
                  "internalType": "address",
                  "name": "withdrawer",
                  "type": "address"
                },
                {
                  "internalType": "uint96",
                  "name": "nonce",
                  "type": "uint96"
                }
              ],
              "internalType": "struct IStrategyManager.WithdrawerAndNonce",
              "name": "withdrawerAndNonce",
              "type": "tuple"
            },
            {
              "internalType": "uint32",
              "name": "withdrawalStartBlock",
              "type": "uint32"
            },
            {
              "internalType": "address",
              "name": "delegatedAddress",
              "type": "address"
            }
          ],
          "internalType": "struct IStrategyManager.QueuedWithdrawal",
          "name": "_withdrawal",
          "type": "tuple"
        },
        {
          "internalType": "contract IERC20",
          "name": "_token",
          "type": "address"
        },
        {
          "internalType": "uint256",
          "name": "_middlewareTimesIndex",
          "type": "uint256"
        },
        {
          "internalType": "address",
          "name": "_sendToAddress",
          "type": "address"
        }
      ],
      "name": "completeWithdrawal",
      "outputs": [],
      "stateMutability": "nonpayable",
      "type": "function"
    },
    {
      "inputs": [],
      "name": "delegateAddress",
      "outputs": [
        {
          "internalType": "address",
          "name": "",
          "type": "address"
        }
      ],
      "stateMutability": "view",
      "type": "function"
    },
    {
      "inputs": [],
      "name": "delegationManager",
      "outputs": [
        {
          "internalType": "contract IDelegationManager",
          "name": "",
          "type": "address"
        }
      ],
      "stateMutability": "view",
      "type": "function"
    },
    {
      "inputs": [
        {
          "internalType": "contract IERC20",
          "name": "_token",
          "type": "address"
        },
        {
          "internalType": "uint256",
          "name": "_tokenAmount",
          "type": "uint256"
        }
      ],
      "name": "deposit",
      "outputs": [
        {
          "internalType": "uint256",
          "name": "shares",
          "type": "uint256"
        }
      ],
      "stateMutability": "nonpayable",
      "type": "function"
    },
    {
      "inputs": [],
      "name": "eigenPod",
      "outputs": [
        {
          "internalType": "contract IEigenPod",
          "name": "",
          "type": "address"
        }
      ],
      "stateMutability": "view",
      "type": "function"
    },
    {
      "inputs": [],
      "name": "eigenPodManager",
      "outputs": [
        {
          "internalType": "contract IEigenPodManager",
          "name": "",
          "type": "address"
        }
      ],
      "stateMutability": "view",
      "type": "function"
    },
    {
      "inputs": [],
      "name": "getStakedETHBalance",
      "outputs": [
        {
          "internalType": "uint256",
          "name": "",
          "type": "uint256"
        }
      ],
      "stateMutability": "view",
      "type": "function"
    },
    {
      "inputs": [
        {
          "internalType": "contract IStrategy",
          "name": "_strategy",
          "type": "address"
        }
      ],
      "name": "getStrategyIndex",
      "outputs": [
        {
          "internalType": "uint256",
          "name": "",
          "type": "uint256"
        }
      ],
      "stateMutability": "view",
      "type": "function"
    },
    {
      "inputs": [
        {
          "internalType": "contract IERC20",
          "name": "token",
          "type": "address"
        }
      ],
      "name": "getTokenBalanceFromStrategy",
      "outputs": [
        {
          "internalType": "uint256",
          "name": "",
          "type": "uint256"
        }
      ],
      "stateMutability": "view",
      "type": "function"
    },
    {
      "inputs": [
        {
          "internalType": "contract IRoleManager",
          "name": "_roleManager",
          "type": "address"
        },
        {
          "internalType": "contract IStrategyManager",
          "name": "_strategyManager",
          "type": "address"
        },
        {
          "internalType": "address",
          "name": "_restakeManager",
          "type": "address"
        },
        {
          "internalType": "contract IDelegationManager",
          "name": "_delegationManager",
          "type": "address"
        },
        {
          "internalType": "contract IEigenPodManager",
          "name": "_eigenPodManager",
          "type": "address"
        }
      ],
      "name": "initialize",
      "outputs": [],
      "stateMutability": "nonpayable",
      "type": "function"
    },
    {
      "inputs": [],
      "name": "restakeManager",
      "outputs": [
        {
          "internalType": "address",
          "name": "",
          "type": "address"
        }
      ],
      "stateMutability": "view",
      "type": "function"
    },
    {
      "inputs": [],
      "name": "roleManager",
      "outputs": [
        {
          "internalType": "contract IRoleManager",
          "name": "",
          "type": "address"
        }
      ],
      "stateMutability": "view",
      "type": "function"
    },
    {
      "inputs": [
        {
          "internalType": "address",
          "name": "_delegateAddress",
          "type": "address"
        }
      ],
      "name": "setDelegateAddress",
      "outputs": [],
      "stateMutability": "nonpayable",
      "type": "function"
    },
    {
      "inputs": [
        {
          "internalType": "contract IERC20",
          "name": "_token",
          "type": "address"
        },
        {
          "internalType": "contract IStrategy",
          "name": "_strategy",
          "type": "address"
        }
      ],
      "name": "setTokenStrategy",
      "outputs": [],
      "stateMutability": "nonpayable",
      "type": "function"
    },
    {
      "inputs": [
        {
          "internalType": "bytes",
          "name": "pubkey",
          "type": "bytes"
        },
        {
          "internalType": "bytes",
          "name": "signature",
          "type": "bytes"
        },
        {
          "internalType": "bytes32",
          "name": "depositDataRoot",
          "type": "bytes32"
        }
      ],
      "name": "stakeEth",
      "outputs": [],
      "stateMutability": "payable",
      "type": "function"
    },
    {
      "inputs": [],
      "name": "stakedButNotVerifiedEth",
      "outputs": [
        {
          "internalType": "uint256",
          "name": "",
          "type": "uint256"
        }
      ],
      "stateMutability": "view",
      "type": "function"
    },
    {
      "inputs": [
        {
          "internalType": "contract IERC20",
          "name": "_token",
          "type": "address"
        },
        {
          "internalType": "uint256",
          "name": "_tokenAmount",
          "type": "uint256"
        }
      ],
      "name": "startWithdrawal",
      "outputs": [
        {
          "internalType": "bytes32",
          "name": "",
          "type": "bytes32"
        }
      ],
      "stateMutability": "nonpayable",
      "type": "function"
    },
    {
      "inputs": [],
      "name": "strategyManager",
      "outputs": [
        {
          "internalType": "contract IStrategyManager",
          "name": "",
          "type": "address"
        }
      ],
      "stateMutability": "view",
      "type": "function"
    },
    {
      "inputs": [
        {
          "internalType": "contract IERC20",
          "name": "",
          "type": "address"
        }
      ],
      "name": "tokenStrategyMapping",
      "outputs": [
        {
          "internalType": "contract IStrategy",
          "name": "",
          "type": "address"
        }
      ],
      "stateMutability": "view",
      "type": "function"
    },
    {
      "inputs": [
        {
          "internalType": "uint64",
          "name": "oracleBlockNumber",
          "type": "uint64"
        },
        {
          "internalType": "uint40",
          "name": "validatorIndex",
          "type": "uint40"
        },
        {
          "components": [
            {
              "internalType": "bytes",
              "name": "validatorFieldsProof",
              "type": "bytes"
            },
            {
              "internalType": "bytes",
              "name": "validatorBalanceProof",
              "type": "bytes"
            },
            {
              "internalType": "bytes32",
              "name": "balanceRoot",
              "type": "bytes32"
            }
          ],
          "internalType": "struct BeaconChainProofs.ValidatorFieldsAndBalanceProofs",
          "name": "proofs",
          "type": "tuple"
        },
        {
          "internalType": "bytes32[]",
          "name": "validatorFields",
          "type": "bytes32[]"
        }
      ],
      "name": "verifyWithdrawalCredentials",
      "outputs": [],
      "stateMutability": "nonpayable",
      "type": "function"
    }
  ],
  "transactionHash": "0x8673d06e82287423bf2a2335a3bab56c11942b34cc150965d3f2d6736599dae9",
  "args": [],
  "numDeployments": 1,
  "solcInputHash": "e61991be36f3b065cf1f32b510d9735d",
  "bytecode": "0x608060405234801561001057600080fd5b5061001961001e565b6100dd565b600054610100900460ff161561008a5760405162461bcd60e51b815260206004820152602760248201527f496e697469616c697a61626c653a20636f6e747261637420697320696e697469604482015266616c697a696e6760c81b606482015260840160405180910390fd5b60005460ff908116146100db576000805460ff191660ff9081179091556040519081527f7f26b83ff96e1f2b6a682f133852f6798a09c465da95921460cefb38474024989060200160405180910390a15b565b61238b80620000ed6000396000f3fe60806040526004361061011e5760003560e01c80635e91d4a3116100a0578063a0d58d8a11610064578063a0d58d8a14610324578063a3aae13614610344578063ea4d3c9b14610364578063ec73017714610384578063ff0996b5146103a457600080fd5b80635e91d4a3146102915780636d96a2aa146102b1578063864132e6146102d15780639b5cd048146102f15780639ebf4ab11461031157600080fd5b80634665bcda116100e75780634665bcda146101fc57806347e7ef241461021c578063483f34531461023c5780635299ac171461025c578063573803fb1461027c57600080fd5b8062435da514610123578063127842a4146101605780631459457a14610196578063397bfbac146101b857806339b70e38146101dc575b600080fd5b34801561012f57600080fd5b50603354610143906001600160a01b031681565b6040516001600160a01b0390911681526020015b60405180910390f35b34801561016c57600080fd5b5061014361017b3660046118f6565b6036602052600090815260409020546001600160a01b031681565b3480156101a257600080fd5b506101b66101b136600461192a565b6103c4565b005b3480156101c457600080fd5b506101ce603b5481565b604051908152602001610157565b3480156101e857600080fd5b50603454610143906001600160a01b031681565b34801561020857600080fd5b50603954610143906001600160a01b031681565b34801561022857600080fd5b506101ce61023736600461199b565b6106d2565b34801561024857600080fd5b506101b6610257366004611adf565b610831565b34801561026857600080fd5b506101b6610277366004611be0565b61096c565b34801561028857600080fd5b506101ce610a98565b34801561029d57600080fd5b506101b66102ac3660046118f6565b610abc565b3480156102bd57600080fd5b50603754610143906001600160a01b031681565b3480156102dd57600080fd5b506101ce6102ec36600461199b565b610c5d565b3480156102fd57600080fd5b506101b661030c366004611c19565b610faf565b6101b661031f366004611ccc565b61111d565b34801561033057600080fd5b506101ce61033f3660046118f6565b6111d2565b34801561035057600080fd5b50603a54610143906001600160a01b031681565b34801561037057600080fd5b50603854610143906001600160a01b031681565b34801561039057600080fd5b506101ce61039f3660046118f6565b611306565b3480156103b057600080fd5b50603554610143906001600160a01b031681565b600054610100900460ff16158080156103e45750600054600160ff909116105b806103fe5750303b1580156103fe575060005460ff166001145b6104665760405162461bcd60e51b815260206004820152602e60248201527f496e697469616c697a61626c653a20636f6e747261637420697320616c72656160448201526d191e481a5b9a5d1a585b1a5e995960921b60648201526084015b60405180910390fd5b6000805460ff191660011790558015610489576000805461ff0019166101001790555b6001600160a01b0386166104b05760405163862a606760e01b815260040160405180910390fd5b6001600160a01b0385166104d75760405163862a606760e01b815260040160405180910390fd5b6001600160a01b0384166104fe5760405163862a606760e01b815260040160405180910390fd5b6001600160a01b0383166105255760405163862a606760e01b815260040160405180910390fd5b6001600160a01b03821661054c5760405163862a606760e01b815260040160405180910390fd5b610554611381565b603380546001600160a01b038089166001600160a01b0319928316179092556034805488841690831617905560358054878416908316179055603880548684169083161790556039805492851692909116821790556040805163426c083160e11b815290516384d810629160048082019260009290919082900301818387803b1580156105e057600080fd5b505af11580156105f4573d6000803e3d6000fd5b5050603954604051639ba0627560e01b81523060048201526001600160a01b039091169250639ba062759150602401602060405180830381865afa158015610640573d6000803e3d6000fd5b505050506040513d601f19601f820116820180604052508101906106649190611d40565b603a80546001600160a01b0319166001600160a01b039290921691909117905580156106ca576000805461ff0019169055604051600181527f7f26b83ff96e1f2b6a682f133852f6798a09c465da95921460cefb38474024989060200160405180910390a15b505050505050565b60006106dc6113b2565b6035546001600160a01b03163314610707576040516342d16b8b60e11b815260040160405180910390fd5b6001600160a01b038381166000908152603660205260409020541661073f5760405163862a606760e01b815260040160405180910390fd5b816000036107605760405163862a606760e01b815260040160405180910390fd5b6107756001600160a01b03841633308561140b565b60345461078f906001600160a01b03858116911684611476565b6034546001600160a01b03848116600081815260366020526040908190205490516373d0285560e11b8152908316600482015260248101919091526044810185905291169063e7a050aa906064016020604051808303816000875af11580156107fc573d6000803e3d6000fd5b505050506040513d601f19601f820116820180604052508101906108209190611d5d565b905061082b60018055565b92915050565b6033546040516358e3de6f60e01b81523360048201526001600160a01b03909116906358e3de6f90602401602060405180830381865afa158015610879573d6000803e3d6000fd5b505050506040513d601f19601f8201168201806040525081019061089d9190611d76565b6108ba5760405163bcefa34f60e01b815260040160405180910390fd5b603a54604051630a3e0e4160e31b81526001600160a01b03909116906351f07208906108f29088908890889088908890600401611e1a565b600060405180830381600087803b15801561090c57600080fd5b505af1158015610920573d6000803e3d6000fd5b505050506000610934858560400151611596565b905061094e633b9aca0067ffffffffffffffff8316611eb2565b603b600082825461095f9190611ec9565b9091555050505050505050565b6109746113b2565b603354604051630d5dcbef60e31b81523360048201526001600160a01b0390911690636aee5f7890602401602060405180830381865afa1580156109bc573d6000803e3d6000fd5b505050506040513d601f19601f820116820180604052508101906109e09190611d76565b6109fd5760405163cbdd1d2760e01b815260040160405180910390fd5b6001600160a01b038216610a245760405163862a606760e01b815260040160405180910390fd5b6001600160a01b0382811660008181526036602090815260409182902080546001600160a01b031916948616948517905581519283528201929092527f1a654dbe468f1cff27ced5a916efd4120a4155caf290688ab42aebe90554683e910160405180910390a1610a9460018055565b5050565b603a54603b54600091610ab7916001600160a01b039091163190611edc565b905090565b610ac46113b2565b603354604051630d5dcbef60e31b81523360048201526001600160a01b0390911690636aee5f7890602401602060405180830381865afa158015610b0c573d6000803e3d6000fd5b505050506040513d601f19601f82011682018060405250810190610b309190611d76565b610b4d5760405163cbdd1d2760e01b815260040160405180910390fd5b6001600160a01b038116610b745760405163862a606760e01b815260040160405180910390fd5b6037546001600160a01b031615610b9e57604051631c52d05d60e11b815260040160405180910390fd5b603780546001600160a01b0319166001600160a01b03838116918217909255603854604051635631be3d60e11b815260048101929092529091169063ac637c7a90602401600060405180830381600087803b158015610bfc57600080fd5b505af1158015610c10573d6000803e3d6000fd5b50506040516001600160a01b03841681527ffe608947467beb30a90e072fd2fc7d52baecf0935f542011fcd8fa6362a5d5b39250602001905060405180910390a1610c5a60018055565b50565b6000610c676113b2565b6035546001600160a01b03163314610c92576040516342d16b8b60e11b815260040160405180910390fd5b6001600160a01b0383811660009081526036602052604090205416610cca5760405163862a606760e01b815260040160405180910390fd5b603454604051630acc620560e31b81523060048201526000916001600160a01b031690635663102890602401602060405180830381865afa158015610d13573d6000803e3d6000fd5b505050506040513d601f19601f82011682018060405250810190610d379190611d5d565b60408051600180825281830190925291925060009190602080830190803683375050506001600160a01b03868116600090815260366020526040902054919250610d8191166111d2565b81600081518110610d9457610d94611eef565b6020908102919091018101919091526001600160a01b038681166000908152603690925260408083205490516338f6b94760e21b81526004810188905291169063e3dae51c90602401602060405180830381865afa158015610dfa573d6000803e3d6000fd5b505050506040513d601f19601f82011682018060405250810190610e1e9190611d5d565b60408051600180825281830190925291925060009190602080830190803683375050506001600160a01b03888116600090815260366020526040812054835193945090911691839190610e7357610e73611eef565b6001600160a01b0392909216602092830291909101909101526040805160018082528183019092526000918160200160208202803683370190505090508281600081518110610ec457610ec4611eef565b6020908102919091010152603454604051637891cc8f60e11b81526000916001600160a01b03169063f123991e90610f089088908790879030908890600401611f79565b6020604051808303816000875af1158015610f27573d6000803e3d6000fd5b505050506040513d601f19601f82011682018060405250810190610f4b9190611d5d565b6037546040519192507ff7c9db32693636e458573257dad812f58a7c5cc3067e0fad83b601b46947615a91610f9791849130916001600160a01b03169082908c9043908b908b90611fd5565b60405180910390a19550505050505061082b60018055565b610fb76113b2565b6035546001600160a01b03163314610fe2576040516342d16b8b60e11b815260040160405180910390fd5b60408051600180825281830190925260009160208083019080368337019050509050838160008151811061101857611018611eef565b6001600160a01b03928316602091820292909201015260345460405163f3be65d360e01b815291169063f3be65d39061105c908890859088906001906004016120ed565b600060405180830381600087803b15801561107657600080fd5b505af115801561108a573d6000803e3d6000fd5b50506040516370a0823160e01b815230600482015261110d92508491506001600160a01b038716906370a0823190602401602060405180830381865afa1580156110d8573d6000803e3d6000fd5b505050506040513d601f19601f820116820180604052508101906110fc9190611d5d565b6001600160a01b0387169190611625565b5061111760018055565b50505050565b6035546001600160a01b03163314611148576040516342d16b8b60e11b815260040160405180910390fd5b6039546040516326d3918d60e21b81526001600160a01b0390911690639b4e4634903490611182908990899089908990899060040161222d565b6000604051808303818588803b15801561119b57600080fd5b505af11580156111af573d6000803e3d6000fd5b505050505034603b60008282546111c69190611edc565b90915550505050505050565b6034546040516322e2ab0f60e21b815230600482015260009182916001600160a01b0390911690638b8aac3c90602401602060405180830381865afa15801561121f573d6000803e3d6000fd5b505050506040513d601f19601f820116820180604052508101906112439190611d5d565b905060005b818110156112ec576034546040516365e15eb160e11b8152306004820152602481018390526001600160a01b0386811692169063cbc2bd6290604401602060405180830381865afa1580156112a1573d6000803e3d6000fd5b505050506040513d601f19601f820116820180604052508101906112c59190611d40565b6001600160a01b0316036112da579392505050565b806112e481612267565b915050611248565b5060405163c5723b5160e01b815260040160405180910390fd5b6001600160a01b03818116600090815260366020526040808220549051630aa794bf60e31b81523060048201529192169063553ca5f890602401602060405180830381865afa15801561135d573d6000803e3d6000fd5b505050506040513d601f19601f8201168201806040525081019061082b9190611d5d565b600054610100900460ff166113a85760405162461bcd60e51b815260040161045d90612280565b6113b0611655565b565b6002600154036114045760405162461bcd60e51b815260206004820152601f60248201527f5265656e7472616e637947756172643a207265656e7472616e742063616c6c00604482015260640161045d565b6002600155565b6040516001600160a01b03808516602483015283166044820152606481018290526111179085906323b872dd60e01b906084015b60408051601f198184030181529190526020810180516001600160e01b03166001600160e01b03199093169290921790915261167c565b8015806114f05750604051636eb1769f60e11b81523060048201526001600160a01b03838116602483015284169063dd62ed3e90604401602060405180830381865afa1580156114ca573d6000803e3d6000fd5b505050506040513d601f19601f820116820180604052508101906114ee9190611d5d565b155b61155b5760405162461bcd60e51b815260206004820152603660248201527f5361666545524332303a20617070726f76652066726f6d206e6f6e2d7a65726f60448201527520746f206e6f6e2d7a65726f20616c6c6f77616e636560501b606482015260840161045d565b6040516001600160a01b03831660248201526044810182905261158b90849063095ea7b360e01b9060640161143f565b505050565b60018055565b6000806115a46004856122cb565b6115af9060406122fd565b64ffffffffff169290921b60f881901c60e882901c61ff00161760d882901c62ff0000161760c882901c63ff000000161764ff0000000060b883901c161765ff000000000060a883901c161766ff000000000000609883901c161767ff0000000000000060889290921c91909116179392505050565b6040516001600160a01b03831660248201526044810182905261158b90849063a9059cbb60e01b9060640161143f565b600054610100900460ff166115905760405162461bcd60e51b815260040161045d90612280565b60006116d1826040518060400160405280602081526020017f5361666545524332303a206c6f772d6c6576656c2063616c6c206661696c6564815250856001600160a01b03166117519092919063ffffffff16565b90508051600014806116f25750808060200190518101906116f29190611d76565b61158b5760405162461bcd60e51b815260206004820152602a60248201527f5361666545524332303a204552433230206f7065726174696f6e20646964206e6044820152691bdd081cdd58d8d9595960b21b606482015260840161045d565b60606117608484600085611768565b949350505050565b6060824710156117c95760405162461bcd60e51b815260206004820152602660248201527f416464726573733a20696e73756666696369656e742062616c616e636520666f6044820152651c8818d85b1b60d21b606482015260840161045d565b600080866001600160a01b031685876040516117e59190612326565b60006040518083038185875af1925050503d8060008114611822576040519150601f19603f3d011682016040523d82523d6000602084013e611827565b606091505b509150915061183887838387611843565b979650505050505050565b606083156118b25782516000036118ab576001600160a01b0385163b6118ab5760405162461bcd60e51b815260206004820152601d60248201527f416464726573733a2063616c6c20746f206e6f6e2d636f6e7472616374000000604482015260640161045d565b5081611760565b61176083838151156118c75781518083602001fd5b8060405162461bcd60e51b815260040161045d9190612342565b6001600160a01b0381168114610c5a57600080fd5b60006020828403121561190857600080fd5b8135611913816118e1565b9392505050565b8035611925816118e1565b919050565b600080600080600060a0868803121561194257600080fd5b853561194d816118e1565b9450602086013561195d816118e1565b9350604086013561196d816118e1565b9250606086013561197d816118e1565b9150608086013561198d816118e1565b809150509295509295909350565b600080604083850312156119ae57600080fd5b82356119b9816118e1565b946020939093013593505050565b634e487b7160e01b600052604160045260246000fd5b6040516060810167ffffffffffffffff81118282101715611a0057611a006119c7565b60405290565b600082601f830112611a1757600080fd5b813567ffffffffffffffff80821115611a3257611a326119c7565b604051601f8301601f19908116603f01168101908282118183101715611a5a57611a5a6119c7565b81604052838152866020858801011115611a7357600080fd5b836020870160208301376000602085830101528094505050505092915050565b60008083601f840112611aa557600080fd5b50813567ffffffffffffffff811115611abd57600080fd5b6020830191508360208260051b8501011115611ad857600080fd5b9250929050565b600080600080600060808688031215611af757600080fd5b853567ffffffffffffffff8082168214611b1057600080fd5b90955060208701359064ffffffffff82168214611b2c57600080fd5b90945060408701359080821115611b4257600080fd5b908701906060828a031215611b5657600080fd5b611b5e6119dd565b823582811115611b6d57600080fd5b611b798b828601611a06565b825250602083013582811115611b8e57600080fd5b611b9a8b828601611a06565b60208301525060408301356040820152809550506060880135915080821115611bc257600080fd5b50611bcf88828901611a93565b969995985093965092949392505050565b60008060408385031215611bf357600080fd5b8235611bfe816118e1565b91506020830135611c0e816118e1565b809150509250929050565b60008060008060808587031215611c2f57600080fd5b843567ffffffffffffffff811115611c4657600080fd5b850160e08188031215611c5857600080fd5b93506020850135611c68816118e1565b9250604085013591506060850135611c7f816118e1565b939692955090935050565b60008083601f840112611c9c57600080fd5b50813567ffffffffffffffff811115611cb457600080fd5b602083019150836020828501011115611ad857600080fd5b600080600080600060608688031215611ce457600080fd5b853567ffffffffffffffff80821115611cfc57600080fd5b611d0889838a01611c8a565b90975095506020880135915080821115611d2157600080fd5b50611d2e88828901611c8a565b96999598509660400135949350505050565b600060208284031215611d5257600080fd5b8151611913816118e1565b600060208284031215611d6f57600080fd5b5051919050565b600060208284031215611d8857600080fd5b8151801515811461191357600080fd5b60005b83811015611db3578181015183820152602001611d9b565b50506000910152565b60008151808452611dd4816020860160208601611d98565b601f01601f19169290920160200192915050565b81835260006001600160fb1b03831115611e0157600080fd5b8260051b80836020870137939093016020019392505050565b67ffffffffffffffff8616815264ffffffffff85166020820152608060408201526000845160606080840152611e5360e0840182611dbc565b90506020860151607f198483030160a0850152611e708282611dbc565b915050604086015160c08401528281036060840152611e90818587611de8565b98975050505050505050565b634e487b7160e01b600052601160045260246000fd5b808202811582820484141761082b5761082b611e9c565b8181038181111561082b5761082b611e9c565b8082018082111561082b5761082b611e9c565b634e487b7160e01b600052603260045260246000fd5b600081518084526020808501945080840160005b83811015611f3557815187529582019590820190600101611f19565b509495945050505050565b600081518084526020808501945080840160005b83811015611f355781516001600160a01b031687529582019590820190600101611f54565b60a081526000611f8c60a0830188611f05565b8281036020840152611f9e8188611f40565b90508281036040840152611fb28187611f05565b6001600160a01b0395909516606084015250509015156080909101529392505050565b8881526001600160a01b0388811660208301528781166040830152861660608201526bffffffffffffffffffffffff8516608082015260a0810184905261010060c0820181905260009061202b83820186611f40565b905082810360e084015261203f8185611f05565b9b9a5050505050505050505050565b6000808335601e1984360301811261206557600080fd5b830160208101925035905067ffffffffffffffff81111561208557600080fd5b8060051b3603821315611ad857600080fd5b80356120a2816118e1565b6001600160a01b0316825260208101356bffffffffffffffffffffffff81168082146120cd57600080fd5b80602085015250505050565b803563ffffffff8116811461192557600080fd5b6080815260006101608201612102878861204e565b60e06080860152918290529060009061018085015b8183101561214857833561212a816118e1565b6001600160a01b031681526020938401936001939093019201612117565b61215560208b018b61204e565b878303607f190160a089015294509250612170818585611de8565b93505050506121816040880161191a565b6001600160a01b031660c084015261219f60e0840160608901612097565b6121ab60a088016120d9565b63ffffffff166101208401526121c360c0880161191a565b6001600160a01b031661014084015282810360208401526121e48187611f40565b9150508360408301526121fb606083018415159052565b95945050505050565b81835281816020850137506000828201602090810191909152601f909101601f19169091010190565b606081526000612241606083018789612204565b8281036020840152612254818688612204565b9150508260408301529695505050505050565b60006001820161227957612279611e9c565b5060010190565b6020808252602b908201527f496e697469616c697a61626c653a20636f6e7472616374206973206e6f74206960408201526a6e697469616c697a696e6760a81b606082015260800190565b600064ffffffffff808416806122f157634e487b7160e01b600052601260045260246000fd5b92169190910692915050565b64ffffffffff81811683821602808216919082811461231e5761231e611e9c565b505092915050565b60008251612338818460208701611d98565b9190910192915050565b6020815260006119136020830184611dbc56fea2646970667358221220230ae0ca5e759ac3530911ad960ce8c15b3c5d9d8c969136f04d1ab9f29958a364736f6c63430008130033",
  "devdoc": {
    "details": "This contract will be responsible for interacting with Eigenlayer Each of these contracts deployed will be delegated to one specific operator This contract can handle multiple ERC20 tokens, all of which will be delegated to the same operator Each supported ERC20 token will be pointed at a single Strategy contract in EL Only the RestakeManager should be interacting with this contract for EL interactions.",
    "errors": {
      "DelegateAddressAlreadySet()": [
        {
          "details": "Error when delegation address was already set - cannot be set again"
        }
      ],
      "InvalidZeroInput()": [
        {
          "details": "Error for 0x0 address inputs"
        }
      ],
      "NotFound()": [
        {
          "details": "Error for not found items in a list"
        }
      ],
      "NotNativeEthRestakeAdmin()": [
        {
          "details": "Errror when caller does not have ETH Restake Admin role"
        }
      ],
      "NotOperatorDelegatorAdmin()": [
        {
          "details": "Error when caller does not have OD admin role"
        }
      ],
      "NotRestakeManager()": [
        {
          "details": "Error when caller is not RestakeManager contract"
        }
      ]
    },
    "events": {
      "Initialized(uint8)": {
        "details": "Triggered when the contract has been initialized or reinitialized."
      }
    },
    "kind": "dev",
    "methods": {
      "completeWithdrawal((address[],uint256[],address,(address,uint96),uint32,address),address,uint256,address)": {
        "details": "Completes a withdrawal of a specific token from the EigenLayer. The tokens withdrawn will be sent directly to the specified address"
      },
      "constructor": {
        "custom:oz-upgrades-unsafe-allow": "constructor",
        "details": "Prevents implementation contract from being initialized."
      },
      "deposit(address,uint256)": {
        "details": "Deposit tokens into the EigenLayer.  This call assumes any balance of tokens in this contract will be delegated so do not directly send tokens here or they will be delegated and attributed to the next caller.",
        "returns": {
          "shares": "The amount of new shares in the `strategy` created as part of the action."
        }
      },
      "getStakedETHBalance()": {
        "details": "Gets the amount of ETH staked in the EigenLayer"
      },
      "getStrategyIndex(address)": {
        "details": "Gets the index of the specific strategy in EigenLayer in the staker's strategy list"
      },
      "getTokenBalanceFromStrategy(address)": {
        "details": "Gets the underlying token amount from the amount of shares"
      },
      "initialize(address,address,address,address,address)": {
        "details": "Initializes the contract with initial vars"
      },
      "setDelegateAddress(address)": {
        "details": "Sets the address to delegate tokens to in EigenLayer -- THIS CAN ONLY BE SET ONCE"
      },
      "setTokenStrategy(address,address)": {
        "details": "Sets the strategy for a given token - setting strategy to 0x0 removes the ability to deposit and withdraw token"
      },
      "stakeEth(bytes,bytes,bytes32)": {
        "details": "Stake ETH in the EigenLayer Only the Restake Manager should call this function"
      },
      "startWithdrawal(address,uint256)": {
        "details": "Starts a withdrawal of a specific token from the EigenLayer.",
        "params": {
          "_token": "The token to withdraw from the EigenLayer.",
          "_tokenAmount": "The amount of tokens to withdraw."
        }
      },
      "verifyWithdrawalCredentials(uint64,uint40,(bytes,bytes,bytes32),bytes32[])": {
        "details": "Verifies the withdrawal credentials for a withdrawal This will allow the EigenPodManager to verify the withdrawal credentials and credit the OD with shares Only the native eth restake admin should call this function"
      }
    },
    "version": 1
  },
  "userdoc": {
    "kind": "user",
    "methods": {},
    "version": 1
  },
  "storageLayout": {
    "storage": [
      {
        "astId": 461,
        "contract": "contracts/Delegation/OperatorDelegator.sol:OperatorDelegator",
        "label": "_initialized",
        "offset": 0,
        "slot": "0",
        "type": "t_uint8"
      },
      {
        "astId": 464,
        "contract": "contracts/Delegation/OperatorDelegator.sol:OperatorDelegator",
        "label": "_initializing",
        "offset": 1,
        "slot": "0",
        "type": "t_bool"
      },
      {
        "astId": 637,
        "contract": "contracts/Delegation/OperatorDelegator.sol:OperatorDelegator",
        "label": "_status",
        "offset": 0,
        "slot": "1",
        "type": "t_uint256"
      },
      {
        "astId": 706,
        "contract": "contracts/Delegation/OperatorDelegator.sol:OperatorDelegator",
        "label": "__gap",
        "offset": 0,
        "slot": "2",
        "type": "t_array(t_uint256)49_storage"
      },
      {
        "astId": 5142,
        "contract": "contracts/Delegation/OperatorDelegator.sol:OperatorDelegator",
        "label": "roleManager",
        "offset": 0,
        "slot": "51",
        "type": "t_contract(IRoleManager)11263"
      },
      {
        "astId": 5146,
        "contract": "contracts/Delegation/OperatorDelegator.sol:OperatorDelegator",
        "label": "strategyManager",
        "offset": 0,
        "slot": "52",
        "type": "t_contract(IStrategyManager)7545"
      },
      {
        "astId": 5149,
        "contract": "contracts/Delegation/OperatorDelegator.sol:OperatorDelegator",
        "label": "restakeManager",
        "offset": 0,
        "slot": "53",
        "type": "t_address"
      },
      {
        "astId": 5156,
        "contract": "contracts/Delegation/OperatorDelegator.sol:OperatorDelegator",
        "label": "tokenStrategyMapping",
        "offset": 0,
        "slot": "54",
        "type": "t_mapping(t_contract(IERC20)3540,t_contract(IStrategy)7271)"
      },
      {
        "astId": 5159,
        "contract": "contracts/Delegation/OperatorDelegator.sol:OperatorDelegator",
        "label": "delegateAddress",
        "offset": 0,
        "slot": "55",
        "type": "t_address"
      },
      {
        "astId": 5163,
        "contract": "contracts/Delegation/OperatorDelegator.sol:OperatorDelegator",
        "label": "delegationManager",
        "offset": 0,
        "slot": "56",
        "type": "t_contract(IDelegationManager)6139"
      },
      {
        "astId": 5167,
        "contract": "contracts/Delegation/OperatorDelegator.sol:OperatorDelegator",
        "label": "eigenPodManager",
        "offset": 0,
        "slot": "57",
        "type": "t_contract(IEigenPodManager)6499"
      },
      {
        "astId": 5171,
        "contract": "contracts/Delegation/OperatorDelegator.sol:OperatorDelegator",
        "label": "eigenPod",
        "offset": 0,
        "slot": "58",
        "type": "t_contract(IEigenPod)6386"
      },
      {
        "astId": 5174,
        "contract": "contracts/Delegation/OperatorDelegator.sol:OperatorDelegator",
        "label": "stakedButNotVerifiedEth",
        "offset": 0,
        "slot": "59",
        "type": "t_uint256"
      }
    ],
    "types": {
      "t_address": {
        "encoding": "inplace",
        "label": "address",
        "numberOfBytes": "20"
      },
      "t_array(t_uint256)49_storage": {
        "base": "t_uint256",
        "encoding": "inplace",
        "label": "uint256[49]",
        "numberOfBytes": "1568"
      },
      "t_bool": {
        "encoding": "inplace",
        "label": "bool",
        "numberOfBytes": "1"
      },
      "t_contract(IDelegationManager)6139": {
        "encoding": "inplace",
        "label": "contract IDelegationManager",
        "numberOfBytes": "20"
      },
      "t_contract(IERC20)3540": {
        "encoding": "inplace",
        "label": "contract IERC20",
        "numberOfBytes": "20"
      },
      "t_contract(IEigenPod)6386": {
        "encoding": "inplace",
        "label": "contract IEigenPod",
        "numberOfBytes": "20"
      },
      "t_contract(IEigenPodManager)6499": {
        "encoding": "inplace",
        "label": "contract IEigenPodManager",
        "numberOfBytes": "20"
      },
      "t_contract(IRoleManager)11263": {
        "encoding": "inplace",
        "label": "contract IRoleManager",
        "numberOfBytes": "20"
      },
      "t_contract(IStrategy)7271": {
        "encoding": "inplace",
        "label": "contract IStrategy",
        "numberOfBytes": "20"
      },
      "t_contract(IStrategyManager)7545": {
        "encoding": "inplace",
        "label": "contract IStrategyManager",
        "numberOfBytes": "20"
      },
      "t_mapping(t_contract(IERC20)3540,t_contract(IStrategy)7271)": {
        "encoding": "mapping",
        "key": "t_contract(IERC20)3540",
        "label": "mapping(contract IERC20 => contract IStrategy)",
        "numberOfBytes": "32",
        "value": "t_contract(IStrategy)7271"
      },
      "t_uint256": {
        "encoding": "inplace",
        "label": "uint256",
        "numberOfBytes": "32"
      },
      "t_uint8": {
        "encoding": "inplace",
        "label": "uint8",
        "numberOfBytes": "1"
      }
    }
  }
}