{
  "address": "0x94Eb8aF1bdfaA82fd50C34d34c4BcA2EFd8c79BF",
  "abi": [
    {
      "inputs": [],
      "stateMutability": "nonpayable",
      "type": "constructor"
    },
    {
      "inputs": [
        {
          "internalType": "uint8",
          "name": "expected",
          "type": "uint8"
        },
        {
          "internalType": "uint8",
          "name": "actual",
          "type": "uint8"
        }
      ],
      "name": "InvalidTokenDecimals",
      "type": "error"
    },
    {
      "inputs": [],
      "name": "InvalidZeroInput",
      "type": "error"
    },
    {
      "inputs": [],
      "name": "MismatchedArrayLengths",
      "type": "error"
    },
    {
      "inputs": [],
      "name": "NotOracleAdmin",
      "type": "error"
    },
    {
      "inputs": [],
      "name": "OracleNotFound",
      "type": "error"
    },
    {
      "inputs": [],
      "name": "OraclePriceExpired",
      "type": "error"
    },
    {
      "anonymous": false,
      "inputs": [
        {
          "indexed": false,
          "internalType": "uint8",
          "name": "version",
          "type": "uint8"
        }
      ],
      "name": "Initialized",
      "type": "event"
    },
    {
      "anonymous": false,
      "inputs": [
        {
          "indexed": false,
          "internalType": "contract IERC20",
          "name": "token",
          "type": "address"
        },
        {
          "indexed": false,
          "internalType": "contract AggregatorV3Interface",
          "name": "oracleAddress",
          "type": "address"
        }
      ],
      "name": "OracleAddressUpdated",
      "type": "event"
    },
    {
      "inputs": [
        {
          "internalType": "uint256",
          "name": "_currentValueInProtocol",
          "type": "uint256"
        },
        {
          "internalType": "uint256",
          "name": "_newValueAdded",
          "type": "uint256"
        },
        {
          "internalType": "uint256",
          "name": "_existingEzETHSupply",
          "type": "uint256"
        }
      ],
      "name": "calculateMintAmount",
      "outputs": [
        {
          "internalType": "uint256",
          "name": "",
          "type": "uint256"
        }
      ],
      "stateMutability": "pure",
      "type": "function"
    },
    {
      "inputs": [
        {
          "internalType": "uint256",
          "name": "_ezETHBeingBurned",
          "type": "uint256"
        },
        {
          "internalType": "uint256",
          "name": "_existingEzETHSupply",
          "type": "uint256"
        },
        {
          "internalType": "uint256",
          "name": "_currentValueInProtocol",
          "type": "uint256"
        }
      ],
      "name": "calculateRedeemAmount",
      "outputs": [
        {
          "internalType": "uint256",
          "name": "",
          "type": "uint256"
        }
      ],
      "stateMutability": "pure",
      "type": "function"
    },
    {
      "inputs": [
        {
          "internalType": "contract IRoleManager",
          "name": "_roleManager",
          "type": "address"
        }
      ],
      "name": "initialize",
      "outputs": [],
      "stateMutability": "nonpayable",
      "type": "function"
    },
    {
      "inputs": [
        {
          "internalType": "contract IERC20",
          "name": "_token",
          "type": "address"
        },
        {
          "internalType": "uint256",
          "name": "_value",
          "type": "uint256"
        }
      ],
      "name": "lookupTokenAmountFromValue",
      "outputs": [
        {
          "internalType": "uint256",
          "name": "",
          "type": "uint256"
        }
      ],
      "stateMutability": "view",
      "type": "function"
    },
    {
      "inputs": [
        {
          "internalType": "contract IERC20",
          "name": "_token",
          "type": "address"
        },
        {
          "internalType": "uint256",
          "name": "_balance",
          "type": "uint256"
        }
      ],
      "name": "lookupTokenValue",
      "outputs": [
        {
          "internalType": "uint256",
          "name": "",
          "type": "uint256"
        }
      ],
      "stateMutability": "view",
      "type": "function"
    },
    {
      "inputs": [
        {
          "internalType": "contract IERC20[]",
          "name": "_tokens",
          "type": "address[]"
        },
        {
          "internalType": "uint256[]",
          "name": "_balances",
          "type": "uint256[]"
        }
      ],
      "name": "lookupTokenValues",
      "outputs": [
        {
          "internalType": "uint256",
          "name": "",
          "type": "uint256"
        }
      ],
      "stateMutability": "view",
      "type": "function"
    },
    {
      "inputs": [],
      "name": "roleManager",
      "outputs": [
        {
          "internalType": "contract IRoleManager",
          "name": "",
          "type": "address"
        }
      ],
      "stateMutability": "view",
      "type": "function"
    },
    {
      "inputs": [
        {
          "internalType": "contract IERC20",
          "name": "_token",
          "type": "address"
        },
        {
          "internalType": "contract AggregatorV3Interface",
          "name": "_oracleAddress",
          "type": "address"
        }
      ],
      "name": "setOracleAddress",
      "outputs": [],
      "stateMutability": "nonpayable",
      "type": "function"
    },
    {
      "inputs": [
        {
          "internalType": "contract IERC20",
          "name": "",
          "type": "address"
        }
      ],
      "name": "tokenOracleLookup",
      "outputs": [
        {
          "internalType": "contract AggregatorV3Interface",
          "name": "",
          "type": "address"
        }
      ],
      "stateMutability": "view",
      "type": "function"
    }
  ],
  "transactionHash": "0xf9ce87b3d4e578978183ed67484fc2c311c3fb821b475568f9faef5da0803d0b",
  "args": [],
  "numDeployments": 1,
  "solcInputHash": "e61991be36f3b065cf1f32b510d9735d",
  "bytecode": "0x608060405234801561001057600080fd5b5061001961001e565b6100dd565b600054610100900460ff161561008a5760405162461bcd60e51b815260206004820152602760248201527f496e697469616c697a61626c653a20636f6e747261637420697320696e697469604482015266616c697a696e6760c81b606482015260840160405180910390fd5b60005460ff908116146100db576000805460ff191660ff9081179091556040519081527f7f26b83ff96e1f2b6a682f133852f6798a09c465da95921460cefb38474024989060200160405180910390a15b565b610cf2806100ec6000396000f3fe608060405234801561001057600080fd5b50600436106100915760003560e01c80636f49d9f4116100665780636f49d9f41461010f5780638f686e6a14610138578063ba28a5711461014b578063c4d66de81461015e578063c5c83cb01461017157600080fd5b8062435da51461009657806252e3fd146100c657806337933625146100e757806346093b0e146100fa575b600080fd5b6033546100a9906001600160a01b031681565b6040516001600160a01b0390911681526020015b60405180910390f35b6100d96100d43660046108ec565b610184565b6040519081526020016100bd565b6100d96100f53660046108ec565b610283565b61010d610108366004610918565b61036c565b005b6100a961011d366004610951565b6034602052600090815260409020546001600160a01b031681565b6100d961014636600461096e565b610593565b6100d9610159366004610a70565b61061e565b61010d61016c366004610951565b6106ab565b6100d961017f36600461096e565b6107fe565b6001600160a01b03808316600090815260346020526040812054909116806101bf57604051630b0a0e0d60e21b815260040160405180910390fd5b600080826001600160a01b031663feaf968c6040518163ffffffff1660e01b815260040160a060405180830381865afa158015610200573d6000803e3d6000fd5b505050506040513d601f19601f820116820180604052508101906102249190610b51565b50935050925050620151bc4261023a9190610bb7565b81101561025a5760405163757ee0c360e11b815260040160405180910390fd5b670de0b6b3a764000061026d8684610bca565b6102779190610be1565b93505050505b92915050565b6001600160a01b03808316600090815260346020526040812054909116806102be57604051630b0a0e0d60e21b815260040160405180910390fd5b600080826001600160a01b031663feaf968c6040518163ffffffff1660e01b815260040160a060405180830381865afa1580156102ff573d6000803e3d6000fd5b505050506040513d601f19601f820116820180604052508101906103239190610b51565b50935050925050620151bc426103399190610bb7565b8110156103595760405163757ee0c360e11b815260040160405180910390fd5b8161026d670de0b6b3a764000087610bca565b61037461081d565b6033546040516368cce7c360e01b81523360048201526001600160a01b03909116906368cce7c390602401602060405180830381865afa1580156103bc573d6000803e3d6000fd5b505050506040513d601f19601f820116820180604052508101906103e09190610c03565b6103fd5760405163be49bb1d60e01b815260040160405180910390fd5b6001600160a01b0382166104245760405163862a606760e01b815260040160405180910390fd5b806001600160a01b031663313ce5676040518163ffffffff1660e01b8152600401602060405180830381865afa158015610462573d6000803e3d6000fd5b505050506040513d601f19601f820116820180604052508101906104869190610c25565b60ff1660121461051f576012816001600160a01b031663313ce5676040518163ffffffff1660e01b8152600401602060405180830381865afa1580156104d0573d6000803e3d6000fd5b505050506040513d601f19601f820116820180604052508101906104f49190610c25565b6040516330946b1f60e21b815260ff9283166004820152911660248201526044015b60405180910390fd5b6001600160a01b0382811660008181526034602090815260409182902080546001600160a01b031916948616948517905581519283528201929092527fd3afd1676752459d3aa8b6f73633fac8efd724610da9c4cd8d8e4fa1631841fb910160405180910390a161058f60018055565b5050565b60008315806105a0575081155b156105ac575081610617565b60006105b88486610c48565b6105ca85670de0b6b3a7640000610bca565b6105d49190610be1565b905060006105ea82670de0b6b3a7640000610bb7565b6105fc670de0b6b3a764000086610bca565b6106069190610be1565b90506106128482610bb7565b925050505b9392505050565b6000815183511461064257604051632b477e7160e11b815260040160405180910390fd5b8251600090815b818110156106a15761068d86828151811061066657610666610c5b565b602002602001015186838151811061068057610680610c5b565b6020026020010151610184565b6106979084610c48565b9250600101610649565b5090949350505050565b600054610100900460ff16158080156106cb5750600054600160ff909116105b806106e55750303b1580156106e5575060005460ff166001145b6107485760405162461bcd60e51b815260206004820152602e60248201527f496e697469616c697a61626c653a20636f6e747261637420697320616c72656160448201526d191e481a5b9a5d1a585b1a5e995960921b6064820152608401610516565b6000805460ff19166001179055801561076b576000805461ff0019166101001790555b6001600160a01b0382166107925760405163862a606760e01b815260040160405180910390fd5b61079a61087c565b603380546001600160a01b0319166001600160a01b038416179055801561058f576000805461ff0019169055604051600181527f7f26b83ff96e1f2b6a682f133852f6798a09c465da95921460cefb38474024989060200160405180910390a15050565b60008261080b8584610bca565b6108159190610be1565b949350505050565b60026001540361086f5760405162461bcd60e51b815260206004820152601f60248201527f5265656e7472616e637947756172643a207265656e7472616e742063616c6c006044820152606401610516565b6002600155565b60018055565b600054610100900460ff166108a35760405162461bcd60e51b815260040161051690610c71565b6108ab6108ad565b565b600054610100900460ff166108765760405162461bcd60e51b815260040161051690610c71565b6001600160a01b03811681146108e957600080fd5b50565b600080604083850312156108ff57600080fd5b823561090a816108d4565b946020939093013593505050565b6000806040838503121561092b57600080fd5b8235610936816108d4565b91506020830135610946816108d4565b809150509250929050565b60006020828403121561096357600080fd5b8135610617816108d4565b60008060006060848603121561098357600080fd5b505081359360208301359350604090920135919050565b634e487b7160e01b600052604160045260246000fd5b604051601f8201601f1916810167ffffffffffffffff811182821017156109d9576109d961099a565b604052919050565b600067ffffffffffffffff8211156109fb576109fb61099a565b5060051b60200190565b600082601f830112610a1657600080fd5b81356020610a2b610a26836109e1565b6109b0565b82815260059290921b84018101918181019086841115610a4a57600080fd5b8286015b84811015610a655780358352918301918301610a4e565b509695505050505050565b60008060408385031215610a8357600080fd5b823567ffffffffffffffff80821115610a9b57600080fd5b818501915085601f830112610aaf57600080fd5b81356020610abf610a26836109e1565b82815260059290921b84018101918181019089841115610ade57600080fd5b948201945b83861015610b05578535610af6816108d4565b82529482019490820190610ae3565b96505086013592505080821115610b1b57600080fd5b50610b2885828601610a05565b9150509250929050565b805169ffffffffffffffffffff81168114610b4c57600080fd5b919050565b600080600080600060a08688031215610b6957600080fd5b610b7286610b32565b9450602086015193506040860151925060608601519150610b9560808701610b32565b90509295509295909350565b634e487b7160e01b600052601160045260246000fd5b8181038181111561027d5761027d610ba1565b808202811582820484141761027d5761027d610ba1565b600082610bfe57634e487b7160e01b600052601260045260246000fd5b500490565b600060208284031215610c1557600080fd5b8151801515811461061757600080fd5b600060208284031215610c3757600080fd5b815160ff8116811461061757600080fd5b8082018082111561027d5761027d610ba1565b634e487b7160e01b600052603260045260246000fd5b6020808252602b908201527f496e697469616c697a61626c653a20636f6e7472616374206973206e6f74206960408201526a6e697469616c697a696e6760a81b60608201526080019056fea2646970667358221220b98baec05fc29601a511a44e7c3407c6d2c494e807642f06ef8b1865e5ebdf7d64736f6c63430008130033",
  "devdoc": {
    "details": "This contract will be responsible for looking up values via Chainlink Data retrieved will be verified for liveness via a max age on the oracle lookup. All tokens should be denominated in the same base currency and contain the same decimals on the price lookup.",
    "errors": {
      "InvalidTokenDecimals(uint8,uint8)": [
        {
          "details": "Error for invalid token decimals for collateral tokens (must be 18)"
        }
      ],
      "InvalidZeroInput()": [
        {
          "details": "Error for 0x0 address inputs"
        }
      ],
      "MismatchedArrayLengths()": [
        {
          "details": "Error when array lengths do not match"
        }
      ],
      "NotOracleAdmin()": [
        {
          "details": "Error when caller does not have Oracle Admin role"
        }
      ],
      "OracleNotFound()": [
        {
          "details": "Error when price oracle is not configured"
        }
      ],
      "OraclePriceExpired()": [
        {
          "details": "Error when price oracle data is stale"
        }
      ]
    },
    "events": {
      "Initialized(uint8)": {
        "details": "Triggered when the contract has been initialized or reinitialized."
      },
      "OracleAddressUpdated(address,address)": {
        "details": "Event emitted when a token's oracle address is updated"
      }
    },
    "kind": "dev",
    "methods": {
      "calculateMintAmount(uint256,uint256,uint256)": {
        "details": "Given amount of current protocol value, new value being added, and supply of ezETH, determine amount to mint Values should be denominated in the same underlying currency with the same decimal precision"
      },
      "constructor": {
        "custom:oz-upgrades-unsafe-allow": "constructor",
        "details": "Prevents implementation contract from being initialized."
      },
      "initialize(address)": {
        "details": "Initializes the contract with initial vars"
      },
      "lookupTokenAmountFromValue(address,uint256)": {
        "details": "Given a single token and value, return amount of tokens needed to represent that value Assumes the token value is already denominated in the same decimal precision as the oracle"
      },
      "lookupTokenValue(address,uint256)": {
        "details": "Given a single token and balance, return value of the asset in underlying currency The value returned will be denominated in the decimal precision of the lookup oracle (e.g. a value of 100 would return as 100 * 10^18)"
      },
      "setOracleAddress(address,address)": {
        "details": "Sets addresses for oracle lookup.  Permission gated to oracel admins only. Set to address 0x0 to disable lookups for the token."
      }
    },
    "stateVariables": {
      "INVALID_0_INPUT": {
        "details": "Error for invalid 0x0 address"
      },
      "MAX_TIME_WINDOW": {
        "details": "The maxmimum staleness allowed for a price feed from chainlink"
      }
    },
    "version": 1
  },
  "userdoc": {
    "kind": "user",
    "methods": {
      "lookupTokenValues(address[],uint256[])": {
        "notice": "The value returned will be denominated in the decimal precision of the lookup oracle (e.g. a value of 100 would return as 100 * 10^18)"
      }
    },
    "version": 1
  },
  "storageLayout": {
    "storage": [
      {
        "astId": 461,
        "contract": "contracts/Oracle/RenzoOracle.sol:RenzoOracle",
        "label": "_initialized",
        "offset": 0,
        "slot": "0",
        "type": "t_uint8"
      },
      {
        "astId": 464,
        "contract": "contracts/Oracle/RenzoOracle.sol:RenzoOracle",
        "label": "_initializing",
        "offset": 1,
        "slot": "0",
        "type": "t_bool"
      },
      {
        "astId": 637,
        "contract": "contracts/Oracle/RenzoOracle.sol:RenzoOracle",
        "label": "_status",
        "offset": 0,
        "slot": "1",
        "type": "t_uint256"
      },
      {
        "astId": 706,
        "contract": "contracts/Oracle/RenzoOracle.sol:RenzoOracle",
        "label": "__gap",
        "offset": 0,
        "slot": "2",
        "type": "t_array(t_uint256)49_storage"
      },
      {
        "astId": 11180,
        "contract": "contracts/Oracle/RenzoOracle.sol:RenzoOracle",
        "label": "roleManager",
        "offset": 0,
        "slot": "51",
        "type": "t_contract(IRoleManager)11263"
      },
      {
        "astId": 11187,
        "contract": "contracts/Oracle/RenzoOracle.sol:RenzoOracle",
        "label": "tokenOracleLookup",
        "offset": 0,
        "slot": "52",
        "type": "t_mapping(t_contract(IERC20)3540,t_contract(AggregatorV3Interface)45)"
      }
    ],
    "types": {
      "t_array(t_uint256)49_storage": {
        "base": "t_uint256",
        "encoding": "inplace",
        "label": "uint256[49]",
        "numberOfBytes": "1568"
      },
      "t_bool": {
        "encoding": "inplace",
        "label": "bool",
        "numberOfBytes": "1"
      },
      "t_contract(AggregatorV3Interface)45": {
        "encoding": "inplace",
        "label": "contract AggregatorV3Interface",
        "numberOfBytes": "20"
      },
      "t_contract(IERC20)3540": {
        "encoding": "inplace",
        "label": "contract IERC20",
        "numberOfBytes": "20"
      },
      "t_contract(IRoleManager)11263": {
        "encoding": "inplace",
        "label": "contract IRoleManager",
        "numberOfBytes": "20"
      },
      "t_mapping(t_contract(IERC20)3540,t_contract(AggregatorV3Interface)45)": {
        "encoding": "mapping",
        "key": "t_contract(IERC20)3540",
        "label": "mapping(contract IERC20 => contract AggregatorV3Interface)",
        "numberOfBytes": "32",
        "value": "t_contract(AggregatorV3Interface)45"
      },
      "t_uint256": {
        "encoding": "inplace",
        "label": "uint256",
        "numberOfBytes": "32"
      },
      "t_uint8": {
        "encoding": "inplace",
        "label": "uint8",
        "numberOfBytes": "1"
      }
    }
  }
}