{
  "address": "0xDC5a2FDC997897646f4F602826a8691e7B6EEc1d",
  "abi": [
    {
      "inputs": [],
      "stateMutability": "nonpayable",
      "type": "constructor"
    },
    {
      "inputs": [],
      "name": "AlreadyAdded",
      "type": "error"
    },
    {
      "inputs": [],
      "name": "ContractPaused",
      "type": "error"
    },
    {
      "inputs": [
        {
          "internalType": "uint8",
          "name": "expected",
          "type": "uint8"
        },
        {
          "internalType": "uint8",
          "name": "actual",
          "type": "uint8"
        }
      ],
      "name": "InvalidTokenDecimals",
      "type": "error"
    },
    {
      "inputs": [],
      "name": "InvalidZeroInput",
      "type": "error"
    },
    {
      "inputs": [],
      "name": "MaxTVLReached",
      "type": "error"
    },
    {
      "inputs": [],
      "name": "NotDepositQueue",
      "type": "error"
    },
    {
      "inputs": [],
      "name": "NotDepositWithdrawPauser",
      "type": "error"
    },
    {
      "inputs": [],
      "name": "NotFound",
      "type": "error"
    },
    {
      "inputs": [
        {
          "internalType": "address",
          "name": "expectedCaller",
          "type": "address"
        }
      ],
      "name": "NotOriginalWithdrawCaller",
      "type": "error"
    },
    {
      "inputs": [],
      "name": "NotRestakeManagerAdmin",
      "type": "error"
    },
    {
      "inputs": [],
      "name": "OverMaxBasisPoints",
      "type": "error"
    },
    {
      "inputs": [],
      "name": "WithdrawAlreadyCompleted",
      "type": "error"
    },
    {
      "anonymous": false,
      "inputs": [
        {
          "indexed": false,
          "internalType": "contract IERC20",
          "name": "token",
          "type": "address"
        }
      ],
      "name": "CollateralTokenAdded",
      "type": "event"
    },
    {
      "anonymous": false,
      "inputs": [
        {
          "indexed": false,
          "internalType": "contract IERC20",
          "name": "token",
          "type": "address"
        }
      ],
      "name": "CollateralTokenRemoved",
      "type": "event"
    },
    {
      "anonymous": false,
      "inputs": [
        {
          "indexed": false,
          "internalType": "address",
          "name": "depositor",
          "type": "address"
        },
        {
          "indexed": false,
          "internalType": "contract IERC20",
          "name": "token",
          "type": "address"
        },
        {
          "indexed": false,
          "internalType": "uint256",
          "name": "amount",
          "type": "uint256"
        },
        {
          "indexed": false,
          "internalType": "uint256",
          "name": "ezETHMinted",
          "type": "uint256"
        }
      ],
      "name": "Deposit",
      "type": "event"
    },
    {
      "anonymous": false,
      "inputs": [
        {
          "indexed": false,
          "internalType": "uint8",
          "name": "version",
          "type": "uint8"
        }
      ],
      "name": "Initialized",
      "type": "event"
    },
    {
      "anonymous": false,
      "inputs": [
        {
          "indexed": false,
          "internalType": "contract IOperatorDelegator",
          "name": "od",
          "type": "address"
        }
      ],
      "name": "OperatorDelegatorAdded",
      "type": "event"
    },
    {
      "anonymous": false,
      "inputs": [
        {
          "indexed": false,
          "internalType": "contract IOperatorDelegator",
          "name": "od",
          "type": "address"
        },
        {
          "indexed": false,
          "internalType": "uint256",
          "name": "allocation",
          "type": "uint256"
        }
      ],
      "name": "OperatorDelegatorAllocationUpdated",
      "type": "event"
    },
    {
      "anonymous": false,
      "inputs": [
        {
          "indexed": false,
          "internalType": "contract IOperatorDelegator",
          "name": "od",
          "type": "address"
        }
      ],
      "name": "OperatorDelegatorRemoved",
      "type": "event"
    },
    {
      "anonymous": false,
      "inputs": [
        {
          "indexed": false,
          "internalType": "bytes32",
          "name": "withdrawalRoot",
          "type": "bytes32"
        },
        {
          "indexed": false,
          "internalType": "address",
          "name": "withdrawer",
          "type": "address"
        },
        {
          "indexed": false,
          "internalType": "contract IERC20",
          "name": "token",
          "type": "address"
        },
        {
          "indexed": false,
          "internalType": "uint256",
          "name": "amount",
          "type": "uint256"
        },
        {
          "indexed": false,
          "internalType": "uint256",
          "name": "ezETHBurned",
          "type": "uint256"
        }
      ],
      "name": "UserWithdrawCompleted",
      "type": "event"
    },
    {
      "anonymous": false,
      "inputs": [
        {
          "indexed": false,
          "internalType": "bytes32",
          "name": "withdrawalRoot",
          "type": "bytes32"
        },
        {
          "indexed": false,
          "internalType": "address",
          "name": "withdrawer",
          "type": "address"
        },
        {
          "indexed": false,
          "internalType": "contract IERC20",
          "name": "token",
          "type": "address"
        },
        {
          "indexed": false,
          "internalType": "uint256",
          "name": "amount",
          "type": "uint256"
        },
        {
          "indexed": false,
          "internalType": "uint256",
          "name": "ezETHToBurn",
          "type": "uint256"
        }
      ],
      "name": "UserWithdrawStarted",
      "type": "event"
    },
    {
      "inputs": [
        {
          "internalType": "contract IERC20",
          "name": "_newCollateralToken",
          "type": "address"
        }
      ],
      "name": "addCollateralToken",
      "outputs": [],
      "stateMutability": "nonpayable",
      "type": "function"
    },
    {
      "inputs": [
        {
          "internalType": "contract IOperatorDelegator",
          "name": "_newOperatorDelegator",
          "type": "address"
        },
        {
          "internalType": "uint256",
          "name": "_allocationBasisPoints",
          "type": "uint256"
        }
      ],
      "name": "addOperatorDelegator",
      "outputs": [],
      "stateMutability": "nonpayable",
      "type": "function"
    },
    {
      "inputs": [],
      "name": "calculateTVLs",
      "outputs": [
        {
          "internalType": "uint256[][]",
          "name": "",
          "type": "uint256[][]"
        },
        {
          "internalType": "uint256[]",
          "name": "",
          "type": "uint256[]"
        },
        {
          "internalType": "uint256",
          "name": "",
          "type": "uint256"
        }
      ],
      "stateMutability": "view",
      "type": "function"
    },
    {
      "inputs": [
        {
          "internalType": "uint256[]",
          "name": "tvls",
          "type": "uint256[]"
        },
        {
          "internalType": "uint256",
          "name": "totalTVL",
          "type": "uint256"
        }
      ],
      "name": "chooseOperatorDelegatorForDeposit",
      "outputs": [
        {
          "internalType": "contract IOperatorDelegator",
          "name": "",
          "type": "address"
        }
      ],
      "stateMutability": "view",
      "type": "function"
    },
    {
      "inputs": [
        {
          "internalType": "uint256",
          "name": "tokenIndex",
          "type": "uint256"
        },
        {
          "internalType": "uint256",
          "name": "ezETHValue",
          "type": "uint256"
        },
        {
          "internalType": "uint256[][]",
          "name": "operatorDelegatorTokenTVLs",
          "type": "uint256[][]"
        },
        {
          "internalType": "uint256[]",
          "name": "operatorDelegatorTVLs",
          "type": "uint256[]"
        },
        {
          "internalType": "uint256",
          "name": "totalTVL",
          "type": "uint256"
        }
      ],
      "name": "chooseOperatorDelegatorForWithdraw",
      "outputs": [
        {
          "internalType": "contract IOperatorDelegator",
          "name": "",
          "type": "address"
        }
      ],
      "stateMutability": "view",
      "type": "function"
    },
    {
      "inputs": [
        {
          "internalType": "uint256",
          "name": "",
          "type": "uint256"
        }
      ],
      "name": "collateralTokens",
      "outputs": [
        {
          "internalType": "contract IERC20",
          "name": "",
          "type": "address"
        }
      ],
      "stateMutability": "view",
      "type": "function"
    },
    {
      "inputs": [
        {
          "components": [
            {
              "internalType": "contract IStrategy[]",
              "name": "strategies",
              "type": "address[]"
            },
            {
              "internalType": "uint256[]",
              "name": "shares",
              "type": "uint256[]"
            },
            {
              "internalType": "address",
              "name": "depositor",
              "type": "address"
            },
            {
              "components": [
                {
                  "internalType": "address",
                  "name": "withdrawer",
                  "type": "address"
                },
                {
                  "internalType": "uint96",
                  "name": "nonce",
                  "type": "uint96"
                }
              ],
              "internalType": "struct IStrategyManager.WithdrawerAndNonce",
              "name": "withdrawerAndNonce",
              "type": "tuple"
            },
            {
              "internalType": "uint32",
              "name": "withdrawalStartBlock",
              "type": "uint32"
            },
            {
              "internalType": "address",
              "name": "delegatedAddress",
              "type": "address"
            }
          ],
          "internalType": "struct IStrategyManager.QueuedWithdrawal",
          "name": "withdrawal",
          "type": "tuple"
        },
        {
          "internalType": "uint256",
          "name": "middlewareTimesIndex",
          "type": "uint256"
        }
      ],
      "name": "completeWithdraw",
      "outputs": [
        {
          "internalType": "uint256",
          "name": "",
          "type": "uint256"
        }
      ],
      "stateMutability": "nonpayable",
      "type": "function"
    },
    {
      "inputs": [],
      "name": "delegationManager",
      "outputs": [
        {
          "internalType": "contract IDelegationManager",
          "name": "",
          "type": "address"
        }
      ],
      "stateMutability": "view",
      "type": "function"
    },
    {
      "inputs": [
        {
          "internalType": "contract IERC20",
          "name": "_collateralToken",
          "type": "address"
        },
        {
          "internalType": "uint256",
          "name": "_amount",
          "type": "uint256"
        }
      ],
      "name": "deposit",
      "outputs": [],
      "stateMutability": "nonpayable",
      "type": "function"
    },
    {
      "inputs": [],
      "name": "depositETH",
      "outputs": [],
      "stateMutability": "payable",
      "type": "function"
    },
    {
      "inputs": [],
      "name": "depositQueue",
      "outputs": [
        {
          "internalType": "contract IDepositQueue",
          "name": "",
          "type": "address"
        }
      ],
      "stateMutability": "view",
      "type": "function"
    },
    {
      "inputs": [
        {
          "internalType": "contract IERC20",
          "name": "_token",
          "type": "address"
        },
        {
          "internalType": "uint256",
          "name": "_amount",
          "type": "uint256"
        }
      ],
      "name": "depositTokenRewardsFromProtocol",
      "outputs": [],
      "stateMutability": "nonpayable",
      "type": "function"
    },
    {
      "inputs": [],
      "name": "ezETH",
      "outputs": [
        {
          "internalType": "contract IEzEthToken",
          "name": "",
          "type": "address"
        }
      ],
      "stateMutability": "view",
      "type": "function"
    },
    {
      "inputs": [
        {
          "internalType": "contract IERC20",
          "name": "_collateralToken",
          "type": "address"
        }
      ],
      "name": "getCollateralTokenIndex",
      "outputs": [
        {
          "internalType": "uint256",
          "name": "",
          "type": "uint256"
        }
      ],
      "stateMutability": "view",
      "type": "function"
    },
    {
      "inputs": [],
      "name": "getCollateralTokensLength",
      "outputs": [
        {
          "internalType": "uint256",
          "name": "",
          "type": "uint256"
        }
      ],
      "stateMutability": "view",
      "type": "function"
    },
    {
      "inputs": [],
      "name": "getOperatorDelegatorsLength",
      "outputs": [
        {
          "internalType": "uint256",
          "name": "",
          "type": "uint256"
        }
      ],
      "stateMutability": "view",
      "type": "function"
    },
    {
      "inputs": [],
      "name": "getTotalRewardsEarned",
      "outputs": [
        {
          "internalType": "uint256",
          "name": "",
          "type": "uint256"
        }
      ],
      "stateMutability": "view",
      "type": "function"
    },
    {
      "inputs": [
        {
          "internalType": "contract IRoleManager",
          "name": "_roleManager",
          "type": "address"
        },
        {
          "internalType": "contract IEzEthToken",
          "name": "_ezETH",
          "type": "address"
        },
        {
          "internalType": "contract IRenzoOracle",
          "name": "_renzoOracle",
          "type": "address"
        },
        {
          "internalType": "contract IStrategyManager",
          "name": "_strategyManager",
          "type": "address"
        },
        {
          "internalType": "contract IDelegationManager",
          "name": "_delegationManager",
          "type": "address"
        },
        {
          "internalType": "contract IDepositQueue",
          "name": "_depositQueue",
          "type": "address"
        }
      ],
      "name": "initialize",
      "outputs": [],
      "stateMutability": "nonpayable",
      "type": "function"
    },
    {
      "inputs": [],
      "name": "maxDepositTVL",
      "outputs": [
        {
          "internalType": "uint256",
          "name": "",
          "type": "uint256"
        }
      ],
      "stateMutability": "view",
      "type": "function"
    },
    {
      "inputs": [
        {
          "internalType": "contract IOperatorDelegator",
          "name": "",
          "type": "address"
        }
      ],
      "name": "operatorDelegatorAllocations",
      "outputs": [
        {
          "internalType": "uint256",
          "name": "",
          "type": "uint256"
        }
      ],
      "stateMutability": "view",
      "type": "function"
    },
    {
      "inputs": [
        {
          "internalType": "uint256",
          "name": "",
          "type": "uint256"
        }
      ],
      "name": "operatorDelegators",
      "outputs": [
        {
          "internalType": "contract IOperatorDelegator",
          "name": "",
          "type": "address"
        }
      ],
      "stateMutability": "view",
      "type": "function"
    },
    {
      "inputs": [],
      "name": "paused",
      "outputs": [
        {
          "internalType": "bool",
          "name": "",
          "type": "bool"
        }
      ],
      "stateMutability": "view",
      "type": "function"
    },
    {
      "inputs": [
        {
          "internalType": "bytes32",
          "name": "",
          "type": "bytes32"
        }
      ],
      "name": "pendingWithdrawals",
      "outputs": [
        {
          "internalType": "uint256",
          "name": "ezETHToBurn",
          "type": "uint256"
        },
        {
          "internalType": "address",
          "name": "withdrawer",
          "type": "address"
        },
        {
          "internalType": "contract IERC20",
          "name": "tokenToWithdraw",
          "type": "address"
        },
        {
          "internalType": "uint256",
          "name": "tokenAmountToWithdraw",
          "type": "uint256"
        },
        {
          "internalType": "contract IOperatorDelegator",
          "name": "operatorDelegator",
          "type": "address"
        },
        {
          "internalType": "bool",
          "name": "completed",
          "type": "bool"
        }
      ],
      "stateMutability": "view",
      "type": "function"
    },
    {
      "inputs": [
        {
          "internalType": "contract IERC20",
          "name": "_collateralTokenToRemove",
          "type": "address"
        }
      ],
      "name": "removeCollateralToken",
      "outputs": [],
      "stateMutability": "nonpayable",
      "type": "function"
    },
    {
      "inputs": [
        {
          "internalType": "contract IOperatorDelegator",
          "name": "_operatorDelegatorToRemove",
          "type": "address"
        }
      ],
      "name": "removeOperatorDelegator",
      "outputs": [],
      "stateMutability": "nonpayable",
      "type": "function"
    },
    {
      "inputs": [],
      "name": "renzoOracle",
      "outputs": [
        {
          "internalType": "contract IRenzoOracle",
          "name": "",
          "type": "address"
        }
      ],
      "stateMutability": "view",
      "type": "function"
    },
    {
      "inputs": [],
      "name": "roleManager",
      "outputs": [
        {
          "internalType": "contract IRoleManager",
          "name": "",
          "type": "address"
        }
      ],
      "stateMutability": "view",
      "type": "function"
    },
    {
      "inputs": [
        {
          "internalType": "uint256",
          "name": "_maxDepositTVL",
          "type": "uint256"
        }
      ],
      "name": "setMaxDepositTVL",
      "outputs": [],
      "stateMutability": "nonpayable",
      "type": "function"
    },
    {
      "inputs": [
        {
          "internalType": "contract IOperatorDelegator",
          "name": "_operatorDelegator",
          "type": "address"
        },
        {
          "internalType": "uint256",
          "name": "_allocationBasisPoints",
          "type": "uint256"
        }
      ],
      "name": "setOperatorDelegatorAllocation",
      "outputs": [],
      "stateMutability": "nonpayable",
      "type": "function"
    },
    {
      "inputs": [
        {
          "internalType": "bool",
          "name": "_paused",
          "type": "bool"
        }
      ],
      "name": "setPaused",
      "outputs": [],
      "stateMutability": "nonpayable",
      "type": "function"
    },
    {
      "inputs": [
        {
          "internalType": "contract IOperatorDelegator",
          "name": "operatorDelegator",
          "type": "address"
        },
        {
          "internalType": "bytes",
          "name": "pubkey",
          "type": "bytes"
        },
        {
          "internalType": "bytes",
          "name": "signature",
          "type": "bytes"
        },
        {
          "internalType": "bytes32",
          "name": "depositDataRoot",
          "type": "bytes32"
        }
      ],
      "name": "stakeEthInOperatorDelegator",
      "outputs": [],
      "stateMutability": "payable",
      "type": "function"
    },
    {
      "inputs": [
        {
          "internalType": "uint256",
          "name": "_ezEThToBurn",
          "type": "uint256"
        },
        {
          "internalType": "contract IERC20",
          "name": "_tokenToWithdraw",
          "type": "address"
        }
      ],
      "name": "startWithdraw",
      "outputs": [
        {
          "internalType": "bytes32",
          "name": "",
          "type": "bytes32"
        }
      ],
      "stateMutability": "nonpayable",
      "type": "function"
    },
    {
      "inputs": [],
      "name": "strategyManager",
      "outputs": [
        {
          "internalType": "contract IStrategyManager",
          "name": "",
          "type": "address"
        }
      ],
      "stateMutability": "view",
      "type": "function"
    }
  ],
  "transactionHash": "0xf8b461fe9edb29feedd4fa708463bbead65e2b45a2de55f9fac569cef4fa4f91",
  "args": [],
  "numDeployments": 1,
  "solcInputHash": "e61991be36f3b065cf1f32b510d9735d",
  "bytecode": "0x60806040523480156200001157600080fd5b506200001c62000022565b620000e3565b600054610100900460ff16156200008f5760405162461bcd60e51b815260206004820152602760248201527f496e697469616c697a61626c653a20636f6e747261637420697320696e697469604482015266616c697a696e6760c81b606482015260840160405180910390fd5b60005460ff90811614620000e1576000805460ff191660ff9081179091556040519081527f7f26b83ff96e1f2b6a682f133852f6798a09c465da95921460cefb38474024989060200160405180910390a15b565b613b1380620000f36000396000f3fe6080604052600436106101ed5760003560e01c80636a78aa4e1161010d578063cc2a9a5b116100a0578063ea4d3c9b1161006f578063ea4d3c9b1461060a578063ee953b911461062a578063f617eecc1461064a578063f6326fb31461066a578063ff9969cd1461067257600080fd5b8063cc2a9a5b1461058a578063d6ae4cdf146105aa578063da25b68e146105ca578063e571ef47146105ea57600080fd5b80639b1dde98116100dc5780639b1dde981461048f578063a088ebcf146104bc578063abbfe4e7146104d2578063b7f06ebe146104e557600080fd5b80636a78aa4e1461041a57806375c745a61461043a578063892866a41461044f57806394f9059f1461046f57600080fd5b806329918899116101855780633ab1de82116101545780633ab1de821461039457806347e7ef24146103b45780634f909633146103d45780635c975abb146103e957600080fd5b8063299188991461031f5780632b5d52d51461033f5780632d97d3651461035457806339b70e381461037457600080fd5b80631a461deb116101c15780631a461deb1461029157806322e90fac146102bf57806322eaa1d9146102df57806328284358146102ff57600080fd5b8062435da5146101f257806313a73c781461022f57806316c38b3c1461024f578063172c48c714610271575b600080fd5b3480156101fe57600080fd5b50603354610212906001600160a01b031681565b6040516001600160a01b0390911681526020015b60405180910390f35b34801561023b57600080fd5b50603454610212906001600160a01b031681565b34801561025b57600080fd5b5061026f61026a366004613132565b610696565b005b34801561027d57600080fd5b5061021261028c366004613156565b61073c565b34801561029d57600080fd5b506102b16102ac366004613184565b610766565b604051908152602001610226565b3480156102cb57600080fd5b5061026f6102da3660046131a1565b6107d6565b3480156102eb57600080fd5b5061026f6102fa3660046131a1565b610983565b34801561030b57600080fd5b506102b161031a3660046131cd565b610b79565b34801561032b57600080fd5b5061026f61033a366004613184565b610e5c565b34801561034b57600080fd5b506102b16110c7565b34801561036057600080fd5b5061021261036f366004613156565b611367565b34801561038057600080fd5b50603554610212906001600160a01b031681565b3480156103a057600080fd5b5061026f6103af366004613156565b611377565b3480156103c057600080fd5b5061026f6103cf3660046131a1565b611405565b3480156103e057600080fd5b506038546102b1565b3480156103f557600080fd5b50603b5461040a90600160a01b900460ff1681565b6040519015158152602001610226565b34801561042657600080fd5b506102126104353660046132df565b611763565b34801561044657600080fd5b50603a546102b1565b34801561045b57600080fd5b50603b54610212906001600160a01b031681565b34801561047b57600080fd5b5061026f61048a366004613184565b6118b9565b34801561049b57600080fd5b506102b16104aa366004613184565b60396020526000908152604090205481565b3480156104c857600080fd5b506102b1603c5481565b61026f6104e036600461336d565b611a7b565b3480156104f157600080fd5b5061054a610500366004613156565b6037602052600090815260409020805460018201546002830154600384015460049094015492936001600160a01b039283169391831692909190811690600160a01b900460ff1686565b604080519687526001600160a01b0395861660208801529385169386019390935260608501919091529091166080830152151560a082015260c001610226565b34801561059657600080fd5b5061026f6105a53660046133f8565b611b8f565b3480156105b657600080fd5b506102126105c536600461347a565b611d10565b3480156105d657600080fd5b5061026f6105e53660046131a1565b611f0d565b3480156105f657600080fd5b506102b161060536600461356b565b611ff8565b34801561061657600080fd5b50603654610212906001600160a01b031681565b34801561063657600080fd5b5061026f610645366004613184565b6123ea565b34801561065657600080fd5b50603d54610212906001600160a01b031681565b61026f6125fc565b34801561067e57600080fd5b50610687612886565b604051610226939291906135d6565b6033546040516285fdd360e31b81523360048201526001600160a01b039091169063042fee9890602401602060405180830381865afa1580156106dd573d6000803e3d6000fd5b505050506040513d601f19601f82011682018060405250810190610701919061367c565b61071e5760405163c2952d6b60e01b815260040160405180910390fd5b603b8054911515600160a01b0260ff60a01b19909216919091179055565b603a818154811061074c57600080fd5b6000918252602090912001546001600160a01b0316905081565b603a54600090815b818110156107bc57836001600160a01b0316603a828154811061079357610793613699565b6000918252602090912001546001600160a01b0316036107b4579392505050565b60010161076e565b5060405163c5723b5160e01b815260040160405180910390fd5b603354604051633edaabc560e11b81523360048201526001600160a01b0390911690637db5578a90602401602060405180830381865afa15801561081e573d6000803e3d6000fd5b505050506040513d601f19601f82011682018060405250810190610842919061367c565b61085f57604051632ec79ab960e01b815260040160405180910390fd5b6001600160a01b0382166108865760405163862a606760e01b815260040160405180910390fd5b6108916064806136c5565b8111156108b157604051636b5c426160e01b815260040160405180910390fd5b603854600090815b8181101561090957846001600160a01b0316603882815481106108de576108de613699565b6000918252602090912001546001600160a01b0316036109015760019250610909565b6001016108b9565b50816109285760405163c5723b5160e01b815260040160405180910390fd5b6001600160a01b03841660009081526039602052604090819020849055517f12d397169a322ac7aa732f2a0497a7aa541cb838a274e1b159cce63c3fbd59aa9061097590869086906136dc565b60405180910390a150505050565b603354604051633edaabc560e11b81523360048201526001600160a01b0390911690637db5578a90602401602060405180830381865afa1580156109cb573d6000803e3d6000fd5b505050506040513d601f19601f820116820180604052508101906109ef919061367c565b610a0c57604051632ec79ab960e01b815260040160405180910390fd5b60385460005b81811015610a7257836001600160a01b031660388281548110610a3757610a37613699565b6000918252602090912001546001600160a01b031603610a6a5760405163f411c32760e01b815260040160405180910390fd5b600101610a12565b50610a7e6064806136c5565b821115610a9e57604051636b5c426160e01b815260040160405180910390fd5b603880546001810182556000919091527f38395c5dceade9603479b177b68959049485df8aa97b39f3533039af5f4561990180546001600160a01b0319166001600160a01b0385169081179091556040519081527f65b81fee757b5829443cfb801a5aec06e446e785a14f2a1ac09ee55d5c80596f9060200160405180910390a16001600160a01b03831660009081526039602052604090819020839055517f12d397169a322ac7aa732f2a0497a7aa541cb838a274e1b159cce63c3fbd59aa90610b6c90859085906136dc565b60405180910390a1505050565b6000610b83612c90565b603b54600160a01b900460ff1615610bae5760405163ab35696f60e01b815260040160405180910390fd5b60355460405163b43b514b60e01b81526000916001600160a01b03169063b43b514b90610bdf9087906004016138b6565b602060405180830381865afa158015610bfc573d6000803e3d6000fd5b505050506040513d601f19601f82011682018060405250810190610c2091906138c9565b600081815260376020908152604091829020825160c0810184528154815260018201546001600160a01b0390811693820193909352600282015483169381019390935260038101546060840152600401549081166080830152600160a01b900460ff1615801560a083015291925090610cac576040516335a34c3560e01b815260040160405180910390fd5b60208101516001600160a01b03163314610cef576020810151604051634cbd1b4f60e01b81526001600160a01b0390911660048201526024015b60405180910390fd5b80608001516001600160a01b0316639b5cd04886836040015187336040518563ffffffff1660e01b8152600401610d2994939291906138e2565b600060405180830381600087803b158015610d4357600080fd5b505af1158015610d57573d6000803e3d6000fd5b50506034548351604051632770a7eb60e21b81526001600160a01b039092169350639dc29fac9250610d8e913091906004016136dc565b600060405180830381600087803b158015610da857600080fd5b505af1158015610dbc573d6000803e3d6000fd5b5050506000838152603760209081526040918290206004018054600160a01b60ff60a01b19909116179055838201516060808601518651855189815233958101959095526001600160a01b039093168486015290830152608082015290517f01dbe3e77414277717929cc9d192639ec8385fefe2fbddf084bb50e1cdcea0be92509081900360a00190a160600151915050610e5660018055565b92915050565b603354604051633edaabc560e11b81523360048201526001600160a01b0390911690637db5578a90602401602060405180830381865afa158015610ea4573d6000803e3d6000fd5b505050506040513d601f19601f82011682018060405250810190610ec8919061367c565b610ee557604051632ec79ab960e01b815260040160405180910390fd5b603a5460005b81811015610f4b57826001600160a01b0316603a8281548110610f1057610f10613699565b6000918252602090912001546001600160a01b031603610f435760405163f411c32760e01b815260040160405180910390fd5b600101610eeb565b50816001600160a01b031663313ce5676040518163ffffffff1660e01b8152600401602060405180830381865afa158015610f8a573d6000803e3d6000fd5b505050506040513d601f19601f82011682018060405250810190610fae919061391e565b60ff16601214611042576012826001600160a01b031663313ce5676040518163ffffffff1660e01b8152600401602060405180830381865afa158015610ff8573d6000803e3d6000fd5b505050506040513d601f19601f8201168201806040525081019061101c919061391e565b6040516330946b1f60e21b815260ff928316600482015291166024820152604401610ce6565b603a80546001810182556000919091527fa2999d817b6757290b50e8ecf3fa939673403dd35c97de392fdb343b4015ce9e0180546001600160a01b0319166001600160a01b0384169081179091556040519081527fd61bc477a25fa080e2c32ed9e4417ba4861d11b873216136586ddedadcff2f029060200160405180910390a15050565b603d5460405163324d652560e11b81526000600482018190529182916001600160a01b039091169063649aca4a90602401602060405180830381865afa158015611115573d6000803e3d6000fd5b505050506040513d601f19601f8201168201806040525081019061113991906138c9565b6111439082613941565b603a5490915060005b818110156112ac57603d54603a80546000926001600160a01b03169163649aca4a918590811061117e5761117e613699565b60009182526020909120015460405160e083901b6001600160e01b03191681526001600160a01b039091166004820152602401602060405180830381865afa1580156111ce573d6000803e3d6000fd5b505050506040513d601f19601f820116820180604052508101906111f291906138c9565b603b54603a80549293506001600160a01b03909116916252e3fd91908590811061121e5761121e613699565b6000918252602090912001546040516001600160e01b031960e084901b168152611256916001600160a01b03169085906004016136dc565b602060405180830381865afa158015611273573d6000803e3d6000fd5b505050506040513d601f19601f8201168201806040525081019061129791906138c9565b6112a19085613941565b93505060010161114c565b5060385460005b8181101561135e57603881815481106112ce576112ce613699565b60009182526020918290200154604080516351d5709b60e11b815290516001600160a01b039092169263a3aae136926004808401938290030181865afa15801561131c573d6000803e3d6000fd5b505050506040513d601f19601f820116820180604052508101906113409190613954565b611354906001600160a01b03163185613941565b93506001016112b3565b50919392505050565b6038818154811061074c57600080fd5b603354604051633edaabc560e11b81523360048201526001600160a01b0390911690637db5578a90602401602060405180830381865afa1580156113bf573d6000803e3d6000fd5b505050506040513d601f19601f820116820180604052508101906113e3919061367c565b61140057604051632ec79ab960e01b815260040160405180910390fd5b603c55565b61140d612c90565b603b54600160a01b900460ff16156114385760405163ab35696f60e01b815260040160405180910390fd5b61144182610766565b5060008061144d612886565b603b546040516252e3fd60e01b8152929550909350600092506001600160a01b0316906252e3fd9061148590889088906004016136dc565b602060405180830381865afa1580156114a2573d6000803e3d6000fd5b505050506040513d601f19601f820116820180604052508101906114c691906138c9565b9050603c546000141580156114e55750603c546114e38284613941565b115b1561150357604051631c26652f60e21b815260040160405180910390fd5b600061150f8484611763565b90506115266001600160a01b038716333088612cef565b61153a6001600160a01b0387168287612d60565b6040516311f9fbc960e21b81526001600160a01b038216906347e7ef249061156890899089906004016136dc565b6020604051808303816000875af1158015611587573d6000803e3d6000fd5b505050506040513d601f19601f820116820180604052508101906115ab91906138c9565b50603b54603454604080516318160ddd60e01b815290516000936001600160a01b0390811693638f686e6a9389938993909216916318160ddd916004808201926020929091908290030181865afa15801561160a573d6000803e3d6000fd5b505050506040513d601f19601f8201168201806040525081019061162e91906138c9565b6040516001600160e01b031960e086901b168152600481019390935260248301919091526044820152606401602060405180830381865afa158015611677573d6000803e3d6000fd5b505050506040513d601f19601f8201168201806040525081019061169b91906138c9565b6034546040516340c10f1960e01b81529192506001600160a01b0316906340c10f19906116ce90339085906004016136dc565b600060405180830381600087803b1580156116e857600080fd5b505af11580156116fc573d6000803e3d6000fd5b5050604080513381526001600160a01b038b166020820152908101899052606081018490527fdcbc1c05240f31ff3ad067ef1ee35ce4997762752e3a095284754544f4c709d79250608001905060405180910390a1505050505061175f60018055565b5050565b60385460009081036117885760405163c5723b5160e01b815260040160405180910390fd5b6038546001036117c25760386000815481106117a6576117a6613699565b6000918252602090912001546001600160a01b03169050610e56565b825160005b81811015611887576064808560396000603886815481106117ea576117ea613699565b60009182526020808320909101546001600160a01b0316835282019290925260400190205461181991906136c5565b6118239190613971565b61182d9190613971565b85828151811061183f5761183f613699565b6020026020010151101561187f576038818154811061186057611860613699565b6000918252602090912001546001600160a01b03169250610e56915050565b6001016117c7565b50603860008154811061189c5761189c613699565b6000918252602090912001546001600160a01b0316949350505050565b603354604051633edaabc560e11b81523360048201526001600160a01b0390911690637db5578a90602401602060405180830381865afa158015611901573d6000803e3d6000fd5b505050506040513d601f19601f82011682018060405250810190611925919061367c565b61194257604051632ec79ab960e01b815260040160405180910390fd5b603a5460005b818110156107bc57826001600160a01b0316603a828154811061196d5761196d613699565b6000918252602090912001546001600160a01b031603611a7057603a805461199790600190613993565b815481106119a7576119a7613699565b600091825260209091200154603a80546001600160a01b0390921691839081106119d3576119d3613699565b9060005260206000200160006101000a8154816001600160a01b0302191690836001600160a01b03160217905550603a805480611a1257611a126139a6565b6000828152602090819020600019908301810180546001600160a01b03191690559091019091556040516001600160a01b03851681527f066186f1dd144b0baa72e90264076813d8f2dfce7c39704ea68d159cee4305b79101610b6c565b600101611948565b50565b603d546001600160a01b03163314611aa657604051630a5e382360e11b815260040160405180910390fd5b603854600090815b81811015611afe57886001600160a01b031660388281548110611ad357611ad3613699565b6000918252602090912001546001600160a01b031603611af65760019250611afe565b600101611aae565b5081611b1d5760405163c5723b5160e01b815260040160405180910390fd5b604051639ebf4ab160e01b81526001600160a01b03891690639ebf4ab1903490611b53908b908b908b908b908b906004016139e5565b6000604051808303818588803b158015611b6c57600080fd5b505af1158015611b80573d6000803e3d6000fd5b50505050505050505050505050565b600054610100900460ff1615808015611baf5750600054600160ff909116105b80611bc95750303b158015611bc9575060005460ff166001145b611c2c5760405162461bcd60e51b815260206004820152602e60248201527f496e697469616c697a61626c653a20636f6e747261637420697320616c72656160448201526d191e481a5b9a5d1a585b1a5e995960921b6064820152608401610ce6565b6000805460ff191660011790558015611c4f576000805461ff0019166101001790555b611c57612e69565b603380546001600160a01b03199081166001600160a01b038a811691909117909255603480548216898416179055603b8054603580548416898616179055603680548416888616179055603d8054909316868516179092559187166001600160a81b03199091161790558015611d07576000805461ff0019169055604051600181527f7f26b83ff96e1f2b6a682f133852f6798a09c465da95921460cefb38474024989060200160405180910390a15b50505050505050565b603854600090600103611da1578484600081518110611d3157611d31613699565b60200260200101518781518110611d4a57611d4a613699565b60200260200101511015611d715760405163c5723b5160e01b815260040160405180910390fd5b6038600081548110611d8557611d85613699565b6000918252602090912001546001600160a01b03169050611f04565b825160005b81811015611ea457606480856039600060388681548110611dc957611dc9613699565b60009182526020808320909101546001600160a01b03168352820192909252604001902054611df891906136c5565b611e029190613971565b611e0c9190613971565b858281518110611e1e57611e1e613699565b6020026020010151118015611e65575086868281518110611e4157611e41613699565b60200260200101518981518110611e5a57611e5a613699565b602002602001015110155b15611e9c5760388181548110611e7d57611e7d613699565b6000918252602090912001546001600160a01b03169250611f04915050565b600101611da6565b5060005b818110156107bc5786868281518110611ec357611ec3613699565b60200260200101518981518110611edc57611edc613699565b602002602001015110611efc5760388181548110611e7d57611e7d613699565b600101611ea8565b95945050505050565b603d546001600160a01b03163314611f3857604051630a5e382360e11b815260040160405180910390fd5b600080611f43612886565b92509250506000611f548383611763565b9050611f6b6001600160a01b038616333087612cef565b611f7f6001600160a01b0386168286612d60565b6040516311f9fbc960e21b81526001600160a01b038216906347e7ef2490611fad90889088906004016136dc565b6020604051808303816000875af1158015611fcc573d6000803e3d6000fd5b505050506040513d601f19601f82011682018060405250810190611ff091906138c9565b505050505050565b6000612002612c90565b603b54600160a01b900460ff161561202d5760405163ab35696f60e01b815260040160405180910390fd5b603454612045906001600160a01b0316333086612cef565b6000806000612052612886565b603b54603454604080516318160ddd60e01b815290519598509396509194506000936001600160a01b039182169363c5c83cb0938c9316916318160ddd916004808201926020929091908290030181865afa1580156120b5573d6000803e3d6000fd5b505050506040513d601f19601f820116820180604052508101906120d991906138c9565b6040516001600160e01b031960e085901b1681526004810192909252602482015260448101859052606401602060405180830381865afa158015612121573d6000803e3d6000fd5b505050506040513d601f19601f8201168201806040525081019061214591906138c9565b9050600061215287610766565b905060006121638284888888611d10565b603b54604051633793362560e01b81529192506000916001600160a01b039091169063379336259061219b908c9088906004016136dc565b602060405180830381865afa1580156121b8573d6000803e3d6000fd5b505050506040513d601f19601f820116820180604052508101906121dc91906138c9565b90506000826001600160a01b031663864132e68b846040518363ffffffff1660e01b815260040161220e9291906136dc565b6020604051808303816000875af115801561222d573d6000803e3d6000fd5b505050506040513d601f19601f8201168201806040525081019061225191906138c9565b90506040518060c001604052808c8152602001336001600160a01b031681526020018b6001600160a01b03168152602001838152602001846001600160a01b0316815260200160001515815250603760008381526020019081526020016000206000820151816000015560208201518160010160006101000a8154816001600160a01b0302191690836001600160a01b0316021790555060408201518160020160006101000a8154816001600160a01b0302191690836001600160a01b031602179055506060820151816003015560808201518160040160006101000a8154816001600160a01b0302191690836001600160a01b0316021790555060a08201518160040160146101000a81548160ff0219169083151502179055509050507fc09ed86575d29e28a57c7404cd6a8633bf722b616f11301ff62dc1c059804a7b81338c858f6040516123d09594939291909485526001600160a01b0393841660208601529190921660408401526060830191909152608082015260a00190565b60405180910390a1975050505050505050610e5660018055565b603354604051633edaabc560e11b81523360048201526001600160a01b0390911690637db5578a90602401602060405180830381865afa158015612432573d6000803e3d6000fd5b505050506040513d601f19601f82011682018060405250810190612456919061367c565b61247357604051632ec79ab960e01b815260040160405180910390fd5b60385460005b818110156107bc57826001600160a01b03166038828154811061249e5761249e613699565b6000918252602090912001546001600160a01b0316036125f4576001600160a01b038316600090815260396020526040808220829055517f12d397169a322ac7aa732f2a0497a7aa541cb838a274e1b159cce63c3fbd59aa91612503918691906136dc565b60405180910390a16038805461251b90600190613993565b8154811061252b5761252b613699565b600091825260209091200154603880546001600160a01b03909216918390811061255757612557613699565b9060005260206000200160006101000a8154816001600160a01b0302191690836001600160a01b031602179055506038805480612596576125966139a6565b6000828152602090819020600019908301810180546001600160a01b03191690559091019091556040516001600160a01b03851681527f938411e26a0b0e4946200cef38b0802abcc7e658bf9167b117161a8fa3879fe59101610b6c565b600101612479565b612604612c90565b603b54600160a01b900460ff161561262f5760405163ab35696f60e01b815260040160405180910390fd5b6000612639612886565b92505050603c5460001415801561265a5750603c546126583483613941565b115b1561267857604051631c26652f60e21b815260040160405180910390fd5b603d60009054906101000a90046001600160a01b03166001600160a01b031663d123ccd5346040518263ffffffff1660e01b81526004016000604051808303818588803b1580156126c857600080fd5b505af11580156126dc573d6000803e3d6000fd5b5050603b54603454604080516318160ddd60e01b81529051600096506001600160a01b039384169550638f686e6a94508793349316916318160ddd9160048083019260209291908290030181865afa15801561273c573d6000803e3d6000fd5b505050506040513d601f19601f8201168201806040525081019061276091906138c9565b6040516001600160e01b031960e086901b168152600481019390935260248301919091526044820152606401602060405180830381865afa1580156127a9573d6000803e3d6000fd5b505050506040513d601f19601f820116820180604052508101906127cd91906138c9565b6034546040516340c10f1960e01b81529192506001600160a01b0316906340c10f199061280090339085906004016136dc565b600060405180830381600087803b15801561281a57600080fd5b505af115801561282e573d6000803e3d6000fd5b5050604080513381526000602082015234818301526060810185905290517fdcbc1c05240f31ff3ad067ef1ee35ce4997762752e3a095284754544f4c709d79350908190036080019150a1505061288460018055565b565b60608060008060388054905067ffffffffffffffff8111156128aa576128aa613209565b6040519080825280602002602001820160405280156128dd57816020015b60608152602001906001900390816128c85790505b5060385490915060009067ffffffffffffffff8111156128ff576128ff613209565b604051908082528060200260200182016040528015612928578160200160208202803683370190505b50603854909150600090815b81811015612c6957603a54600090819061294f906001613941565b67ffffffffffffffff81111561296757612967613209565b604051908082528060200260200182016040528015612990578160200160208202803683370190505b509050808784815181106129a6576129a6613699565b6020908102919091010152603a5460005b81811015612b6e576000603886815481106129d4576129d4613699565b600091825260209091200154603a80546001600160a01b039092169163ec730177919085908110612a0757612a07613699565b60009182526020909120015460405160e083901b6001600160e01b03191681526001600160a01b039091166004820152602401602060405180830381865afa158015612a57573d6000803e3d6000fd5b505050506040513d601f19601f82011682018060405250810190612a7b91906138c9565b603b54603a80549293506001600160a01b03909116916252e3fd919085908110612aa757612aa7613699565b6000918252602090912001546040516001600160e01b031960e084901b168152612adf916001600160a01b03169085906004016136dc565b602060405180830381865afa158015612afc573d6000803e3d6000fd5b505050506040513d601f19601f82011682018060405250810190612b2091906138c9565b848381518110612b3257612b32613699565b602002602001018181525050838281518110612b5057612b50613699565b602002602001015185612b639190613941565b9450506001016129b7565b50600060388581548110612b8457612b84613699565b600091825260209182902001546040805163573803fb60e01b815290516001600160a01b039092169263573803fb926004808401938290030181865afa158015612bd2573d6000803e3d6000fd5b505050506040513d601f19601f82011682018060405250810190612bf691906138c9565b9050808360018551612c089190613993565b81518110612c1857612c18613699565b6020908102919091010152612c2d8185613941565b9350612c398488613941565b965083888681518110612c4e57612c4e613699565b60200260200101818152505084600101945050505050612934565b50603d54612c81906001600160a01b03163183613941565b93979296509294509092505050565b600260015403612ce25760405162461bcd60e51b815260206004820152601f60248201527f5265656e7472616e637947756172643a207265656e7472616e742063616c6c006044820152606401610ce6565b6002600155565b60018055565b6040516001600160a01b0380851660248301528316604482015260648101829052612d5a9085906323b872dd60e01b906084015b60408051601f198184030181529190526020810180516001600160e01b03166001600160e01b031990931692909217909152612e98565b50505050565b801580612dda5750604051636eb1769f60e11b81523060048201526001600160a01b03838116602483015284169063dd62ed3e90604401602060405180830381865afa158015612db4573d6000803e3d6000fd5b505050506040513d601f19601f82011682018060405250810190612dd891906138c9565b155b612e455760405162461bcd60e51b815260206004820152603660248201527f5361666545524332303a20617070726f76652066726f6d206e6f6e2d7a65726f60448201527520746f206e6f6e2d7a65726f20616c6c6f77616e636560501b6064820152608401610ce6565b612e648363095ea7b360e01b8484604051602401612d239291906136dc565b505050565b600054610100900460ff16612e905760405162461bcd60e51b8152600401610ce690613a1f565b612884612f6d565b6000612eed826040518060400160405280602081526020017f5361666545524332303a206c6f772d6c6576656c2063616c6c206661696c6564815250856001600160a01b0316612f949092919063ffffffff16565b9050805160001480612f0e575080806020019051810190612f0e919061367c565b612e645760405162461bcd60e51b815260206004820152602a60248201527f5361666545524332303a204552433230206f7065726174696f6e20646964206e6044820152691bdd081cdd58d8d9595960b21b6064820152608401610ce6565b600054610100900460ff16612ce95760405162461bcd60e51b8152600401610ce690613a1f565b6060612fa38484600085612fab565b949350505050565b60608247101561300c5760405162461bcd60e51b815260206004820152602660248201527f416464726573733a20696e73756666696369656e742062616c616e636520666f6044820152651c8818d85b1b60d21b6064820152608401610ce6565b600080866001600160a01b031685876040516130289190613a8e565b60006040518083038185875af1925050503d8060008114613065576040519150601f19603f3d011682016040523d82523d6000602084013e61306a565b606091505b509150915061307b87838387613086565b979650505050505050565b606083156130f55782516000036130ee576001600160a01b0385163b6130ee5760405162461bcd60e51b815260206004820152601d60248201527f416464726573733a2063616c6c20746f206e6f6e2d636f6e74726163740000006044820152606401610ce6565b5081612fa3565b612fa3838381511561310a5781518083602001fd5b8060405162461bcd60e51b8152600401610ce69190613aaa565b8015158114611a7857600080fd5b60006020828403121561314457600080fd5b813561314f81613124565b9392505050565b60006020828403121561316857600080fd5b5035919050565b6001600160a01b0381168114611a7857600080fd5b60006020828403121561319657600080fd5b813561314f8161316f565b600080604083850312156131b457600080fd5b82356131bf8161316f565b946020939093013593505050565b600080604083850312156131e057600080fd5b823567ffffffffffffffff8111156131f757600080fd5b830160e081860312156131bf57600080fd5b634e487b7160e01b600052604160045260246000fd5b604051601f8201601f1916810167ffffffffffffffff8111828210171561324857613248613209565b604052919050565b600067ffffffffffffffff82111561326a5761326a613209565b5060051b60200190565b600082601f83011261328557600080fd5b8135602061329a61329583613250565b61321f565b82815260059290921b840181019181810190868411156132b957600080fd5b8286015b848110156132d457803583529183019183016132bd565b509695505050505050565b600080604083850312156132f257600080fd5b823567ffffffffffffffff81111561330957600080fd5b61331585828601613274565b95602094909401359450505050565b60008083601f84011261333657600080fd5b50813567ffffffffffffffff81111561334e57600080fd5b60208301915083602082850101111561336657600080fd5b9250929050565b6000806000806000806080878903121561338657600080fd5b86356133918161316f565b9550602087013567ffffffffffffffff808211156133ae57600080fd5b6133ba8a838b01613324565b909750955060408901359150808211156133d357600080fd5b506133e089828a01613324565b979a9699509497949695606090950135949350505050565b60008060008060008060c0878903121561341157600080fd5b863561341c8161316f565b9550602087013561342c8161316f565b9450604087013561343c8161316f565b9350606087013561344c8161316f565b9250608087013561345c8161316f565b915060a087013561346c8161316f565b809150509295509295509295565b600080600080600060a0868803121561349257600080fd5b853594506020808701359450604087013567ffffffffffffffff808211156134b957600080fd5b818901915089601f8301126134cd57600080fd5b81356134db61329582613250565b81815260059190911b8301840190848101908c8311156134fa57600080fd5b8585015b83811015613532578035858111156135165760008081fd5b6135248f89838a0101613274565b8452509186019186016134fe565b5097505050606089013592508083111561354b57600080fd5b505061355988828901613274565b95989497509295608001359392505050565b6000806040838503121561357e57600080fd5b8235915060208301356135908161316f565b809150509250929050565b600081518084526020808501945080840160005b838110156135cb578151875295820195908201906001016135af565b509495945050505050565b6000606082016060835280865180835260808501915060808160051b860101925060208089016000805b8481101561365457888703607f19018652825180518089529085019085890190845b8181101561363e57835183529287019291870191600101613622565b5090985050509483019491830191600101613600565b5050508584038187015250505061366b818661359b565b915050826040830152949350505050565b60006020828403121561368e57600080fd5b815161314f81613124565b634e487b7160e01b600052603260045260246000fd5b634e487b7160e01b600052601160045260246000fd5b8082028115828204841417610e5657610e566136af565b6001600160a01b03929092168252602082015260400190565b6000808335601e1984360301811261370c57600080fd5b830160208101925035905067ffffffffffffffff81111561372c57600080fd5b8060051b360382131561336657600080fd5b81835260006001600160fb1b0383111561375757600080fd5b8260051b80836020870137939093016020019392505050565b803561377b8161316f565b919050565b803561378b8161316f565b6001600160a01b0316825260208101356bffffffffffffffffffffffff81168082146137b657600080fd5b80602085015250505050565b803563ffffffff8116811461377b57600080fd5b600060e083016137e683846136f5565b60e08652918290529060009061010086015b8183101561382957833561380b8161316f565b6001600160a01b0316815260209384019360019390930192016137f8565b61383660208701876136f5565b94509250868103602088015261384d81858561373e565b935050505061385e60408401613770565b6001600160a01b0316604085015261387c6060808601908501613780565b61388860a084016137c2565b63ffffffff1660a085015261389f60c08401613770565b6001600160a01b03811660c0860152509392505050565b60208152600061314f60208301846137d6565b6000602082840312156138db57600080fd5b5051919050565b6080815260006138f560808301876137d6565b6001600160a01b0395861660208401526040830194909452509216606090920191909152919050565b60006020828403121561393057600080fd5b815160ff8116811461314f57600080fd5b80820180821115610e5657610e566136af565b60006020828403121561396657600080fd5b815161314f8161316f565b60008261398e57634e487b7160e01b600052601260045260246000fd5b500490565b81810381811115610e5657610e566136af565b634e487b7160e01b600052603160045260246000fd5b81835281816020850137506000828201602090810191909152601f909101601f19169091010190565b6060815260006139f96060830187896139bc565b8281036020840152613a0c8186886139bc565b9150508260408301529695505050505050565b6020808252602b908201527f496e697469616c697a61626c653a20636f6e7472616374206973206e6f74206960408201526a6e697469616c697a696e6760a81b606082015260800190565b60005b83811015613a85578181015183820152602001613a6d565b50506000910152565b60008251613aa0818460208701613a6a565b9190910192915050565b6020815260008251806020840152613ac9816040850160208701613a6a565b601f01601f1916919091016040019291505056fea2646970667358221220a178829d0a2817d371014428c66dc97ee0cdb3463c5c7a6bccb3a66bfac7b80b64736f6c63430008130033",
  "devdoc": {
    "author": "Renzo",
    "details": "This contract is the main entrypoint for external users into the protocol Users will interact with this contract to deposit and withdraw value into and from EigenLayer Ownership of deposited funds will be tracked via the ezETh token",
    "errors": {
      "AlreadyAdded()": [
        {
          "details": "Error for already added items to a list"
        }
      ],
      "ContractPaused()": [
        {
          "details": "Error for contract being paused"
        }
      ],
      "InvalidTokenDecimals(uint8,uint8)": [
        {
          "details": "Error for invalid token decimals for collateral tokens (must be 18)"
        }
      ],
      "InvalidZeroInput()": [
        {
          "details": "Error for 0x0 address inputs"
        }
      ],
      "MaxTVLReached()": [
        {
          "details": "Error for hitting max TVL"
        }
      ],
      "NotDepositQueue()": [
        {
          "details": "Error for call not coming from deposit queue contract"
        }
      ],
      "NotDepositWithdrawPauser()": [
        {
          "details": "Error when caller does not have Deposit Withdraw Pauser role"
        }
      ],
      "NotFound()": [
        {
          "details": "Error for not found items in a list"
        }
      ],
      "NotOriginalWithdrawCaller(address)": [
        {
          "details": "Error when a different address tries to complete withdraw"
        }
      ],
      "NotRestakeManagerAdmin()": [
        {
          "details": "Error for caller not having permissions"
        }
      ],
      "OverMaxBasisPoints()": [
        {
          "details": "Error for exceeding max basis points (100%)"
        }
      ],
      "WithdrawAlreadyCompleted()": [
        {
          "details": "Error when withdraw is already completed"
        }
      ]
    },
    "events": {
      "Deposit(address,address,uint256,uint256)": {
        "details": "Event emitted when a new deposit occurs"
      },
      "Initialized(uint8)": {
        "details": "Triggered when the contract has been initialized or reinitialized."
      },
      "UserWithdrawCompleted(bytes32,address,address,uint256,uint256)": {
        "details": "Event emitted when a new withdraw is completed"
      },
      "UserWithdrawStarted(bytes32,address,address,uint256,uint256)": {
        "details": "Event emitted when a new withdraw is started"
      }
    },
    "kind": "dev",
    "methods": {
      "addCollateralToken(address)": {
        "details": "Allows restake manager to add a collateral token"
      },
      "addOperatorDelegator(address,uint256)": {
        "details": "Allows a restake manager admin to add an OperatorDelegator to the list"
      },
      "calculateTVLs()": {
        "details": "This function calculates the TVLs for each operator delegator by individual token, total for each OD, and total for the protocol.",
        "returns": {
          "_0": "operatorDelegatorTokenTVLs Each OD's TVL indexed by operatorDelegators array by collateralTokens array",
          "_1": "operatorDelegatorTVLs Each OD's Total TVL in order of operatorDelegators array",
          "_2": "totalTVL The total TVL across all operator delegators."
        }
      },
      "chooseOperatorDelegatorForDeposit(uint256[],uint256)": {
        "details": "Picks the OperatorDelegator with the TVL below the threshold or returns the first one in the list",
        "returns": {
          "_0": "The OperatorDelegator to use"
        }
      },
      "chooseOperatorDelegatorForWithdraw(uint256,uint256,uint256[][],uint256[],uint256)": {
        "details": "Determines the OD to withdraw from It will try to use the OD with the TVL above the allocation threshold that has the tokens to withdraw If no OD is over the allocation and has tokens, it will try to find one that has the tokens to withdraw If no OD has the tokens to withdraw, it will revert",
        "returns": {
          "_0": "The OperatorDelegator to use"
        }
      },
      "completeWithdraw((address[],uint256[],address,(address,uint96),uint32,address),uint256)": {
        "details": "Caller must have called startWithdraw() and waited for the withdraw period to pass If the EigenLayer withdraw is completed, the tokens requested will be sent to the withdrawer The ezETH deposited in startWithdraw() will be burned from this contract",
        "params": {
          "middlewareTimesIndex": "From EigenLayer - not used in M1 release (can be 0)",
          "withdrawal": "The data from startWithdraw()"
        },
        "returns": {
          "_0": "uint256  The amount of tokens withdrawn"
        }
      },
      "constructor": {
        "custom:oz-upgrades-unsafe-allow": "constructor",
        "details": "Prevents implementation contract from being initialized."
      },
      "deposit(address,uint256)": {
        "details": "The msg.sender must pre-approve this contract to move the tokens into the protocol To deposit, the contract will:   - Figure out which operator delegator to use   - Transfer the collateral token to the operator delegator and deposit it into EigenLayer   - Calculate and mint the appropriate amount of ezETH back to the user ezETH will get inflated proportional to the value they are depositing vs the value already in the protocol The collateral token specified must be pre-configured to be allowed in the protocol",
        "params": {
          "_amount": "The amount of the collateral token to deposit in base units",
          "_collateralToken": "The address of the collateral ERC20 token to deposit"
        }
      },
      "depositETH()": {
        "details": "The amount of ETH sent into this function will be sent to the deposit queue to be  staked later by a validator.  Once staked it will be deposited into EigenLayer."
      },
      "depositTokenRewardsFromProtocol(address,uint256)": {
        "details": "Deposit ERC20 token rewards from the Deposit Queue Only callable by the deposit queue"
      },
      "getCollateralTokenIndex(address)": {
        "details": "Finds the index of the collateral token in the list Reverts if the token is not found in the list"
      },
      "getCollateralTokensLength()": {
        "details": "Get the length of the collateral tokens array"
      },
      "getOperatorDelegatorsLength()": {
        "details": "Get the length of the operator delegators array"
      },
      "getTotalRewardsEarned()": {
        "details": "Rewards include staking native ETH and EigenLayer rewards (ETH + ERC20s)",
        "returns": {
          "_0": "uint256  The total amount of rewards earned by the protocol priced in ETH"
        }
      },
      "initialize(address,address,address,address,address,address)": {
        "details": "Initializes the contract with initial vars"
      },
      "removeCollateralToken(address)": {
        "details": "Allows restake manager to remove a collateral token"
      },
      "removeOperatorDelegator(address)": {
        "details": "Allows a restake manager admin to remove an OperatorDelegator from the list"
      },
      "setMaxDepositTVL(uint256)": {
        "details": "Allows a restake manager admin to set the max TVL for deposits.  If set to 0, no deposits will be enforced."
      },
      "setOperatorDelegatorAllocation(address,uint256)": {
        "details": "Allows restake manager admin to set an OperatorDelegator allocation"
      },
      "setPaused(bool)": {
        "details": "Allows a restake manager admin to set the paused state of the contract"
      },
      "stakeEthInOperatorDelegator(address,bytes,bytes,bytes32)": {
        "details": "Called by the deposit queue to stake ETH to a validator Only callable by the deposit queue"
      },
      "startWithdraw(uint256,address)": {
        "details": "The msg.sender must pre-approve this contract to move the ezETH into the protocol The amount of tokens the user is requesting must be available to withdraw from a single OperatorDelegator The OD will be chosen based on the weightings and current value held in each OD on Eigenlayer To complete the withdaw, the caller must call completeWithdraw after the withdraw period has passed The ezETH will be held in this contract until the withdraw is completed",
        "params": {
          "_ezEThToBurn": "The amount of ezETH to burn in base units",
          "_tokenToWithdraw": "The address of the collateral ERC20 token to withdraw"
        },
        "returns": {
          "_0": "bytes32  The withdrawal root of the EigenLayer deposit"
        }
      }
    },
    "stateVariables": {
      "BASIS_POINTS": {
        "details": "Basis points used for percentages (100 basis points equals 1%)"
      }
    },
    "title": "RestakeManager",
    "version": 1
  },
  "userdoc": {
    "kind": "user",
    "methods": {
      "completeWithdraw((address[],uint256[],address,(address,uint96),uint32,address),uint256)": {
        "notice": "Completes a 2 phase withdraw of a collateral token from the protocol"
      },
      "deposit(address,uint256)": {
        "notice": "Deposits an ERC20 collateral token into the protocol"
      },
      "depositETH()": {
        "notice": "Allows a user to deposit ETH into the protocol and get back ezETH"
      },
      "getTotalRewardsEarned()": {
        "notice": "Returns the total amount of rewards earned by the protocol"
      },
      "startWithdraw(uint256,address)": {
        "notice": "Starts a 2 phase withdraw of a collateral token from the protocol in exchange for ezETH"
      }
    },
    "version": 1
  },
  "storageLayout": {
    "storage": [
      {
        "astId": 461,
        "contract": "contracts/RestakeManager.sol:RestakeManager",
        "label": "_initialized",
        "offset": 0,
        "slot": "0",
        "type": "t_uint8"
      },
      {
        "astId": 464,
        "contract": "contracts/RestakeManager.sol:RestakeManager",
        "label": "_initializing",
        "offset": 1,
        "slot": "0",
        "type": "t_bool"
      },
      {
        "astId": 637,
        "contract": "contracts/RestakeManager.sol:RestakeManager",
        "label": "_status",
        "offset": 0,
        "slot": "1",
        "type": "t_uint256"
      },
      {
        "astId": 706,
        "contract": "contracts/RestakeManager.sol:RestakeManager",
        "label": "__gap",
        "offset": 0,
        "slot": "2",
        "type": "t_array(t_uint256)49_storage"
      },
      {
        "astId": 13183,
        "contract": "contracts/RestakeManager.sol:RestakeManager",
        "label": "roleManager",
        "offset": 0,
        "slot": "51",
        "type": "t_contract(IRoleManager)11263"
      },
      {
        "astId": 13187,
        "contract": "contracts/RestakeManager.sol:RestakeManager",
        "label": "ezETH",
        "offset": 0,
        "slot": "52",
        "type": "t_contract(IEzEthToken)14666"
      },
      {
        "astId": 13191,
        "contract": "contracts/RestakeManager.sol:RestakeManager",
        "label": "strategyManager",
        "offset": 0,
        "slot": "53",
        "type": "t_contract(IStrategyManager)7545"
      },
      {
        "astId": 13195,
        "contract": "contracts/RestakeManager.sol:RestakeManager",
        "label": "delegationManager",
        "offset": 0,
        "slot": "54",
        "type": "t_contract(IDelegationManager)6139"
      },
      {
        "astId": 13216,
        "contract": "contracts/RestakeManager.sol:RestakeManager",
        "label": "pendingWithdrawals",
        "offset": 0,
        "slot": "55",
        "type": "t_mapping(t_bytes32,t_struct(PendingWithdrawal)13210_storage)"
      },
      {
        "astId": 13221,
        "contract": "contracts/RestakeManager.sol:RestakeManager",
        "label": "operatorDelegators",
        "offset": 0,
        "slot": "56",
        "type": "t_array(t_contract(IOperatorDelegator)4375)dyn_storage"
      },
      {
        "astId": 13227,
        "contract": "contracts/RestakeManager.sol:RestakeManager",
        "label": "operatorDelegatorAllocations",
        "offset": 0,
        "slot": "57",
        "type": "t_mapping(t_contract(IOperatorDelegator)4375,t_uint256)"
      },
      {
        "astId": 13232,
        "contract": "contracts/RestakeManager.sol:RestakeManager",
        "label": "collateralTokens",
        "offset": 0,
        "slot": "58",
        "type": "t_array(t_contract(IERC20)3540)dyn_storage"
      },
      {
        "astId": 13236,
        "contract": "contracts/RestakeManager.sol:RestakeManager",
        "label": "renzoOracle",
        "offset": 0,
        "slot": "59",
        "type": "t_contract(IRenzoOracle)10779"
      },
      {
        "astId": 13239,
        "contract": "contracts/RestakeManager.sol:RestakeManager",
        "label": "paused",
        "offset": 20,
        "slot": "59",
        "type": "t_bool"
      },
      {
        "astId": 13242,
        "contract": "contracts/RestakeManager.sol:RestakeManager",
        "label": "maxDepositTVL",
        "offset": 0,
        "slot": "60",
        "type": "t_uint256"
      },
      {
        "astId": 13246,
        "contract": "contracts/RestakeManager.sol:RestakeManager",
        "label": "depositQueue",
        "offset": 0,
        "slot": "61",
        "type": "t_contract(IDepositQueue)5707"
      }
    ],
    "types": {
      "t_address": {
        "encoding": "inplace",
        "label": "address",
        "numberOfBytes": "20"
      },
      "t_array(t_contract(IERC20)3540)dyn_storage": {
        "base": "t_contract(IERC20)3540",
        "encoding": "dynamic_array",
        "label": "contract IERC20[]",
        "numberOfBytes": "32"
      },
      "t_array(t_contract(IOperatorDelegator)4375)dyn_storage": {
        "base": "t_contract(IOperatorDelegator)4375",
        "encoding": "dynamic_array",
        "label": "contract IOperatorDelegator[]",
        "numberOfBytes": "32"
      },
      "t_array(t_uint256)49_storage": {
        "base": "t_uint256",
        "encoding": "inplace",
        "label": "uint256[49]",
        "numberOfBytes": "1568"
      },
      "t_bool": {
        "encoding": "inplace",
        "label": "bool",
        "numberOfBytes": "1"
      },
      "t_bytes32": {
        "encoding": "inplace",
        "label": "bytes32",
        "numberOfBytes": "32"
      },
      "t_contract(IDelegationManager)6139": {
        "encoding": "inplace",
        "label": "contract IDelegationManager",
        "numberOfBytes": "20"
      },
      "t_contract(IDepositQueue)5707": {
        "encoding": "inplace",
        "label": "contract IDepositQueue",
        "numberOfBytes": "20"
      },
      "t_contract(IERC20)3540": {
        "encoding": "inplace",
        "label": "contract IERC20",
        "numberOfBytes": "20"
      },
      "t_contract(IEzEthToken)14666": {
        "encoding": "inplace",
        "label": "contract IEzEthToken",
        "numberOfBytes": "20"
      },
      "t_contract(IOperatorDelegator)4375": {
        "encoding": "inplace",
        "label": "contract IOperatorDelegator",
        "numberOfBytes": "20"
      },
      "t_contract(IRenzoOracle)10779": {
        "encoding": "inplace",
        "label": "contract IRenzoOracle",
        "numberOfBytes": "20"
      },
      "t_contract(IRoleManager)11263": {
        "encoding": "inplace",
        "label": "contract IRoleManager",
        "numberOfBytes": "20"
      },
      "t_contract(IStrategyManager)7545": {
        "encoding": "inplace",
        "label": "contract IStrategyManager",
        "numberOfBytes": "20"
      },
      "t_mapping(t_bytes32,t_struct(PendingWithdrawal)13210_storage)": {
        "encoding": "mapping",
        "key": "t_bytes32",
        "label": "mapping(bytes32 => struct RestakeManagerStorageV1.PendingWithdrawal)",
        "numberOfBytes": "32",
        "value": "t_struct(PendingWithdrawal)13210_storage"
      },
      "t_mapping(t_contract(IOperatorDelegator)4375,t_uint256)": {
        "encoding": "mapping",
        "key": "t_contract(IOperatorDelegator)4375",
        "label": "mapping(contract IOperatorDelegator => uint256)",
        "numberOfBytes": "32",
        "value": "t_uint256"
      },
      "t_struct(PendingWithdrawal)13210_storage": {
        "encoding": "inplace",
        "label": "struct RestakeManagerStorageV1.PendingWithdrawal",
        "members": [
          {
            "astId": 13197,
            "contract": "contracts/RestakeManager.sol:RestakeManager",
            "label": "ezETHToBurn",
            "offset": 0,
            "slot": "0",
            "type": "t_uint256"
          },
          {
            "astId": 13199,
            "contract": "contracts/RestakeManager.sol:RestakeManager",
            "label": "withdrawer",
            "offset": 0,
            "slot": "1",
            "type": "t_address"
          },
          {
            "astId": 13202,
            "contract": "contracts/RestakeManager.sol:RestakeManager",
            "label": "tokenToWithdraw",
            "offset": 0,
            "slot": "2",
            "type": "t_contract(IERC20)3540"
          },
          {
            "astId": 13204,
            "contract": "contracts/RestakeManager.sol:RestakeManager",
            "label": "tokenAmountToWithdraw",
            "offset": 0,
            "slot": "3",
            "type": "t_uint256"
          },
          {
            "astId": 13207,
            "contract": "contracts/RestakeManager.sol:RestakeManager",
            "label": "operatorDelegator",
            "offset": 0,
            "slot": "4",
            "type": "t_contract(IOperatorDelegator)4375"
          },
          {
            "astId": 13209,
            "contract": "contracts/RestakeManager.sol:RestakeManager",
            "label": "completed",
            "offset": 20,
            "slot": "4",
            "type": "t_bool"
          }
        ],
        "numberOfBytes": "160"
      },
      "t_uint256": {
        "encoding": "inplace",
        "label": "uint256",
        "numberOfBytes": "32"
      },
      "t_uint8": {
        "encoding": "inplace",
        "label": "uint8",
        "numberOfBytes": "1"
      }
    }
  }
}