{
  "address": "0xed62815F74Cf460245C2069209a722cdA3513cBF",
  "abi": [
    {
      "inputs": [],
      "stateMutability": "nonpayable",
      "type": "constructor"
    },
    {
      "inputs": [],
      "name": "InvalidZeroInput",
      "type": "error"
    },
    {
      "inputs": [],
      "name": "NotNativeEthRestakeAdmin",
      "type": "error"
    },
    {
      "inputs": [],
      "name": "NotRestakeManagerAdmin",
      "type": "error"
    },
    {
      "inputs": [],
      "name": "TransferFailed",
      "type": "error"
    },
    {
      "anonymous": false,
      "inputs": [
        {
          "indexed": false,
          "internalType": "uint8",
          "name": "version",
          "type": "uint8"
        }
      ],
      "name": "Initialized",
      "type": "event"
    },
    {
      "anonymous": false,
      "inputs": [
        {
          "indexed": false,
          "internalType": "address",
          "name": "rewardDestination",
          "type": "address"
        }
      ],
      "name": "RewardDestinationUpdated",
      "type": "event"
    },
    {
      "inputs": [],
      "name": "forwardRewards",
      "outputs": [],
      "stateMutability": "nonpayable",
      "type": "function"
    },
    {
      "inputs": [
        {
          "internalType": "contract IRoleManager",
          "name": "_roleManager",
          "type": "address"
        },
        {
          "internalType": "address",
          "name": "_rewardDestination",
          "type": "address"
        }
      ],
      "name": "initialize",
      "outputs": [],
      "stateMutability": "nonpayable",
      "type": "function"
    },
    {
      "inputs": [],
      "name": "rewardDestination",
      "outputs": [
        {
          "internalType": "address",
          "name": "",
          "type": "address"
        }
      ],
      "stateMutability": "view",
      "type": "function"
    },
    {
      "inputs": [],
      "name": "roleManager",
      "outputs": [
        {
          "internalType": "contract IRoleManager",
          "name": "",
          "type": "address"
        }
      ],
      "stateMutability": "view",
      "type": "function"
    },
    {
      "inputs": [
        {
          "internalType": "address",
          "name": "_rewardDestination",
          "type": "address"
        }
      ],
      "name": "setRewardDestination",
      "outputs": [],
      "stateMutability": "nonpayable",
      "type": "function"
    },
    {
      "stateMutability": "payable",
      "type": "receive"
    }
  ],
  "transactionHash": "0x69634ad1e76bc8c0bbd6742d9beb0f369816b50837550d5519405b002f346e5d",
  "args": [],
  "numDeployments": 1,
  "solcInputHash": "e61991be36f3b065cf1f32b510d9735d",
  "bytecode": "0x608060405234801561001057600080fd5b5061001961001e565b6100dd565b600054610100900460ff161561008a5760405162461bcd60e51b815260206004820152602760248201527f496e697469616c697a61626c653a20636f6e747261637420697320696e697469604482015266616c697a696e6760c81b606482015260840160405180910390fd5b60005460ff908116146100db576000805460ff191660ff9081179091556040519081527f7f26b83ff96e1f2b6a682f133852f6798a09c465da95921460cefb38474024989060200160405180910390a15b565b6106df806100ec6000396000f3fe60806040526004361061004d5760003560e01c8062435da51461006a578063485cc955146100a65780638457d067146100c6578063edb7b677146100e6578063fda45d86146100fb57600080fd5b366100655761005a61011b565b61006360018055565b005b600080fd5b34801561007657600080fd5b5060335461008a906001600160a01b031681565b6040516001600160a01b03909116815260200160405180910390f35b3480156100b257600080fd5b506100636100c13660046105df565b61017f565b3480156100d257600080fd5b506100636100e1366004610618565b610341565b3480156100f257600080fd5b50610063610456565b34801561010757600080fd5b5060345461008a906001600160a01b031681565b6002600154036101725760405162461bcd60e51b815260206004820152601f60248201527f5265656e7472616e637947756172643a207265656e7472616e742063616c6c0060448201526064015b60405180910390fd5b6002600155565b60018055565b600054610100900460ff161580801561019f5750600054600160ff909116105b806101b95750303b1580156101b9575060005460ff166001145b61021c5760405162461bcd60e51b815260206004820152602e60248201527f496e697469616c697a61626c653a20636f6e747261637420697320616c72656160448201526d191e481a5b9a5d1a585b1a5e995960921b6064820152608401610169565b6000805460ff19166001179055801561023f576000805461ff0019166101001790555b610247610579565b6001600160a01b03831661026e5760405163862a606760e01b815260040160405180910390fd5b6001600160a01b0382166102955760405163862a606760e01b815260040160405180910390fd5b603380546001600160a01b038581166001600160a01b0319928316179092556034805492851692909116821790556040519081527f7d9fa86fef61a9878952110711f67d06cd5e6ca88298a8217332f53446e1f1bf9060200160405180910390a1801561033c576000805461ff0019169055604051600181527f7f26b83ff96e1f2b6a682f133852f6798a09c465da95921460cefb38474024989060200160405180910390a15b505050565b61034961011b565b603354604051633edaabc560e11b81523360048201526001600160a01b0390911690637db5578a90602401602060405180830381865afa158015610391573d6000803e3d6000fd5b505050506040513d601f19601f820116820180604052508101906103b5919061063c565b6103d257604051632ec79ab960e01b815260040160405180910390fd5b6001600160a01b0381166103f95760405163862a606760e01b815260040160405180910390fd5b603480546001600160a01b0319166001600160a01b0383169081179091556040519081527f7d9fa86fef61a9878952110711f67d06cd5e6ca88298a8217332f53446e1f1bf9060200160405180910390a161045360018055565b50565b61045e61011b565b6033546040516358e3de6f60e01b81523360048201526001600160a01b03909116906358e3de6f90602401602060405180830381865afa1580156104a6573d6000803e3d6000fd5b505050506040513d601f19601f820116820180604052508101906104ca919061063c565b6104e75760405163bcefa34f60e01b815260040160405180910390fd5b4760008190036104f7575061056e565b6034546040516000916001600160a01b03169083908381818185875af1925050503d8060008114610544576040519150601f19603f3d011682016040523d82523d6000602084013e610549565b606091505b505090508061056b576040516312171d8360e31b815260040160405180910390fd5b50505b61057760018055565b565b600054610100900460ff166105a05760405162461bcd60e51b81526004016101699061065e565b610577600054610100900460ff166101795760405162461bcd60e51b81526004016101699061065e565b6001600160a01b038116811461045357600080fd5b600080604083850312156105f257600080fd5b82356105fd816105ca565b9150602083013561060d816105ca565b809150509250929050565b60006020828403121561062a57600080fd5b8135610635816105ca565b9392505050565b60006020828403121561064e57600080fd5b8151801515811461063557600080fd5b6020808252602b908201527f496e697469616c697a61626c653a20636f6e7472616374206973206e6f74206960408201526a6e697469616c697a696e6760a81b60608201526080019056fea26469706673582212209219423ec37a80d67fe28dd0cd12365e25b7aee9e472cd2bc45e1c74815d093464736f6c63430008130033",
  "devdoc": {
    "author": "Renzo Protocol",
    "details": "Handles native ETH rewards deposited on the execution layer from validator nodes.  Forwards them to the DepositQueue contract for restaking.",
    "errors": {
      "InvalidZeroInput()": [
        {
          "details": "Error for 0x0 address inputs"
        }
      ],
      "NotNativeEthRestakeAdmin()": [
        {
          "details": "Errror when caller does not have ETH Restake Admin role"
        }
      ],
      "NotRestakeManagerAdmin()": [
        {
          "details": "Error for caller not having permissions"
        }
      ],
      "TransferFailed()": [
        {
          "details": "Error when ending ETH fails"
        }
      ]
    },
    "events": {
      "Initialized(uint8)": {
        "details": "Triggered when the contract has been initialized or reinitialized."
      }
    },
    "kind": "dev",
    "methods": {
      "constructor": {
        "custom:oz-upgrades-unsafe-allow": "constructor",
        "details": "Prevents implementation contract from being initialized."
      },
      "forwardRewards()": {
        "details": "Forwards all native ETH rewards to the DepositQueue contract"
      },
      "initialize(address,address)": {
        "details": "Initializes the contract with initial vars"
      }
    },
    "title": "RewardHandler",
    "version": 1
  },
  "userdoc": {
    "kind": "user",
    "methods": {},
    "notice": ".",
    "version": 1
  },
  "storageLayout": {
    "storage": [
      {
        "astId": 461,
        "contract": "contracts/Rewards/RewardHandler.sol:RewardHandler",
        "label": "_initialized",
        "offset": 0,
        "slot": "0",
        "type": "t_uint8"
      },
      {
        "astId": 464,
        "contract": "contracts/Rewards/RewardHandler.sol:RewardHandler",
        "label": "_initializing",
        "offset": 1,
        "slot": "0",
        "type": "t_bool"
      },
      {
        "astId": 637,
        "contract": "contracts/Rewards/RewardHandler.sol:RewardHandler",
        "label": "_status",
        "offset": 0,
        "slot": "1",
        "type": "t_uint256"
      },
      {
        "astId": 706,
        "contract": "contracts/Rewards/RewardHandler.sol:RewardHandler",
        "label": "__gap",
        "offset": 0,
        "slot": "2",
        "type": "t_array(t_uint256)49_storage"
      },
      {
        "astId": 13439,
        "contract": "contracts/Rewards/RewardHandler.sol:RewardHandler",
        "label": "roleManager",
        "offset": 0,
        "slot": "51",
        "type": "t_contract(IRoleManager)11263"
      },
      {
        "astId": 13442,
        "contract": "contracts/Rewards/RewardHandler.sol:RewardHandler",
        "label": "rewardDestination",
        "offset": 0,
        "slot": "52",
        "type": "t_address"
      }
    ],
    "types": {
      "t_address": {
        "encoding": "inplace",
        "label": "address",
        "numberOfBytes": "20"
      },
      "t_array(t_uint256)49_storage": {
        "base": "t_uint256",
        "encoding": "inplace",
        "label": "uint256[49]",
        "numberOfBytes": "1568"
      },
      "t_bool": {
        "encoding": "inplace",
        "label": "bool",
        "numberOfBytes": "1"
      },
      "t_contract(IRoleManager)11263": {
        "encoding": "inplace",
        "label": "contract IRoleManager",
        "numberOfBytes": "20"
      },
      "t_uint256": {
        "encoding": "inplace",
        "label": "uint256",
        "numberOfBytes": "32"
      },
      "t_uint8": {
        "encoding": "inplace",
        "label": "uint8",
        "numberOfBytes": "1"
      }
    }
  }
}