{
  "address": "0x09aA40B6e0e768a04d650302e1879DCED6b7666E",
  "abi": [
    {
      "inputs": [],
      "stateMutability": "nonpayable",
      "type": "constructor"
    },
    {
      "inputs": [],
      "name": "InvalidZeroInput",
      "type": "error"
    },
    {
      "anonymous": false,
      "inputs": [
        {
          "indexed": false,
          "internalType": "uint8",
          "name": "version",
          "type": "uint8"
        }
      ],
      "name": "Initialized",
      "type": "event"
    },
    {
      "anonymous": false,
      "inputs": [
        {
          "indexed": true,
          "internalType": "bytes32",
          "name": "role",
          "type": "bytes32"
        },
        {
          "indexed": true,
          "internalType": "bytes32",
          "name": "previousAdminRole",
          "type": "bytes32"
        },
        {
          "indexed": true,
          "internalType": "bytes32",
          "name": "newAdminRole",
          "type": "bytes32"
        }
      ],
      "name": "RoleAdminChanged",
      "type": "event"
    },
    {
      "anonymous": false,
      "inputs": [
        {
          "indexed": true,
          "internalType": "bytes32",
          "name": "role",
          "type": "bytes32"
        },
        {
          "indexed": true,
          "internalType": "address",
          "name": "account",
          "type": "address"
        },
        {
          "indexed": true,
          "internalType": "address",
          "name": "sender",
          "type": "address"
        }
      ],
      "name": "RoleGranted",
      "type": "event"
    },
    {
      "anonymous": false,
      "inputs": [
        {
          "indexed": true,
          "internalType": "bytes32",
          "name": "role",
          "type": "bytes32"
        },
        {
          "indexed": true,
          "internalType": "address",
          "name": "account",
          "type": "address"
        },
        {
          "indexed": true,
          "internalType": "address",
          "name": "sender",
          "type": "address"
        }
      ],
      "name": "RoleRevoked",
      "type": "event"
    },
    {
      "inputs": [],
      "name": "DEFAULT_ADMIN_ROLE",
      "outputs": [
        {
          "internalType": "bytes32",
          "name": "",
          "type": "bytes32"
        }
      ],
      "stateMutability": "view",
      "type": "function"
    },
    {
      "inputs": [],
      "name": "DEPOSIT_WITHDRAW_PAUSER",
      "outputs": [
        {
          "internalType": "bytes32",
          "name": "",
          "type": "bytes32"
        }
      ],
      "stateMutability": "view",
      "type": "function"
    },
    {
      "inputs": [],
      "name": "ERC20_REWARD_ADMIN",
      "outputs": [
        {
          "internalType": "bytes32",
          "name": "",
          "type": "bytes32"
        }
      ],
      "stateMutability": "view",
      "type": "function"
    },
    {
      "inputs": [],
      "name": "NATIVE_ETH_RESTAKE_ADMIN",
      "outputs": [
        {
          "internalType": "bytes32",
          "name": "",
          "type": "bytes32"
        }
      ],
      "stateMutability": "view",
      "type": "function"
    },
    {
      "inputs": [],
      "name": "OPERATOR_DELEGATOR_ADMIN",
      "outputs": [
        {
          "internalType": "bytes32",
          "name": "",
          "type": "bytes32"
        }
      ],
      "stateMutability": "view",
      "type": "function"
    },
    {
      "inputs": [],
      "name": "ORACLE_ADMIN",
      "outputs": [
        {
          "internalType": "bytes32",
          "name": "",
          "type": "bytes32"
        }
      ],
      "stateMutability": "view",
      "type": "function"
    },
    {
      "inputs": [],
      "name": "RESTAKE_MANAGER_ADMIN",
      "outputs": [
        {
          "internalType": "bytes32",
          "name": "",
          "type": "bytes32"
        }
      ],
      "stateMutability": "view",
      "type": "function"
    },
    {
      "inputs": [],
      "name": "RX_ETH_MINTER_BURNER",
      "outputs": [
        {
          "internalType": "bytes32",
          "name": "",
          "type": "bytes32"
        }
      ],
      "stateMutability": "view",
      "type": "function"
    },
    {
      "inputs": [],
      "name": "TOKEN_ADMIN",
      "outputs": [
        {
          "internalType": "bytes32",
          "name": "",
          "type": "bytes32"
        }
      ],
      "stateMutability": "view",
      "type": "function"
    },
    {
      "inputs": [
        {
          "internalType": "bytes32",
          "name": "role",
          "type": "bytes32"
        }
      ],
      "name": "getRoleAdmin",
      "outputs": [
        {
          "internalType": "bytes32",
          "name": "",
          "type": "bytes32"
        }
      ],
      "stateMutability": "view",
      "type": "function"
    },
    {
      "inputs": [
        {
          "internalType": "bytes32",
          "name": "role",
          "type": "bytes32"
        },
        {
          "internalType": "address",
          "name": "account",
          "type": "address"
        }
      ],
      "name": "grantRole",
      "outputs": [],
      "stateMutability": "nonpayable",
      "type": "function"
    },
    {
      "inputs": [
        {
          "internalType": "bytes32",
          "name": "role",
          "type": "bytes32"
        },
        {
          "internalType": "address",
          "name": "account",
          "type": "address"
        }
      ],
      "name": "hasRole",
      "outputs": [
        {
          "internalType": "bool",
          "name": "",
          "type": "bool"
        }
      ],
      "stateMutability": "view",
      "type": "function"
    },
    {
      "inputs": [
        {
          "internalType": "address",
          "name": "roleManagerAdmin",
          "type": "address"
        }
      ],
      "name": "initialize",
      "outputs": [],
      "stateMutability": "nonpayable",
      "type": "function"
    },
    {
      "inputs": [
        {
          "internalType": "address",
          "name": "potentialAddress",
          "type": "address"
        }
      ],
      "name": "isDepositWithdrawPauser",
      "outputs": [
        {
          "internalType": "bool",
          "name": "",
          "type": "bool"
        }
      ],
      "stateMutability": "view",
      "type": "function"
    },
    {
      "inputs": [
        {
          "internalType": "address",
          "name": "potentialAddress",
          "type": "address"
        }
      ],
      "name": "isERC20RewardsAdmin",
      "outputs": [
        {
          "internalType": "bool",
          "name": "",
          "type": "bool"
        }
      ],
      "stateMutability": "view",
      "type": "function"
    },
    {
      "inputs": [
        {
          "internalType": "address",
          "name": "potentialAddress",
          "type": "address"
        }
      ],
      "name": "isEzETHMinterBurner",
      "outputs": [
        {
          "internalType": "bool",
          "name": "",
          "type": "bool"
        }
      ],
      "stateMutability": "view",
      "type": "function"
    },
    {
      "inputs": [
        {
          "internalType": "address",
          "name": "potentialAddress",
          "type": "address"
        }
      ],
      "name": "isNativeEthRestakeAdmin",
      "outputs": [
        {
          "internalType": "bool",
          "name": "",
          "type": "bool"
        }
      ],
      "stateMutability": "view",
      "type": "function"
    },
    {
      "inputs": [
        {
          "internalType": "address",
          "name": "potentialAddress",
          "type": "address"
        }
      ],
      "name": "isOperatorDelegatorAdmin",
      "outputs": [
        {
          "internalType": "bool",
          "name": "",
          "type": "bool"
        }
      ],
      "stateMutability": "view",
      "type": "function"
    },
    {
      "inputs": [
        {
          "internalType": "address",
          "name": "potentialAddress",
          "type": "address"
        }
      ],
      "name": "isOracleAdmin",
      "outputs": [
        {
          "internalType": "bool",
          "name": "",
          "type": "bool"
        }
      ],
      "stateMutability": "view",
      "type": "function"
    },
    {
      "inputs": [
        {
          "internalType": "address",
          "name": "potentialAddress",
          "type": "address"
        }
      ],
      "name": "isRestakeManagerAdmin",
      "outputs": [
        {
          "internalType": "bool",
          "name": "",
          "type": "bool"
        }
      ],
      "stateMutability": "view",
      "type": "function"
    },
    {
      "inputs": [
        {
          "internalType": "address",
          "name": "potentialAddress",
          "type": "address"
        }
      ],
      "name": "isRoleManagerAdmin",
      "outputs": [
        {
          "internalType": "bool",
          "name": "",
          "type": "bool"
        }
      ],
      "stateMutability": "view",
      "type": "function"
    },
    {
      "inputs": [
        {
          "internalType": "address",
          "name": "potentialAddress",
          "type": "address"
        }
      ],
      "name": "isTokenAdmin",
      "outputs": [
        {
          "internalType": "bool",
          "name": "",
          "type": "bool"
        }
      ],
      "stateMutability": "view",
      "type": "function"
    },
    {
      "inputs": [
        {
          "internalType": "bytes32",
          "name": "role",
          "type": "bytes32"
        },
        {
          "internalType": "address",
          "name": "account",
          "type": "address"
        }
      ],
      "name": "renounceRole",
      "outputs": [],
      "stateMutability": "nonpayable",
      "type": "function"
    },
    {
      "inputs": [
        {
          "internalType": "bytes32",
          "name": "role",
          "type": "bytes32"
        },
        {
          "internalType": "address",
          "name": "account",
          "type": "address"
        }
      ],
      "name": "revokeRole",
      "outputs": [],
      "stateMutability": "nonpayable",
      "type": "function"
    },
    {
      "inputs": [
        {
          "internalType": "bytes4",
          "name": "interfaceId",
          "type": "bytes4"
        }
      ],
      "name": "supportsInterface",
      "outputs": [
        {
          "internalType": "bool",
          "name": "",
          "type": "bool"
        }
      ],
      "stateMutability": "view",
      "type": "function"
    }
  ],
  "transactionHash": "0x023e324f270bb50919eeb3d96715fae11533c2fb05e4e8b98e98df2b3cbd334b",
  "args": [],
  "numDeployments": 1,
  "solcInputHash": "e61991be36f3b065cf1f32b510d9735d",
  "bytecode": "0x608060405234801561001057600080fd5b5061001961001e565b6100dd565b600054610100900460ff161561008a5760405162461bcd60e51b815260206004820152602760248201527f496e697469616c697a61626c653a20636f6e747261637420697320696e697469604482015266616c697a696e6760c81b606482015260840160405180910390fd5b60005460ff908116146100db576000805460ff191660ff9081179091556040519081527f7f26b83ff96e1f2b6a682f133852f6798a09c465da95921460cefb38474024989060200160405180910390a15b565b610d9c806100ec6000396000f3fe608060405234801561001057600080fd5b50600436106101735760003560e01c80637998ea0f116100de578063a2bdde3d11610097578063b58f66d411610071578063b58f66d4146103bd578063c4d66de8146103d0578063d1efebfe146103e3578063d547741f1461040a57600080fd5b8063a2bdde3d1461035c578063ab1f62211461036f578063ac94a9de1461039657600080fd5b80637998ea0f146102e15780637db5578a146102f457806384fe7e091461030757806390314e071461032e57806391d1485414610341578063a217fddf1461035457600080fd5b806336568abe1161013057806336568abe1461024757806350a7bc531461025a57806358e3de6f14610281578063639433e61461029457806368cce7c3146102bb5780636aee5f78146102ce57600080fd5b806301ffc9a714610178578063042fee98146101a05780631ad52418146101b35780631de7bfe3146101e8578063248a9ca31461020f5780632f2ff15d14610232575b600080fd5b61018b610186366004610b71565b61041d565b60405190151581526020015b60405180910390f35b61018b6101ae366004610bb7565b610454565b6101da7fce088eb4daf8e00559f6efaf5033e4a20a999465aef63939fc8291590e8b68f581565b604051908152602001610197565b6101da7f9b9a548aa2ba34e30a47878c06bae11c39c3dd5d938ef6b753c528ab93bd617881565b6101da61021d366004610bd2565b60009081526065602052604090206001015490565b610245610240366004610beb565b610480565b005b610245610255366004610beb565b6104aa565b6101da7f99a2b826efe74b18e139d0e8c752fad8ff60b7bd6f715f246d3981b65164d6a081565b61018b61028f366004610bb7565b61052d565b6101da7fa8d944a5277d6a203f114d020d26918a390f167b089a46be4fca9da716d2378381565b61018b6102c9366004610bb7565b610559565b61018b6102dc366004610bb7565b610585565b61018b6102ef366004610bb7565b6105b1565b61018b610302366004610bb7565b6105dd565b6101da7f381f0869cbcb6248e6fffbe44170ce68c8e237bb2b894637dd8b5ead3a90ac6481565b61018b61033c366004610bb7565b610609565b61018b61034f366004610beb565b610611565b6101da600081565b61018b61036a366004610bb7565b61063c565b6101da7fe0c9b0afde038f1612cf25a9a50d0cc426fb91764673c34a47386568b26e197381565b6101da7f62929bb83c08258143b690639c95d6a1af635a6fe1efdc47ec862aa3aecd13b281565b61018b6103cb366004610bb7565b610668565b6102456103de366004610bb7565b610694565b6101da7f74088672d183ee797e5da8fa05521697933bd36698c07546fac57bdf4023d87781565b610245610418366004610beb565b6107d7565b60006001600160e01b03198216637965db0b60e01b148061044e57506301ffc9a760e01b6001600160e01b03198316145b92915050565b600061044e7f381f0869cbcb6248e6fffbe44170ce68c8e237bb2b894637dd8b5ead3a90ac6483610611565b60008281526065602052604090206001015461049b816107fc565b6104a58383610809565b505050565b6001600160a01b038116331461051f5760405162461bcd60e51b815260206004820152602f60248201527f416363657373436f6e74726f6c3a2063616e206f6e6c792072656e6f756e636560448201526e103937b632b9903337b91039b2b63360891b60648201526084015b60405180910390fd5b610529828261088f565b5050565b600061044e7fe0c9b0afde038f1612cf25a9a50d0cc426fb91764673c34a47386568b26e197383610611565b600061044e7fa8d944a5277d6a203f114d020d26918a390f167b089a46be4fca9da716d2378383610611565b600061044e7f9b9a548aa2ba34e30a47878c06bae11c39c3dd5d938ef6b753c528ab93bd617883610611565b600061044e7fce088eb4daf8e00559f6efaf5033e4a20a999465aef63939fc8291590e8b68f583610611565b600061044e7f62929bb83c08258143b690639c95d6a1af635a6fe1efdc47ec862aa3aecd13b283610611565b600061044e81835b60009182526065602090815260408084206001600160a01b0393909316845291905290205460ff1690565b600061044e7f74088672d183ee797e5da8fa05521697933bd36698c07546fac57bdf4023d87783610611565b600061044e7f99a2b826efe74b18e139d0e8c752fad8ff60b7bd6f715f246d3981b65164d6a083610611565b600054610100900460ff16158080156106b45750600054600160ff909116105b806106ce5750303b1580156106ce575060005460ff166001145b6107315760405162461bcd60e51b815260206004820152602e60248201527f496e697469616c697a61626c653a20636f6e747261637420697320616c72656160448201526d191e481a5b9a5d1a585b1a5e995960921b6064820152608401610516565b6000805460ff191660011790558015610754576000805461ff0019166101001790555b6001600160a01b03821661077b5760405163862a606760e01b815260040160405180910390fd5b6107836108f6565b61078e600083610809565b8015610529576000805461ff0019169055604051600181527f7f26b83ff96e1f2b6a682f133852f6798a09c465da95921460cefb38474024989060200160405180910390a15050565b6000828152606560205260409020600101546107f2816107fc565b6104a5838361088f565b6108068133610963565b50565b6108138282610611565b6105295760008281526065602090815260408083206001600160a01b03851684529091529020805460ff1916600117905561084b3390565b6001600160a01b0316816001600160a01b0316837f2f8788117e7eff1d82e926ec794901d17c78024a50270940304540a733656f0d60405160405180910390a45050565b6108998282610611565b156105295760008281526065602090815260408083206001600160a01b0385168085529252808320805460ff1916905551339285917ff6391f5c32d9c69d2a47ea670b442974b53935d1edc7fd64eb21e047a839171b9190a45050565b600054610100900460ff166109615760405162461bcd60e51b815260206004820152602b60248201527f496e697469616c697a61626c653a20636f6e7472616374206973206e6f74206960448201526a6e697469616c697a696e6760a81b6064820152608401610516565b565b61096d8282610611565b6105295761097a816109bc565b6109858360206109ce565b604051602001610996929190610c3b565b60408051601f198184030181529082905262461bcd60e51b825261051691600401610cb0565b606061044e6001600160a01b03831660145b606060006109dd836002610cf9565b6109e8906002610d10565b67ffffffffffffffff811115610a0057610a00610d23565b6040519080825280601f01601f191660200182016040528015610a2a576020820181803683370190505b509050600360fc1b81600081518110610a4557610a45610d39565b60200101906001600160f81b031916908160001a905350600f60fb1b81600181518110610a7457610a74610d39565b60200101906001600160f81b031916908160001a9053506000610a98846002610cf9565b610aa3906001610d10565b90505b6001811115610b1b576f181899199a1a9b1b9c1cb0b131b232b360811b85600f1660108110610ad757610ad7610d39565b1a60f81b828281518110610aed57610aed610d39565b60200101906001600160f81b031916908160001a90535060049490941c93610b1481610d4f565b9050610aa6565b508315610b6a5760405162461bcd60e51b815260206004820181905260248201527f537472696e67733a20686578206c656e67746820696e73756666696369656e746044820152606401610516565b9392505050565b600060208284031215610b8357600080fd5b81356001600160e01b031981168114610b6a57600080fd5b80356001600160a01b0381168114610bb257600080fd5b919050565b600060208284031215610bc957600080fd5b610b6a82610b9b565b600060208284031215610be457600080fd5b5035919050565b60008060408385031215610bfe57600080fd5b82359150610c0e60208401610b9b565b90509250929050565b60005b83811015610c32578181015183820152602001610c1a565b50506000910152565b7f416363657373436f6e74726f6c3a206163636f756e7420000000000000000000815260008351610c73816017850160208801610c17565b7001034b99036b4b9b9b4b733903937b6329607d1b6017918401918201528351610ca4816028840160208801610c17565b01602801949350505050565b6020815260008251806020840152610ccf816040850160208701610c17565b601f01601f19169190910160400192915050565b634e487b7160e01b600052601160045260246000fd5b808202811582820484141761044e5761044e610ce3565b8082018082111561044e5761044e610ce3565b634e487b7160e01b600052604160045260246000fd5b634e487b7160e01b600052603260045260246000fd5b600081610d5e57610d5e610ce3565b50600019019056fea2646970667358221220bc1e664622a36310e41aa26a12c226312137d538da13cb60c13e79388fadf49d64736f6c63430008130033",
  "devdoc": {
    "details": "This contract will track the roles and permissions in the protocol Note: This contract is protected via a permissioned account set via the initializer.  Caution should be used as the owner could renounce the role leaving all future actions disabled.  Additionally, if a malicious account was able to obtain the role, they could use it to grant permissions to malicious accounts.",
    "errors": {
      "InvalidZeroInput()": [
        {
          "details": "Error for 0x0 address inputs"
        }
      ]
    },
    "events": {
      "Initialized(uint8)": {
        "details": "Triggered when the contract has been initialized or reinitialized."
      },
      "RoleAdminChanged(bytes32,bytes32,bytes32)": {
        "details": "Emitted when `newAdminRole` is set as ``role``'s admin role, replacing `previousAdminRole` `DEFAULT_ADMIN_ROLE` is the starting admin for all roles, despite {RoleAdminChanged} not being emitted signaling this. _Available since v3.1._"
      },
      "RoleGranted(bytes32,address,address)": {
        "details": "Emitted when `account` is granted `role`. `sender` is the account that originated the contract call, an admin role bearer except when using {AccessControl-_setupRole}."
      },
      "RoleRevoked(bytes32,address,address)": {
        "details": "Emitted when `account` is revoked `role`. `sender` is the account that originated the contract call:   - if using `revokeRole`, it is the admin role bearer   - if using `renounceRole`, it is the role bearer (i.e. `account`)"
      }
    },
    "kind": "dev",
    "methods": {
      "constructor": {
        "custom:oz-upgrades-unsafe-allow": "constructor",
        "details": "Prevents implementation contract from being initialized."
      },
      "getRoleAdmin(bytes32)": {
        "details": "Returns the admin role that controls `role`. See {grantRole} and {revokeRole}. To change a role's admin, use {_setRoleAdmin}."
      },
      "grantRole(bytes32,address)": {
        "details": "Grants `role` to `account`. If `account` had not been already granted `role`, emits a {RoleGranted} event. Requirements: - the caller must have ``role``'s admin role. May emit a {RoleGranted} event."
      },
      "hasRole(bytes32,address)": {
        "details": "Returns `true` if `account` has been granted `role`."
      },
      "initialize(address)": {
        "details": "initializer to call after deployment, can only be called once"
      },
      "isDepositWithdrawPauser(address)": {
        "details": "Determines if the specified address has permission to pause deposits and withdraws",
        "params": {
          "potentialAddress": "Address to check"
        }
      },
      "isERC20RewardsAdmin(address)": {
        "details": "Determines if the specified address has permission to sweep and deposit ERC20 Rewards",
        "params": {
          "potentialAddress": "Address to check"
        }
      },
      "isEzETHMinterBurner(address)": {
        "details": "Determines if the specified address has permission to mint or burn ezETH tokens",
        "params": {
          "potentialAddress": "Address to check"
        }
      },
      "isNativeEthRestakeAdmin(address)": {
        "details": "Determines if the specified address has permission to trigger restaking of native ETH",
        "params": {
          "potentialAddress": "Address to check"
        }
      },
      "isOperatorDelegatorAdmin(address)": {
        "details": "Determines if the specified address has permission to update config on the OperatorDelgator Contracts",
        "params": {
          "potentialAddress": "Address to check"
        }
      },
      "isOracleAdmin(address)": {
        "details": "Determines if the specified address has permission to update config on the Oracle Contract config",
        "params": {
          "potentialAddress": "Address to check"
        }
      },
      "isRestakeManagerAdmin(address)": {
        "details": "Determines if the specified address has permission to update config on the RestakeManager Contract config",
        "params": {
          "potentialAddress": "Address to check"
        }
      },
      "isRoleManagerAdmin(address)": {
        "details": "Determines if the specified address has permissions to manage RoleManager",
        "params": {
          "potentialAddress": "Address to check"
        }
      },
      "isTokenAdmin(address)": {
        "details": "Determines if the specified address has permission to update config on the Token Contract",
        "params": {
          "potentialAddress": "Address to check"
        }
      },
      "renounceRole(bytes32,address)": {
        "details": "Revokes `role` from the calling account. Roles are often managed via {grantRole} and {revokeRole}: this function's purpose is to provide a mechanism for accounts to lose their privileges if they are compromised (such as when a trusted device is misplaced). If the calling account had been revoked `role`, emits a {RoleRevoked} event. Requirements: - the caller must be `account`. May emit a {RoleRevoked} event."
      },
      "revokeRole(bytes32,address)": {
        "details": "Revokes `role` from `account`. If `account` had been granted `role`, emits a {RoleRevoked} event. Requirements: - the caller must have ``role``'s admin role. May emit a {RoleRevoked} event."
      },
      "supportsInterface(bytes4)": {
        "details": "See {IERC165-supportsInterface}."
      }
    },
    "title": "RoleManager",
    "version": 1
  },
  "userdoc": {
    "kind": "user",
    "methods": {},
    "version": 1
  },
  "storageLayout": {
    "storage": [
      {
        "astId": 461,
        "contract": "contracts/Permissions/RoleManager.sol:RoleManager",
        "label": "_initialized",
        "offset": 0,
        "slot": "0",
        "type": "t_uint8"
      },
      {
        "astId": 464,
        "contract": "contracts/Permissions/RoleManager.sol:RoleManager",
        "label": "_initializing",
        "offset": 1,
        "slot": "0",
        "type": "t_bool"
      },
      {
        "astId": 2205,
        "contract": "contracts/Permissions/RoleManager.sol:RoleManager",
        "label": "__gap",
        "offset": 0,
        "slot": "1",
        "type": "t_array(t_uint256)50_storage"
      },
      {
        "astId": 2478,
        "contract": "contracts/Permissions/RoleManager.sol:RoleManager",
        "label": "__gap",
        "offset": 0,
        "slot": "51",
        "type": "t_array(t_uint256)50_storage"
      },
      {
        "astId": 85,
        "contract": "contracts/Permissions/RoleManager.sol:RoleManager",
        "label": "_roles",
        "offset": 0,
        "slot": "101",
        "type": "t_mapping(t_bytes32,t_struct(RoleData)80_storage)"
      },
      {
        "astId": 380,
        "contract": "contracts/Permissions/RoleManager.sol:RoleManager",
        "label": "__gap",
        "offset": 0,
        "slot": "102",
        "type": "t_array(t_uint256)49_storage"
      }
    ],
    "types": {
      "t_address": {
        "encoding": "inplace",
        "label": "address",
        "numberOfBytes": "20"
      },
      "t_array(t_uint256)49_storage": {
        "base": "t_uint256",
        "encoding": "inplace",
        "label": "uint256[49]",
        "numberOfBytes": "1568"
      },
      "t_array(t_uint256)50_storage": {
        "base": "t_uint256",
        "encoding": "inplace",
        "label": "uint256[50]",
        "numberOfBytes": "1600"
      },
      "t_bool": {
        "encoding": "inplace",
        "label": "bool",
        "numberOfBytes": "1"
      },
      "t_bytes32": {
        "encoding": "inplace",
        "label": "bytes32",
        "numberOfBytes": "32"
      },
      "t_mapping(t_address,t_bool)": {
        "encoding": "mapping",
        "key": "t_address",
        "label": "mapping(address => bool)",
        "numberOfBytes": "32",
        "value": "t_bool"
      },
      "t_mapping(t_bytes32,t_struct(RoleData)80_storage)": {
        "encoding": "mapping",
        "key": "t_bytes32",
        "label": "mapping(bytes32 => struct AccessControlUpgradeable.RoleData)",
        "numberOfBytes": "32",
        "value": "t_struct(RoleData)80_storage"
      },
      "t_struct(RoleData)80_storage": {
        "encoding": "inplace",
        "label": "struct AccessControlUpgradeable.RoleData",
        "members": [
          {
            "astId": 77,
            "contract": "contracts/Permissions/RoleManager.sol:RoleManager",
            "label": "members",
            "offset": 0,
            "slot": "0",
            "type": "t_mapping(t_address,t_bool)"
          },
          {
            "astId": 79,
            "contract": "contracts/Permissions/RoleManager.sol:RoleManager",
            "label": "adminRole",
            "offset": 0,
            "slot": "1",
            "type": "t_bytes32"
          }
        ],
        "numberOfBytes": "64"
      },
      "t_uint256": {
        "encoding": "inplace",
        "label": "uint256",
        "numberOfBytes": "32"
      },
      "t_uint8": {
        "encoding": "inplace",
        "label": "uint8",
        "numberOfBytes": "1"
      }
    }
  }
}